{
  "_format": "hh-sol-artifact-1",
  "contractName": "ERC721Template",
  "sourceName": "contracts/templates/ERC721Template.sol",
  "abi": [
    {
      "anonymous": false,
      "inputs": [
        {
          "indexed": true,
          "internalType": "address",
          "name": "owner",
          "type": "address"
        },
        {
          "indexed": true,
          "internalType": "address",
          "name": "approved",
          "type": "address"
        },
        {
          "indexed": true,
          "internalType": "uint256",
          "name": "tokenId",
          "type": "uint256"
        }
      ],
      "name": "Approval",
      "type": "event"
    },
    {
      "anonymous": false,
      "inputs": [
        {
          "indexed": true,
          "internalType": "address",
          "name": "owner",
          "type": "address"
        },
        {
          "indexed": true,
          "internalType": "address",
          "name": "operator",
          "type": "address"
        },
        {
          "indexed": false,
          "internalType": "bool",
          "name": "approved",
          "type": "bool"
        }
      ],
      "name": "ApprovalForAll",
      "type": "event"
    },
    {
      "anonymous": false,
      "inputs": [
        {
          "indexed": true,
          "internalType": "address",
          "name": "updatedBy",
          "type": "address"
        },
        {
          "indexed": false,
          "internalType": "string",
          "name": "metadataURI",
          "type": "string"
        },
        {
          "indexed": false,
          "internalType": "uint256",
          "name": "timestamp",
          "type": "uint256"
        },
        {
          "indexed": false,
          "internalType": "uint256",
          "name": "blockNumber",
          "type": "uint256"
        }
      ],
      "name": "MetadataUpdated",
      "type": "event"
    },
    {
      "anonymous": false,
      "inputs": [
        {
          "indexed": true,
          "internalType": "address",
          "name": "previousOwner",
          "type": "address"
        },
        {
          "indexed": true,
          "internalType": "address",
          "name": "newOwner",
          "type": "address"
        }
      ],
      "name": "OwnershipTransferred",
      "type": "event"
    },
    {
      "anonymous": false,
      "inputs": [
        {
          "indexed": false,
          "internalType": "address",
          "name": "account",
          "type": "address"
        }
      ],
      "name": "Paused",
      "type": "event"
    },
    {
      "anonymous": false,
      "inputs": [
        {
          "indexed": true,
          "internalType": "bytes32",
          "name": "role",
          "type": "bytes32"
        },
        {
          "indexed": true,
          "internalType": "bytes32",
          "name": "previousAdminRole",
          "type": "bytes32"
        },
        {
          "indexed": true,
          "internalType": "bytes32",
          "name": "newAdminRole",
          "type": "bytes32"
        }
      ],
      "name": "RoleAdminChanged",
      "type": "event"
    },
    {
      "anonymous": false,
      "inputs": [
        {
          "indexed": true,
          "internalType": "bytes32",
          "name": "role",
          "type": "bytes32"
        },
        {
          "indexed": true,
          "internalType": "address",
          "name": "account",
          "type": "address"
        },
        {
          "indexed": true,
          "internalType": "address",
          "name": "sender",
          "type": "address"
        }
      ],
      "name": "RoleGranted",
      "type": "event"
    },
    {
      "anonymous": false,
      "inputs": [
        {
          "indexed": true,
          "internalType": "bytes32",
          "name": "role",
          "type": "bytes32"
        },
        {
          "indexed": true,
          "internalType": "address",
          "name": "account",
          "type": "address"
        },
        {
          "indexed": true,
          "internalType": "address",
          "name": "sender",
          "type": "address"
        }
      ],
      "name": "RoleRevoked",
      "type": "event"
    },
    {
      "anonymous": false,
      "inputs": [
        {
          "indexed": true,
          "internalType": "address",
          "name": "from",
          "type": "address"
        },
        {
          "indexed": true,
          "internalType": "address",
          "name": "to",
          "type": "address"
        },
        {
          "indexed": true,
          "internalType": "uint256",
          "name": "tokenId",
          "type": "uint256"
        }
      ],
      "name": "Transfer",
      "type": "event"
    },
    {
      "anonymous": false,
      "inputs": [
        {
          "indexed": false,
          "internalType": "address",
          "name": "account",
          "type": "address"
        }
      ],
      "name": "Unpaused",
      "type": "event"
    },
    {
      "inputs": [],
      "name": "DEFAULT_ADMIN_ROLE",
      "outputs": [
        {
          "internalType": "bytes32",
          "name": "",
          "type": "bytes32"
        }
      ],
      "stateMutability": "view",
      "type": "function"
    },
    {
      "inputs": [],
      "name": "MANAGER_ROLE",
      "outputs": [
        {
          "internalType": "bytes32",
          "name": "",
          "type": "bytes32"
        }
      ],
      "stateMutability": "view",
      "type": "function"
    },
    {
      "inputs": [
        {
          "internalType": "address",
          "name": "_manager",
          "type": "address"
        }
      ],
      "name": "addManager",
      "outputs": [],
      "stateMutability": "nonpayable",
      "type": "function"
    },
    {
      "inputs": [
        {
          "internalType": "address",
          "name": "to",
          "type": "address"
        },
        {
          "internalType": "uint256",
          "name": "tokenId",
          "type": "uint256"
        }
      ],
      "name": "approve",
      "outputs": [],
      "stateMutability": "nonpayable",
      "type": "function"
    },
    {
      "inputs": [
        {
          "internalType": "address",
          "name": "owner",
          "type": "address"
        }
      ],
      "name": "balanceOf",
      "outputs": [
        {
          "internalType": "uint256",
          "name": "",
          "type": "uint256"
        }
      ],
      "stateMutability": "view",
      "type": "function"
    },
    {
      "inputs": [
        {
          "internalType": "uint256",
          "name": "tokenId",
          "type": "uint256"
        }
      ],
      "name": "getApproved",
      "outputs": [
        {
          "internalType": "address",
          "name": "",
          "type": "address"
        }
      ],
      "stateMutability": "view",
      "type": "function"
    },
    {
      "inputs": [
        {
          "internalType": "bytes32",
          "name": "role",
          "type": "bytes32"
        }
      ],
      "name": "getRoleAdmin",
      "outputs": [
        {
          "internalType": "bytes32",
          "name": "",
          "type": "bytes32"
        }
      ],
      "stateMutability": "view",
      "type": "function"
    },
    {
      "inputs": [
        {
          "internalType": "bytes32",
          "name": "role",
          "type": "bytes32"
        },
        {
          "internalType": "address",
          "name": "account",
          "type": "address"
        }
      ],
      "name": "grantRole",
      "outputs": [],
      "stateMutability": "nonpayable",
      "type": "function"
    },
    {
      "inputs": [
        {
          "internalType": "bytes32",
          "name": "role",
          "type": "bytes32"
        },
        {
          "internalType": "address",
          "name": "account",
          "type": "address"
        }
      ],
      "name": "hasRole",
      "outputs": [
        {
          "internalType": "bool",
          "name": "",
          "type": "bool"
        }
      ],
      "stateMutability": "view",
      "type": "function"
    },
    {
      "inputs": [
        {
          "internalType": "address",
          "name": "_owner",
          "type": "address"
        },
        {
          "internalType": "string",
          "name": "_name",
          "type": "string"
        },
        {
          "internalType": "string",
          "name": "_symbol",
          "type": "string"
        },
        {
          "internalType": "string",
          "name": "_metadataURI",
          "type": "string"
        },
        {
          "internalType": "enum ERC721Template.Kind",
          "name": "_kind",
          "type": "uint8"
        }
      ],
      "name": "initialize",
      "outputs": [
        {
          "internalType": "bool",
          "name": "",
          "type": "bool"
        }
      ],
      "stateMutability": "nonpayable",
      "type": "function"
    },
    {
      "inputs": [
        {
          "internalType": "address",
          "name": "owner",
          "type": "address"
        },
        {
          "internalType": "address",
          "name": "operator",
          "type": "address"
        }
      ],
      "name": "isApprovedForAll",
      "outputs": [
        {
          "internalType": "bool",
          "name": "",
          "type": "bool"
        }
      ],
      "stateMutability": "view",
      "type": "function"
    },
    {
      "inputs": [],
      "name": "name",
      "outputs": [
        {
          "internalType": "string",
          "name": "",
          "type": "string"
        }
      ],
      "stateMutability": "view",
      "type": "function"
    },
    {
      "inputs": [],
      "name": "owner",
      "outputs": [
        {
          "internalType": "address",
          "name": "",
          "type": "address"
        }
      ],
      "stateMutability": "view",
      "type": "function"
    },
    {
      "inputs": [
        {
          "internalType": "uint256",
          "name": "tokenId",
          "type": "uint256"
        }
      ],
      "name": "ownerOf",
      "outputs": [
        {
          "internalType": "address",
          "name": "",
          "type": "address"
        }
      ],
      "stateMutability": "view",
      "type": "function"
    },
    {
      "inputs": [],
      "name": "pause",
      "outputs": [],
      "stateMutability": "nonpayable",
      "type": "function"
    },
    {
      "inputs": [],
      "name": "paused",
      "outputs": [
        {
          "internalType": "bool",
          "name": "",
          "type": "bool"
        }
      ],
      "stateMutability": "view",
      "type": "function"
    },
    {
      "inputs": [],
      "name": "price",
      "outputs": [
        {
          "internalType": "uint256",
          "name": "",
          "type": "uint256"
        }
      ],
      "stateMutability": "view",
      "type": "function"
    },
    {
      "inputs": [
        {
          "internalType": "address",
          "name": "_manager",
          "type": "address"
        }
      ],
      "name": "removeManager",
      "outputs": [],
      "stateMutability": "nonpayable",
      "type": "function"
    },
    {
      "inputs": [],
      "name": "renounceOwnership",
      "outputs": [],
      "stateMutability": "nonpayable",
      "type": "function"
    },
    {
      "inputs": [
        {
          "internalType": "bytes32",
          "name": "role",
          "type": "bytes32"
        },
        {
          "internalType": "address",
          "name": "account",
          "type": "address"
        }
      ],
      "name": "renounceRole",
      "outputs": [],
      "stateMutability": "nonpayable",
      "type": "function"
    },
    {
      "inputs": [
        {
          "internalType": "bytes32",
          "name": "role",
          "type": "bytes32"
        },
        {
          "internalType": "address",
          "name": "account",
          "type": "address"
        }
      ],
      "name": "revokeRole",
      "outputs": [],
      "stateMutability": "nonpayable",
      "type": "function"
    },
    {
      "inputs": [
        {
          "internalType": "address",
          "name": "from",
          "type": "address"
        },
        {
          "internalType": "address",
          "name": "to",
          "type": "address"
        },
        {
          "internalType": "uint256",
          "name": "tokenId",
          "type": "uint256"
        }
      ],
      "name": "safeTransferFrom",
      "outputs": [],
      "stateMutability": "nonpayable",
      "type": "function"
    },
    {
      "inputs": [
        {
          "internalType": "address",
          "name": "from",
          "type": "address"
        },
        {
          "internalType": "address",
          "name": "to",
          "type": "address"
        },
        {
          "internalType": "uint256",
          "name": "tokenId",
          "type": "uint256"
        },
        {
          "internalType": "bytes",
          "name": "data",
          "type": "bytes"
        }
      ],
      "name": "safeTransferFrom",
      "outputs": [],
      "stateMutability": "nonpayable",
      "type": "function"
    },
    {
      "inputs": [
        {
          "internalType": "address",
          "name": "operator",
          "type": "address"
        },
        {
          "internalType": "bool",
          "name": "approved",
          "type": "bool"
        }
      ],
      "name": "setApprovalForAll",
      "outputs": [],
      "stateMutability": "nonpayable",
      "type": "function"
    },
    {
      "inputs": [
        {
          "internalType": "uint256",
          "name": "_price",
          "type": "uint256"
        }
      ],
      "name": "setPrice",
      "outputs": [],
      "stateMutability": "nonpayable",
      "type": "function"
    },
    {
      "inputs": [
        {
          "internalType": "bytes4",
          "name": "interfaceId",
          "type": "bytes4"
        }
      ],
      "name": "supportsInterface",
      "outputs": [
        {
          "internalType": "bool",
          "name": "",
          "type": "bool"
        }
      ],
      "stateMutability": "view",
      "type": "function"
    },
    {
      "inputs": [],
      "name": "symbol",
      "outputs": [
        {
          "internalType": "string",
          "name": "",
          "type": "string"
        }
      ],
      "stateMutability": "view",
      "type": "function"
    },
    {
      "inputs": [
        {
          "internalType": "uint256",
          "name": "_tokenId",
          "type": "uint256"
        }
      ],
      "name": "tokenURI",
      "outputs": [
        {
          "internalType": "string",
          "name": "",
          "type": "string"
        }
      ],
      "stateMutability": "view",
      "type": "function"
    },
    {
      "inputs": [
        {
          "internalType": "address",
          "name": "from",
          "type": "address"
        },
        {
          "internalType": "address",
          "name": "to",
          "type": "address"
        },
        {
          "internalType": "uint256",
          "name": "tokenId",
          "type": "uint256"
        }
      ],
      "name": "transferFrom",
      "outputs": [],
      "stateMutability": "nonpayable",
      "type": "function"
    },
    {
      "inputs": [
        {
          "internalType": "address",
          "name": "newOwner",
          "type": "address"
        }
      ],
      "name": "transferOwnership",
      "outputs": [],
      "stateMutability": "nonpayable",
      "type": "function"
    },
    {
      "inputs": [],
      "name": "unpause",
      "outputs": [],
      "stateMutability": "nonpayable",
      "type": "function"
    },
    {
      "inputs": [
        {
          "internalType": "string",
          "name": "_metadataURI",
          "type": "string"
        }
      ],
      "name": "updateMetadata",
      "outputs": [],
      "stateMutability": "nonpayable",
      "type": "function"
    },
    {
      "inputs": [],
      "name": "withdraw",
      "outputs": [],
      "stateMutability": "nonpayable",
      "type": "function"
    }
  ],
  "bytecode": "0x60803462000376576001600160401b03906040908082018381118282101762000360578252600491828252602093634e616d6560e01b85840152815194828601868110838211176200034b578352600686526514de5b589bdb60d21b818701528351908282116200034b576000958654926001968785811c9516801562000340575b848610146200032d578190601f95868111620002da575b50849086831160011462000276578a926200026a575b5050600019600383901b1c191690871b1787555b875193841162000257578554908682811c921680156200024c575b83831014620002395750828111620001f1575b5080918311600114620001885750849582939495926200017c575b5050600019600383901b1c191690831b1782555b60065490519233906001600160a01b038316907f8be0079c531659141344cd1fd0a4f28419497f9722a3daafe3b4186f6b6457e09080a36001600160a81b0319163360ff60a01b1916176006556007556125de90816200037c8239f35b0151905038806200010b565b90601f198316968587528287209287905b898210620001d95750508386979896959610620001bf575b505050811b0182556200011f565b015160001960f88460031b161c19169055388080620001b1565b80888596829496860151815501950193019062000199565b8587528187208380860160051c8201928487106200022f575b0160051c019086905b82811062000223575050620000f0565b88815501869062000213565b925081926200020a565b634e487b7160e01b885260229052602487fd5b91607f1691620000dd565b634e487b7160e01b875260419052602486fd5b015190503880620000ae565b8a8052858b208a94509190601f1984168c5b88828210620002c35750508411620002a9575b505050811b018755620000c2565b015160001960f88460031b161c191690553880806200029b565b8385015186558d9790950194938401930162000288565b909150898052848a208680850160051c82019287861062000323575b918b91869594930160051c01915b8281106200031457505062000098565b8c81558594508b910162000304565b92508192620002f6565b634e487b7160e01b895260228352602489fd5b94607f169462000081565b604186634e487b7160e01b6000525260246000fd5b634e487b7160e01b600052604160045260246000fd5b600080fdfe6080604081815260048036101561001557600080fd5b600092833560e01c90816301ffc9a7146118595750806306fdde03146117af578063081812fc1461178f578063095ea7b31461162257806313ebbf5814610fea57806323b872dd14610fc5578063248a9ca314610f9b5780632d06177a14610f3d5780632f2ff15d14610e9157806336568abe14610dff5780633ccfd60b14610cb85780633f4ba83a14610c1d57806342842e0e14610bc05780635c975abb14610b995780636352211e14610b6857806370a0823114610ad2578063715018a614610a755780638456cb5914610a145780638da5cb5b146109eb578063918b5be11461080857806391b7f5ed146107e657806391d14854146107a057806395d89b41146106bb578063a035b1fe1461069c578063a217fddf14610681578063a22cb465146105b2578063ac18de431461050d578063b88d4fde14610482578063c87b56dd14610315578063d547741f146102d7578063e985e9c514610289578063ec87621c1461025c5763f2fde38b1461018e57600080fd5b34610258576020366003190112610258576101a7611927565b906101b0611e08565b6001600160a01b03918216928315610206575050600654826bffffffffffffffffffffffff60a01b821617600655167f8be0079c531659141344cd1fd0a4f28419497f9722a3daafe3b4186f6b6457e08380a380f35b906020608492519162461bcd60e51b8352820152602660248201527f4f776e61626c653a206e6577206f776e657220697320746865207a65726f206160448201526564647265737360d01b6064820152fd5b8280fd5b505034610285578160031936011261028557602090516000805160206125698339815191528152f35b5080fd5b50503461028557806003193601126102855760ff816020936102a9611927565b6102b1611942565b6001600160a01b0391821683526005875283832091168252855220549151911615158152f35b509034610258578060031936011261025857610312913561030d60016102fb611942565b93838752600860205286200154611c87565b611d92565b80f35b50823461047f57602091826003193601126102855780356000908152600260205260409020546001600160a01b03161561043c57506009546103568161249b565b156104245783519180916103698161249b565b918285526001918683821691826000146103fd5750506001146103af575b5050509061039a816103ab930382611a09565b925b51928284938452830190611902565b0390f35b93925084916009855260008051602061258983398151915294915b8183106103e65750929350830101905061039a826103ab610387565b8554858401850152948501948693909201916103ca565b60ff19168782015293151560051b8601909301935061039a92508491506103ab9050610387565b5082516103ab91610434826119bb565b81529261039c565b835162461bcd60e51b8152908101839052601f60248201527f55524920717565727920666f72206e6f6e6578697374656e7420746f6b656e006044820152606490fd5b80fd5b8382346102855760803660031901126102855761049d611927565b906104a6611942565b916044356064359367ffffffffffffffff85116105095736602386011215610509576104e16105049486602461031298369301359101611a47565b926104f46104ef8433611fe5565b611f10565b6104ff8383836120ad565b6122ea565b611fc5565b8580fd5b50503461028557602036600319011261028557610528611927565b610530611e08565b6000805160206125698339815191529182845260086020528084209160018060a01b03169182855260205260ff818520541661056a578380f35b8284526008602052808420828552602052832060ff19815416905533917ff6391f5c32d9c69d2a47ea670b442974b53935d1edc7fd64eb21e047a839171b8480a43880808380f35b5090346102585780600319360112610258576105cc611927565b906024359182151580930361067d576001600160a01b03169233841461063b5750338452600560205280842083855260205280842060ff1981541660ff8416179055519081527f17307eab39ab6107e8899845ad3d59bd9653f200f220920489ca2b5937696c3160203392a380f35b6020606492519162461bcd60e51b8352820152601960248201527f4552433732313a20617070726f766520746f2063616c6c6572000000000000006044820152fd5b8480fd5b50503461028557816003193601126102855751908152602090f35b505034610285578160031936011261028557602090600d549051908152f35b50503461028557816003193601126102855780519082600b546106dd8161249b565b80855291600191808316908115610778575060011461071b575b505050610709826103ab940383611a09565b51918291602083526020830190611902565b9450600b85527f0175b7a638427703f0dbe7bb9bbf987a2551717b34e79f33b5b1008d1fa01db95b828610610760575050506107098260206103ab95820101946106f7565b80546020878701810191909152909501948101610743565b6103ab97508693506020925061070994915060ff191682840152151560051b820101946106f7565b50346102585781600319360112610258578160209360ff926107c0611942565b90358252600886528282206001600160a01b039091168252855220549151911615158152f35b83823461028557602036600319011261028557610801611a7e565b35600d5580f35b5082903461028557602090816003193601126102585767ffffffffffffffff93813585811161067d573660238201121561067d5761084f9036906024818601359101611a47565b91610858611a7e565b82519586116109d8575061086d60095461249b565b601f8111610988575b5082601f86116001146108f857948085967f6facb794c71877e7713bdcde3c4894d8cc4514f0f33ecb6ebdf457775d6f89d89596916108ed575b508160011b916000199060031b1c1916176009555b6108d9815192606084526060840190611902565b93429083015243908201528033930390a280f35b9050830151876108b0565b6009855260008051602061258983398151915290601f198716865b81811061097157509187917f6facb794c71877e7713bdcde3c4894d8cc4514f0f33ecb6ebdf457775d6f89d896979860019410610958575b5050811b016009556108c5565b85015160001960f88460031b161c19169055878061094b565b919286600181928689015181550194019201610913565b60098552600080516020612589833981519152601f870160051c8101918588106109ce575b601f0160051c01905b8181106109c35750610876565b8581556001016109b6565b90915081906109ad565b634e487b7160e01b855260419052602484fd5b50503461028557816003193601126102855760065490516001600160a01b039091168152602090f35b50503461028557816003193601126102855760207f62e78cea01bee320cd4e420270b5ea74000d11b0c9f74754ebdbfc544b05a25891610a52611e08565b610a5a612521565b6006805460ff60a01b1916600160a01b17905551338152a180f35b833461047f578060031936011261047f57610a8e611e08565b600680546001600160a01b0319811690915581906001600160a01b03167f8be0079c531659141344cd1fd0a4f28419497f9722a3daafe3b4186f6b6457e08280a380f35b50829034610285576020366003190112610285576001600160a01b03610af6611927565b16908115610b135760208480858581526003845220549051908152f35b608490602085519162461bcd60e51b8352820152602960248201527f4552433732313a2061646472657373207a65726f206973206e6f7420612076616044820152683634b21037bbb732b960b91b6064820152fd5b50913461047f57602036600319011261047f5750610b8860209235611eac565b90516001600160a01b039091168152f35b50503461028557816003193601126102855760209060ff60065460a01c1690519015158152f35b5091903461028557610bd136611986565b91835193602085019085821067ffffffffffffffff831117610c0a57916103129593916105049593528684526104f46104ef8433611fe5565b634e487b7160e01b875260418852602487fd5b5034610258578260031936011261025857610c36611e08565b6006549060ff8260a01c1615610c7e575060ff60a01b1916600655513381527f5db9ee0a495bf2e6ff9c91a7834c1ba4fdd244a5e8aa4e537bd38aeae4b073aa90602090a180f35b606490602084519162461bcd60e51b8352820152601460248201527314185d5cd8589b194e881b9bdd081c185d5cd95960621b6044820152fd5b509034610258578260031936011261025857600260075414610dbc576002600755600c54479060081c6001600160a01b0316478211610d79578480809381935af1610d016121cb565b5015610d105782600160075580f35b906020608492519162461bcd60e51b8352820152603a60248201527f416464726573733a20756e61626c6520746f2073656e642076616c75652c207260448201527f6563697069656e74206d617920686176652072657665727465640000000000006064820152fd5b825162461bcd60e51b8152602081860152601d60248201527f416464726573733a20696e73756666696369656e742062616c616e63650000006044820152606490fd5b906020606492519162461bcd60e51b8352820152601f60248201527f5265656e7472616e637947756172643a207265656e7472616e742063616c6c006044820152fd5b50829034610285578260031936011261028557610e1a611942565b90336001600160a01b03831603610e3657906103129135611d92565b608490602085519162461bcd60e51b8352820152602f60248201527f416363657373436f6e74726f6c3a2063616e206f6e6c792072656e6f756e636560448201526e103937b632b9903337b91039b2b63360891b6064820152fd5b50346102585781600319360112610258573590610eac611942565b908284526008602052610ec460018286200154611c87565b828452600860209081528185206001600160a01b039093168086529290528084205460ff1615610ef2578380f35b82845260086020528084208285526020528320600160ff1982541617905533917f2f8788117e7eff1d82e926ec794901d17c78024a50270940304540a733656f0d8480a43880808380f35b50503461028557602036600319011261028557610f58611927565b610f60611a7e565b6000805160206125698339815191529182845260086020528084209160018060a01b03169182855260205260ff818520541615610ef2578380f35b50346102585760203660031901126102585781602093600192358152600885522001549051908152f35b833461047f57610312610fd736611986565b91610fe56104ef8433611fe5565b6120ad565b508290346102855760a036600319011261028557611006611927565b9067ffffffffffffffff60243581811161067d576110279036908401611958565b919060443582811161161e576110409036908601611958565b9160643584811161161a576110589036908801611958565b929091608435966002881015611616579161107c6110849261108c95943691611a47565b953691611a47565b923691611a47565b90825184811161150957806110a2600a5461249b565b94601f958681116115aa575b50602090868311600114611527578b9261151c575b50508160011b916000199060031b1c191617600a555b8051908482116115095781906110f0600b5461249b565b85811161149d575b5060209085831160011461141a578a9261140f575b50508160011b916000199060031b1c191617600b555b80519283116113fc5790829161113a60095461249b565b82811161139f575b50602091831160011461132e578792611323575b50508160011b916000199060031b1c1916176009555b60ff199060ff82600c5416911617600c55838052600860205284842033855260205260ff8585205416156112d9575b508351926111a8846119bb565b8084526001600160a01b0383169182156112965760208661128f6105048888600189896111f46111ee6001600052600260205260018060a01b0360406000205416151590565b156124d5565b6111fc612521565b600160005260026020527fe90b7bceb6e7df5418fb78d8ee546e97c83a08bbccc01a0644d599ccd2a7c2e05461123c906001600160a01b031615156111ee565b818152600389528781208054840190558281526002895287812080546001600160a01b031916831790557fddf252ad1be2c89b69c2b068fc378daa952ba7f163c4a11628f55a4df523b3ef8180a46121fb565b5160018152f35b606490602087519162461bcd60e51b8352820152602060248201527f4552433732313a206d696e7420746f20746865207a65726f20616464726573736044820152fd5b83805260086020528484203385526020526001858520918254161790553333847f2f8788117e7eff1d82e926ec794901d17c78024a50270940304540a733656f0d8180a48461119b565b015190508780611156565b600988526000805160206125898339815191529250601f198416885b818110611387575090846001959493921061136e575b505050811b0160095561116c565b015160001960f88460031b161c19169055878080611360565b9293602060018192878601518155019501930161134a565b90919250600988526000805160206125898339815191528380860160051c820192602087106113f3575b94869594939291940160051c01905b8181106113e55750611142565b8981558594506001016113d8565b925081926113c9565b634e487b7160e01b875260418552602487fd5b015190508a8061110d565b600b8b527f0175b7a638427703f0dbe7bb9bbf987a2551717b34e79f33b5b1008d1fa01db99250601f1984168b5b818110611485575090846001959493921061146c575b505050811b01600b55611123565b015160001960f88460031b161c191690558a808061145e565b92936020600181928786015181550195019301611448565b909150600b8a527f0175b7a638427703f0dbe7bb9bbf987a2551717b34e79f33b5b1008d1fa01db98580850160051c82019260208610611500575b9085949392910160051c01905b8181106114f257506110f8565b8b81558493506001016114e5565b925081926114d8565b634e487b7160e01b895260418752602489fd5b015190508b806110c3565b600a8c527fc65a7bb8d6351c1cf70c95a316cc6a92839c986682d98bc35f958f4883f9d2a89250601f1984168c5b8181106115925750908460019594939210611579575b505050811b01600a556110d9565b015160001960f88460031b161c191690558b808061156b565b92936020600181928786015181550195019301611555565b909150600a8b527fc65a7bb8d6351c1cf70c95a316cc6a92839c986682d98bc35f958f4883f9d2a88680850160051c8201926020861061160d575b9085949392910160051c01905b8181106115ff57506110ae565b8c81558493506001016115f2565b925081926115e5565b8a80fd5b8880fd5b8680fd5b503461025857816003193601126102585761163b611927565b6024359290916001600160a01b039190828061165687611eac565b1694169380851461174257803314908115611723575b50156116bb57848652602052842080546001600160a01b0319168317905561169383611eac565b167f8c5be1e5ebec7d5bd14f71427d1e84f3dd0314c0f7b2291e5b200ac8c7c3b9258480a480f35b6020608492519162461bcd60e51b8352820152603d60248201527f4552433732313a20617070726f76652063616c6c6572206973206e6f7420746f60448201527f6b656e206f776e6572206f7220617070726f76656420666f7220616c6c0000006064820152fd5b90508652600560205281862033875260205260ff82872054163861166c565b506020608492519162461bcd60e51b8352820152602160248201527f4552433732313a20617070726f76616c20746f2063757272656e74206f776e656044820152603960f91b6064820152fd5b50913461047f57602036600319011261047f5750610b8860209235611ed2565b50503461028557816003193601126102855780519082600a546117d18161249b565b8085529160019180831690811561077857506001146117fc57505050610709826103ab940383611a09565b9450600a85527fc65a7bb8d6351c1cf70c95a316cc6a92839c986682d98bc35f958f4883f9d2a85b828610611841575050506107098260206103ab95820101946106f7565b80546020878701810191909152909501948101611824565b92505034610258576020366003190112610258573563ffffffff60e01b81168091036102585760209250637965db0b60e01b811490811561189c575b5015158152f35b6380ac58cd60e01b8114915081156118ce575b81156118bd575b5038611895565b6301ffc9a760e01b149050386118b6565b635b5e139f60e01b811491506118af565b60005b8381106118f25750506000910152565b81810151838201526020016118e2565b9060209161191b815180928185528580860191016118df565b601f01601f1916010190565b600435906001600160a01b038216820361193d57565b600080fd5b602435906001600160a01b038216820361193d57565b9181601f8401121561193d5782359167ffffffffffffffff831161193d576020838186019501011161193d57565b606090600319011261193d576001600160a01b0390600435828116810361193d5791602435908116810361193d579060443590565b6020810190811067ffffffffffffffff8211176119d757604052565b634e487b7160e01b600052604160045260246000fd5b6080810190811067ffffffffffffffff8211176119d757604052565b90601f8019910116810190811067ffffffffffffffff8211176119d757604052565b67ffffffffffffffff81116119d757601f01601f191660200190565b929192611a5382611a2b565b91611a616040519384611a09565b82948184528183011161193d578281602093846000960137010152565b3360009081527fd2cf39daed5d1f19b94ebcb0e90379495248bb9273a9602b62333dc54d995167602090815260408083205490926000805160206125698339815191529160ff1615611ad05750505050565b611ad93361238c565b91845190611ae6826119ed565b60428252848201926060368537825115611c735760308453825190600191821015611c735790607860218501536041915b818311611c0557505050611bc3576048611bbf938693611ba393611b94985198899376020b1b1b2b9b9a1b7b73a3937b61d1030b1b1b7bab73a1604d1b8a860152611b6b815180928c6037890191016118df565b8401917001034b99036b4b9b9b4b733903937b6329607d1b6037840152518093868401906118df565b01036028810187520185611a09565b5192839262461bcd60e51b845260048401526024830190611902565b0390fd5b60648486519062461bcd60e51b825280600483015260248201527f537472696e67733a20686578206c656e67746820696e73756666696369656e746044820152fd5b909192600f81166010811015611c5f576f181899199a1a9b1b9c1cb0b131b232b360811b901a611c358587612365565b5360041c928015611c4b57600019019190611b17565b634e487b7160e01b82526011600452602482fd5b634e487b7160e01b83526032600452602483fd5b634e487b7160e01b81526032600452602490fd5b60009080825260209060088252604092838120338252835260ff848220541615611cb15750505050565b611cba3361238c565b91845190611cc7826119ed565b60428252848201926060368537825115611c735760308453825190600191821015611c735790607860218501536041915b818311611d4c57505050611bc3576048611bbf938693611ba393611b94985198899376020b1b1b2b9b9a1b7b73a3937b61d1030b1b1b7bab73a1604d1b8a860152611b6b815180928c6037890191016118df565b909192600f81166010811015611c5f576f181899199a1a9b1b9c1cb0b131b232b360811b901a611d7c8587612365565b5360041c928015611c4b57600019019190611cf8565b906000918083526008602052604083209160018060a01b03169182845260205260ff604084205416611dc357505050565b8083526008602052604083208284526020526040832060ff1981541690557ff6391f5c32d9c69d2a47ea670b442974b53935d1edc7fd64eb21e047a839171b339380a4565b6006546001600160a01b03163303611e1c57565b606460405162461bcd60e51b815260206004820152602060248201527f4f776e61626c653a2063616c6c6572206973206e6f7420746865206f776e65726044820152fd5b15611e6757565b60405162461bcd60e51b815260206004820152601860248201527f4552433732313a20696e76616c696420746f6b656e20494400000000000000006044820152606490fd5b6000908152600260205260409020546001600160a01b0316611ecf811515611e60565b90565b600081815260026020526040902054611ef5906001600160a01b03161515611e60565b6000908152600460205260409020546001600160a01b031690565b15611f1757565b60405162461bcd60e51b815260206004820152602d60248201527f4552433732313a2063616c6c6572206973206e6f7420746f6b656e206f776e6560448201526c1c881bdc88185c1c1c9bdd9959609a1b6064820152608490fd5b60809060208152603260208201527f4552433732313a207472616e7366657220746f206e6f6e20455243373231526560408201527131b2b4bb32b91034b6b83632b6b2b73a32b960711b60608201520190565b15611fcc57565b60405162461bcd60e51b815280611bbf60048201611f72565b906001600160a01b038080611ff984611eac565b1693169183831493841561202c575b508315612016575b50505090565b61202291929350611ed2565b1614388080612010565b909350600052600560205260406000208260005260205260ff604060002054169238612008565b1561205a57565b60405162461bcd60e51b815260206004820152602560248201527f4552433732313a207472616e736665722066726f6d20696e636f72726563742060448201526437bbb732b960d91b6064820152608490fd5b906120d5916120bb84611eac565b6001600160a01b0393918416928492909183168414612053565b1691821561217a57816120fa916120ea612521565b6120f386611eac565b1614612053565b7fddf252ad1be2c89b69c2b068fc378daa952ba7f163c4a11628f55a4df523b3ef60008481526004602052604081206bffffffffffffffffffffffff60a01b9081815416905583825260036020526040822060001981540190558482526040822060018154019055858252600260205284604083209182541617905580a4565b60405162461bcd60e51b8152602060048201526024808201527f4552433732313a207472616e7366657220746f20746865207a65726f206164646044820152637265737360e01b6064820152608490fd5b3d156121f6573d906121dc82611a2b565b916121ea6040519384611a09565b82523d6000602084013e565b606090565b600090803b156122e25760206040518092818581612242630a85bd0160e11b998a835233600484015283602484015260016044840152608060648401526084830190611902565b03926001600160a01b03165af19082908261229a575b505061228c576122666121cb565b805190816122875760405162461bcd60e51b815280611bbf60048201611f72565b602001fd5b6001600160e01b0319161490565b909192506020813d82116122da575b816122b660209383611a09565b810103126102855751906001600160e01b03198216820361047f5750903880612258565b3d91506122a9565b505050600190565b91926000929190813b1561235b576020916123409185604051958680958194630a85bd0160e11b9b8c845233600485015260018060a01b0380951660248501526044840152608060648401526084830190611902565b0393165af19082908261229a57505061228c576122666121cb565b5050505050600190565b908151811015612376570160200190565b634e487b7160e01b600052603260045260246000fd5b604051906060820182811067ffffffffffffffff8211176119d757604052602a82526020820160403682378251156123765760309053815160019081101561237657607860218401536029905b80821161242d5750506123e95790565b606460405162461bcd60e51b815260206004820152602060248201527f537472696e67733a20686578206c656e67746820696e73756666696369656e746044820152fd5b9091600f81166010811015612486576f181899199a1a9b1b9c1cb0b131b232b360811b901a61245c8486612365565b5360041c9180156124715760001901906123d9565b60246000634e487b7160e01b81526011600452fd5b60246000634e487b7160e01b81526032600452fd5b90600182811c921680156124cb575b60208310146124b557565b634e487b7160e01b600052602260045260246000fd5b91607f16916124aa565b156124dc57565b60405162461bcd60e51b815260206004820152601c60248201527f4552433732313a20746f6b656e20616c7265616479206d696e746564000000006044820152606490fd5b60ff60065460a01c1661253057565b60405162461bcd60e51b815260206004820152601060248201526f14185d5cd8589b194e881c185d5cd95960821b6044820152606490fdfe241ecf16d79d0f8dbfb92cbc07fe17840425976cf0667f022fe9877caa831b086e1540171b6c0c960b71a7020d9f60077f6af931a8bbf590da0223dacf75c7afa2646970667358221220e4baec25a0f2d3c214f0025512b99125acb194c8364728fd424e9f72136fcb7d64736f6c63430008110033",
  "linkReferences": {},
  "deployedLinkReferences": {}
}