{
  "_format": "hh-sol-artifact-1",
  "contractName": "ERC721Template",
  "sourceName": "contracts/templates/ERC721Template.sol",
  "abi": [
    {
      "anonymous": false,
      "inputs": [
        {
          "indexed": true,
          "internalType": "address",
          "name": "owner",
          "type": "address"
        },
        {
          "indexed": true,
          "internalType": "address",
          "name": "approved",
          "type": "address"
        },
        {
          "indexed": true,
          "internalType": "uint256",
          "name": "tokenId",
          "type": "uint256"
        }
      ],
      "name": "Approval",
      "type": "event"
    },
    {
      "anonymous": false,
      "inputs": [
        {
          "indexed": true,
          "internalType": "address",
          "name": "owner",
          "type": "address"
        },
        {
          "indexed": true,
          "internalType": "address",
          "name": "operator",
          "type": "address"
        },
        {
          "indexed": false,
          "internalType": "bool",
          "name": "approved",
          "type": "bool"
        }
      ],
      "name": "ApprovalForAll",
      "type": "event"
    },
    {
      "anonymous": false,
      "inputs": [
        {
          "indexed": true,
          "internalType": "address",
          "name": "updatedBy",
          "type": "address"
        },
        {
          "indexed": false,
          "internalType": "string",
          "name": "metadataURI",
          "type": "string"
        },
        {
          "indexed": false,
          "internalType": "uint256",
          "name": "timestamp",
          "type": "uint256"
        },
        {
          "indexed": false,
          "internalType": "uint256",
          "name": "blockNumber",
          "type": "uint256"
        }
      ],
      "name": "MetadataUpdated",
      "type": "event"
    },
    {
      "anonymous": false,
      "inputs": [
        {
          "indexed": true,
          "internalType": "address",
          "name": "previousOwner",
          "type": "address"
        },
        {
          "indexed": true,
          "internalType": "address",
          "name": "newOwner",
          "type": "address"
        }
      ],
      "name": "OwnershipTransferred",
      "type": "event"
    },
    {
      "anonymous": false,
      "inputs": [
        {
          "indexed": false,
          "internalType": "address",
          "name": "account",
          "type": "address"
        }
      ],
      "name": "Paused",
      "type": "event"
    },
    {
      "anonymous": false,
      "inputs": [
        {
          "indexed": true,
          "internalType": "bytes32",
          "name": "role",
          "type": "bytes32"
        },
        {
          "indexed": true,
          "internalType": "bytes32",
          "name": "previousAdminRole",
          "type": "bytes32"
        },
        {
          "indexed": true,
          "internalType": "bytes32",
          "name": "newAdminRole",
          "type": "bytes32"
        }
      ],
      "name": "RoleAdminChanged",
      "type": "event"
    },
    {
      "anonymous": false,
      "inputs": [
        {
          "indexed": true,
          "internalType": "bytes32",
          "name": "role",
          "type": "bytes32"
        },
        {
          "indexed": true,
          "internalType": "address",
          "name": "account",
          "type": "address"
        },
        {
          "indexed": true,
          "internalType": "address",
          "name": "sender",
          "type": "address"
        }
      ],
      "name": "RoleGranted",
      "type": "event"
    },
    {
      "anonymous": false,
      "inputs": [
        {
          "indexed": true,
          "internalType": "bytes32",
          "name": "role",
          "type": "bytes32"
        },
        {
          "indexed": true,
          "internalType": "address",
          "name": "account",
          "type": "address"
        },
        {
          "indexed": true,
          "internalType": "address",
          "name": "sender",
          "type": "address"
        }
      ],
      "name": "RoleRevoked",
      "type": "event"
    },
    {
      "anonymous": false,
      "inputs": [
        {
          "indexed": true,
          "internalType": "address",
          "name": "from",
          "type": "address"
        },
        {
          "indexed": true,
          "internalType": "address",
          "name": "to",
          "type": "address"
        },
        {
          "indexed": true,
          "internalType": "uint256",
          "name": "tokenId",
          "type": "uint256"
        }
      ],
      "name": "Transfer",
      "type": "event"
    },
    {
      "anonymous": false,
      "inputs": [
        {
          "indexed": false,
          "internalType": "address",
          "name": "account",
          "type": "address"
        }
      ],
      "name": "Unpaused",
      "type": "event"
    },
    {
      "inputs": [],
      "name": "DEFAULT_ADMIN_ROLE",
      "outputs": [
        {
          "internalType": "bytes32",
          "name": "",
          "type": "bytes32"
        }
      ],
      "stateMutability": "view",
      "type": "function"
    },
    {
      "inputs": [],
      "name": "MANAGER_ROLE",
      "outputs": [
        {
          "internalType": "bytes32",
          "name": "",
          "type": "bytes32"
        }
      ],
      "stateMutability": "view",
      "type": "function"
    },
    {
      "inputs": [
        {
          "internalType": "address",
          "name": "_manager",
          "type": "address"
        }
      ],
      "name": "addManager",
      "outputs": [],
      "stateMutability": "nonpayable",
      "type": "function"
    },
    {
      "inputs": [
        {
          "internalType": "address",
          "name": "to",
          "type": "address"
        },
        {
          "internalType": "uint256",
          "name": "tokenId",
          "type": "uint256"
        }
      ],
      "name": "approve",
      "outputs": [],
      "stateMutability": "nonpayable",
      "type": "function"
    },
    {
      "inputs": [
        {
          "internalType": "address",
          "name": "owner",
          "type": "address"
        }
      ],
      "name": "balanceOf",
      "outputs": [
        {
          "internalType": "uint256",
          "name": "",
          "type": "uint256"
        }
      ],
      "stateMutability": "view",
      "type": "function"
    },
    {
      "inputs": [
        {
          "internalType": "uint256",
          "name": "tokenId",
          "type": "uint256"
        }
      ],
      "name": "getApproved",
      "outputs": [
        {
          "internalType": "address",
          "name": "",
          "type": "address"
        }
      ],
      "stateMutability": "view",
      "type": "function"
    },
    {
      "inputs": [
        {
          "internalType": "bytes32",
          "name": "role",
          "type": "bytes32"
        }
      ],
      "name": "getRoleAdmin",
      "outputs": [
        {
          "internalType": "bytes32",
          "name": "",
          "type": "bytes32"
        }
      ],
      "stateMutability": "view",
      "type": "function"
    },
    {
      "inputs": [
        {
          "internalType": "bytes32",
          "name": "role",
          "type": "bytes32"
        },
        {
          "internalType": "address",
          "name": "account",
          "type": "address"
        }
      ],
      "name": "grantRole",
      "outputs": [],
      "stateMutability": "nonpayable",
      "type": "function"
    },
    {
      "inputs": [
        {
          "internalType": "bytes32",
          "name": "role",
          "type": "bytes32"
        },
        {
          "internalType": "address",
          "name": "account",
          "type": "address"
        }
      ],
      "name": "hasRole",
      "outputs": [
        {
          "internalType": "bool",
          "name": "",
          "type": "bool"
        }
      ],
      "stateMutability": "view",
      "type": "function"
    },
    {
      "inputs": [
        {
          "internalType": "address",
          "name": "_owner",
          "type": "address"
        },
        {
          "internalType": "string",
          "name": "_name",
          "type": "string"
        },
        {
          "internalType": "string",
          "name": "_symbol",
          "type": "string"
        },
        {
          "internalType": "string",
          "name": "_metadataURI",
          "type": "string"
        },
        {
          "internalType": "enum ERC721Template.Kind",
          "name": "_kind",
          "type": "uint8"
        }
      ],
      "name": "initialize",
      "outputs": [
        {
          "internalType": "bool",
          "name": "",
          "type": "bool"
        }
      ],
      "stateMutability": "nonpayable",
      "type": "function"
    },
    {
      "inputs": [
        {
          "internalType": "address",
          "name": "owner",
          "type": "address"
        },
        {
          "internalType": "address",
          "name": "operator",
          "type": "address"
        }
      ],
      "name": "isApprovedForAll",
      "outputs": [
        {
          "internalType": "bool",
          "name": "",
          "type": "bool"
        }
      ],
      "stateMutability": "view",
      "type": "function"
    },
    {
      "inputs": [],
      "name": "name",
      "outputs": [
        {
          "internalType": "string",
          "name": "",
          "type": "string"
        }
      ],
      "stateMutability": "view",
      "type": "function"
    },
    {
      "inputs": [],
      "name": "owner",
      "outputs": [
        {
          "internalType": "address",
          "name": "",
          "type": "address"
        }
      ],
      "stateMutability": "view",
      "type": "function"
    },
    {
      "inputs": [
        {
          "internalType": "uint256",
          "name": "tokenId",
          "type": "uint256"
        }
      ],
      "name": "ownerOf",
      "outputs": [
        {
          "internalType": "address",
          "name": "",
          "type": "address"
        }
      ],
      "stateMutability": "view",
      "type": "function"
    },
    {
      "inputs": [],
      "name": "pause",
      "outputs": [],
      "stateMutability": "nonpayable",
      "type": "function"
    },
    {
      "inputs": [],
      "name": "paused",
      "outputs": [
        {
          "internalType": "bool",
          "name": "",
          "type": "bool"
        }
      ],
      "stateMutability": "view",
      "type": "function"
    },
    {
      "inputs": [],
      "name": "price",
      "outputs": [
        {
          "internalType": "uint256",
          "name": "",
          "type": "uint256"
        }
      ],
      "stateMutability": "view",
      "type": "function"
    },
    {
      "inputs": [
        {
          "internalType": "address",
          "name": "_manager",
          "type": "address"
        }
      ],
      "name": "removeManager",
      "outputs": [],
      "stateMutability": "nonpayable",
      "type": "function"
    },
    {
      "inputs": [],
      "name": "renounceOwnership",
      "outputs": [],
      "stateMutability": "nonpayable",
      "type": "function"
    },
    {
      "inputs": [
        {
          "internalType": "bytes32",
          "name": "role",
          "type": "bytes32"
        },
        {
          "internalType": "address",
          "name": "account",
          "type": "address"
        }
      ],
      "name": "renounceRole",
      "outputs": [],
      "stateMutability": "nonpayable",
      "type": "function"
    },
    {
      "inputs": [
        {
          "internalType": "bytes32",
          "name": "role",
          "type": "bytes32"
        },
        {
          "internalType": "address",
          "name": "account",
          "type": "address"
        }
      ],
      "name": "revokeRole",
      "outputs": [],
      "stateMutability": "nonpayable",
      "type": "function"
    },
    {
      "inputs": [
        {
          "internalType": "address",
          "name": "from",
          "type": "address"
        },
        {
          "internalType": "address",
          "name": "to",
          "type": "address"
        },
        {
          "internalType": "uint256",
          "name": "tokenId",
          "type": "uint256"
        }
      ],
      "name": "safeTransferFrom",
      "outputs": [],
      "stateMutability": "nonpayable",
      "type": "function"
    },
    {
      "inputs": [
        {
          "internalType": "address",
          "name": "from",
          "type": "address"
        },
        {
          "internalType": "address",
          "name": "to",
          "type": "address"
        },
        {
          "internalType": "uint256",
          "name": "tokenId",
          "type": "uint256"
        },
        {
          "internalType": "bytes",
          "name": "data",
          "type": "bytes"
        }
      ],
      "name": "safeTransferFrom",
      "outputs": [],
      "stateMutability": "nonpayable",
      "type": "function"
    },
    {
      "inputs": [
        {
          "internalType": "address",
          "name": "operator",
          "type": "address"
        },
        {
          "internalType": "bool",
          "name": "approved",
          "type": "bool"
        }
      ],
      "name": "setApprovalForAll",
      "outputs": [],
      "stateMutability": "nonpayable",
      "type": "function"
    },
    {
      "inputs": [
        {
          "internalType": "uint256",
          "name": "_price",
          "type": "uint256"
        }
      ],
      "name": "setPrice",
      "outputs": [],
      "stateMutability": "nonpayable",
      "type": "function"
    },
    {
      "inputs": [
        {
          "internalType": "bytes4",
          "name": "interfaceId",
          "type": "bytes4"
        }
      ],
      "name": "supportsInterface",
      "outputs": [
        {
          "internalType": "bool",
          "name": "",
          "type": "bool"
        }
      ],
      "stateMutability": "view",
      "type": "function"
    },
    {
      "inputs": [],
      "name": "symbol",
      "outputs": [
        {
          "internalType": "string",
          "name": "",
          "type": "string"
        }
      ],
      "stateMutability": "view",
      "type": "function"
    },
    {
      "inputs": [
        {
          "internalType": "uint256",
          "name": "_tokenId",
          "type": "uint256"
        }
      ],
      "name": "tokenURI",
      "outputs": [
        {
          "internalType": "string",
          "name": "",
          "type": "string"
        }
      ],
      "stateMutability": "view",
      "type": "function"
    },
    {
      "inputs": [
        {
          "internalType": "address",
          "name": "from",
          "type": "address"
        },
        {
          "internalType": "address",
          "name": "to",
          "type": "address"
        },
        {
          "internalType": "uint256",
          "name": "tokenId",
          "type": "uint256"
        }
      ],
      "name": "transferFrom",
      "outputs": [],
      "stateMutability": "nonpayable",
      "type": "function"
    },
    {
      "inputs": [
        {
          "internalType": "address",
          "name": "newOwner",
          "type": "address"
        }
      ],
      "name": "transferOwnership",
      "outputs": [],
      "stateMutability": "nonpayable",
      "type": "function"
    },
    {
      "inputs": [],
      "name": "unpause",
      "outputs": [],
      "stateMutability": "nonpayable",
      "type": "function"
    },
    {
      "inputs": [
        {
          "internalType": "string",
          "name": "_metadataURI",
          "type": "string"
        }
      ],
      "name": "updateMetadata",
      "outputs": [],
      "stateMutability": "nonpayable",
      "type": "function"
    },
    {
      "inputs": [],
      "name": "withdraw",
      "outputs": [],
      "stateMutability": "nonpayable",
      "type": "function"
    }
  ],
  "bytecode": "0x60806040523480156200001157600080fd5b50604051806040016040528060048152602001634e616d6560e01b8152506040518060400160405280600681526020016514de5b589bdb60d21b81525081600090816200005f91906200019e565b5060016200006e82826200019e565b5050506200008b62000085620000a360201b60201c565b620000a7565b6006805460ff60a01b1916905560016007556200026a565b3390565b600680546001600160a01b038381166001600160a01b0319831681179093556040519116919082907f8be0079c531659141344cd1fd0a4f28419497f9722a3daafe3b4186f6b6457e090600090a35050565b634e487b7160e01b600052604160045260246000fd5b600181811c908216806200012457607f821691505b6020821081036200014557634e487b7160e01b600052602260045260246000fd5b50919050565b601f8211156200019957600081815260208120601f850160051c81016020861015620001745750805b601f850160051c820191505b81811015620001955782815560010162000180565b5050505b505050565b81516001600160401b03811115620001ba57620001ba620000f9565b620001d281620001cb84546200010f565b846200014b565b602080601f8311600181146200020a5760008415620001f15750858301515b600019600386901b1c1916600185901b17855562000195565b600085815260208120601f198616915b828110156200023b578886015182559484019460019091019084016200021a565b50858210156200025a5787850151600019600388901b60f8161c191681555b5050505050600190811b01905550565b61234d806200027a6000396000f3fe608060405234801561001057600080fd5b50600436106101fb5760003560e01c8063715018a61161011a578063a217fddf116100ad578063c87b56dd1161007c578063c87b56dd14610414578063d547741f14610427578063e985e9c51461043a578063ec87621c14610476578063f2fde38b1461048b57600080fd5b8063a217fddf146103d3578063a22cb465146103db578063ac18de43146103ee578063b88d4fde1461040157600080fd5b806391b7f5ed116100e957806391b7f5ed1461039c57806391d14854146103af57806395d89b41146103c2578063a035b1fe146103ca57600080fd5b8063715018a6146103685780638456cb59146103705780638da5cb5b14610378578063918b5be11461038957600080fd5b80632f2ff15d1161019257806342842e0e1161016157806342842e0e1461031d5780635c975abb146103305780636352211e1461034257806370a082311461035557600080fd5b80632f2ff15d146102e757806336568abe146102fa5780633ccfd60b1461030d5780633f4ba83a1461031557600080fd5b806313ebbf58116101ce57806313ebbf581461027d57806323b872dd14610290578063248a9ca3146102a35780632d06177a146102d457600080fd5b806301ffc9a71461020057806306fdde0314610228578063081812fc1461023d578063095ea7b314610268575b600080fd5b61021361020e366004611b1d565b61049e565b60405190151581526020015b60405180910390f35b6102306104af565b60405161021f9190611b8a565b61025061024b366004611b9d565b610541565b6040516001600160a01b03909116815260200161021f565b61027b610276366004611bd2565b610568565b005b61021361028b366004611c45565b610682565b61027b61029e366004611d07565b61073b565b6102c66102b1366004611b9d565b60009081526008602052604090206001015490565b60405190815260200161021f565b61027b6102e2366004611d43565b61076c565b61027b6102f5366004611d5e565b6107a0565b61027b610308366004611d5e565b6107c5565b61027b61083f565b61027b61086e565b61027b61032b366004611d07565b61087e565b600654600160a01b900460ff16610213565b610250610350366004611b9d565b610899565b6102c6610363366004611d43565b6108f9565b61027b61097f565b61027b610991565b6006546001600160a01b0316610250565b61027b610397366004611e16565b6109a1565b61027b6103aa366004611b9d565b610a0f565b6102136103bd366004611d5e565b610a2d565b610230610a58565b6102c6600d5481565b6102c6600081565b61027b6103e9366004611e5f565b610a67565b61027b6103fc366004611d43565b610a72565b61027b61040f366004611e9b565b610a95565b610230610422366004611b9d565b610acd565b61027b610435366004611d5e565b610bf0565b610213610448366004611f17565b6001600160a01b03918216600090815260056020908152604080832093909416825291909152205460ff1690565b6102c66000805160206122f883398151915281565b61027b610499366004611d43565b610c15565b60006104a982610c8b565b92915050565b6060600a80546104be90611f41565b80601f01602080910402602001604051908101604052809291908181526020018280546104ea90611f41565b80156105375780601f1061050c57610100808354040283529160200191610537565b820191906000526020600020905b81548152906001019060200180831161051a57829003601f168201915b5050505050905090565b600061054c82610cb0565b506000908152600460205260409020546001600160a01b031690565b600061057382610899565b9050806001600160a01b0316836001600160a01b0316036105e55760405162461bcd60e51b815260206004820152602160248201527f4552433732313a20617070726f76616c20746f2063757272656e74206f776e656044820152603960f91b60648201526084015b60405180910390fd5b336001600160a01b038216148061060157506106018133610448565b6106735760405162461bcd60e51b815260206004820152603d60248201527f4552433732313a20617070726f76652063616c6c6572206973206e6f7420746f60448201527f6b656e206f776e6572206f7220617070726f76656420666f7220616c6c00000060648201526084016105dc565b61067d8383610d0f565b505050565b600061072e8989898080601f01602080910402602001604051908101604052809392919081815260200183838082843760009201919091525050604080516020601f8d018190048102820181019092528b815292508b91508a908190840183828082843760009201919091525050604080516020601f8c018190048102820181019092528a815292508a9150899081908401838280828437600092019190915250899250610d7d915050565b9998505050505050505050565b6107453382610deb565b6107615760405162461bcd60e51b81526004016105dc90611f7b565b61067d838383610e6a565b6000805160206122f883398151915261078481610fdb565b61079c6000805160206122f883398151915283610fe5565b5050565b6000828152600860205260409020600101546107bb81610fdb565b61067d8383610fe5565b6001600160a01b03811633146108355760405162461bcd60e51b815260206004820152602f60248201527f416363657373436f6e74726f6c3a2063616e206f6e6c792072656e6f756e636560448201526e103937b632b9903337b91039b2b63360891b60648201526084016105dc565b61079c828261106b565b6108476110d2565b600c546108629061010090046001600160a01b03164761112b565b61086c6001600755565b565b610876611244565b61086c61129e565b61067d83838360405180602001604052806000815250610a95565b6000818152600260205260408120546001600160a01b0316806104a95760405162461bcd60e51b8152602060048201526018602482015277115490cdcc8c4e881a5b9d985b1a59081d1bdad95b88125160421b60448201526064016105dc565b60006001600160a01b0382166109635760405162461bcd60e51b815260206004820152602960248201527f4552433732313a2061646472657373207a65726f206973206e6f7420612076616044820152683634b21037bbb732b960b91b60648201526084016105dc565b506001600160a01b031660009081526003602052604090205490565b610987611244565b61086c60006112f3565b610999611244565b61086c611345565b6000805160206122f88339815191526109b981610fdb565b60096109c58382612016565b50336001600160a01b03167f6facb794c71877e7713bdcde3c4894d8cc4514f0f33ecb6ebdf457775d6f89d8834243604051610a03939291906120d6565b60405180910390a25050565b6000805160206122f8833981519152610a2781610fdb565b50600d55565b60009182526008602090815260408084206001600160a01b0393909316845291905290205460ff1690565b6060600b80546104be90611f41565b61079c338383611388565b610a7a611244565b610a926000805160206122f88339815191528261106b565b50565b610a9f3383610deb565b610abb5760405162461bcd60e51b81526004016105dc90611f7b565b610ac784848484611456565b50505050565b6000818152600260205260409020546060906001600160a01b0316610b345760405162461bcd60e51b815260206004820152601f60248201527f55524920717565727920666f72206e6f6e6578697374656e7420746f6b656e0060448201526064016105dc565b600060098054610b4390611f41565b905011610b5f57604051806020016040528060008152506104a9565b60098054610b6c90611f41565b80601f0160208091040260200160405190810160405280929190818152602001828054610b9890611f41565b8015610be55780601f10610bba57610100808354040283529160200191610be5565b820191906000526020600020905b815481529060010190602001808311610bc857829003601f168201915b505050505092915050565b600082815260086020526040902060010154610c0b81610fdb565b61067d838361106b565b610c1d611244565b6001600160a01b038116610c825760405162461bcd60e51b815260206004820152602660248201527f4f776e61626c653a206e6577206f776e657220697320746865207a65726f206160448201526564647265737360d01b60648201526084016105dc565b610a92816112f3565b60006001600160e01b03198216637965db0b60e01b14806104a957506104a982611489565b6000818152600260205260409020546001600160a01b0316610a925760405162461bcd60e51b8152602060048201526018602482015277115490cdcc8c4e881a5b9d985b1a59081d1bdad95b88125160421b60448201526064016105dc565b600081815260046020526040902080546001600160a01b0319166001600160a01b0384169081179091558190610d4482610899565b6001600160a01b03167f8c5be1e5ebec7d5bd14f71427d1e84f3dd0314c0f7b2291e5b200ac8c7c3b92560405160405180910390a45050565b6000600a610d8b8682612016565b50600b610d988582612016565b506009610da58482612016565b50600c805483919060ff191660018381811115610dc457610dc46120fb565b0217905550610dd4600033610fe5565b610ddf8660016114d9565b50600195945050505050565b600080610df783610899565b9050806001600160a01b0316846001600160a01b03161480610e3e57506001600160a01b0380821660009081526005602090815260408083209388168352929052205460ff165b80610e625750836001600160a01b0316610e5784610541565b6001600160a01b0316145b949350505050565b826001600160a01b0316610e7d82610899565b6001600160a01b031614610ea35760405162461bcd60e51b81526004016105dc90612111565b6001600160a01b038216610f055760405162461bcd60e51b8152602060048201526024808201527f4552433732313a207472616e7366657220746f20746865207a65726f206164646044820152637265737360e01b60648201526084016105dc565b610f1283838360016114f3565b826001600160a01b0316610f2582610899565b6001600160a01b031614610f4b5760405162461bcd60e51b81526004016105dc90612111565b600081815260046020908152604080832080546001600160a01b03199081169091556001600160a01b0387811680865260038552838620805460001901905590871680865283862080546001019055868652600290945282852080549092168417909155905184937fddf252ad1be2c89b69c2b068fc378daa952ba7f163c4a11628f55a4df523b3ef91a4505050565b610a928133611507565b610fef8282610a2d565b61079c5760008281526008602090815260408083206001600160a01b03851684529091529020805460ff191660011790556110273390565b6001600160a01b0316816001600160a01b0316837f2f8788117e7eff1d82e926ec794901d17c78024a50270940304540a733656f0d60405160405180910390a45050565b6110758282610a2d565b1561079c5760008281526008602090815260408083206001600160a01b0385168085529252808320805460ff1916905551339285917ff6391f5c32d9c69d2a47ea670b442974b53935d1edc7fd64eb21e047a839171b9190a45050565b6002600754036111245760405162461bcd60e51b815260206004820152601f60248201527f5265656e7472616e637947756172643a207265656e7472616e742063616c6c0060448201526064016105dc565b6002600755565b8047101561117b5760405162461bcd60e51b815260206004820152601d60248201527f416464726573733a20696e73756666696369656e742062616c616e636500000060448201526064016105dc565b6000826001600160a01b03168260405160006040518083038185875af1925050503d80600081146111c8576040519150601f19603f3d011682016040523d82523d6000602084013e6111cd565b606091505b505090508061067d5760405162461bcd60e51b815260206004820152603a60248201527f416464726573733a20756e61626c6520746f2073656e642076616c75652c207260448201527f6563697069656e74206d6179206861766520726576657274656400000000000060648201526084016105dc565b6006546001600160a01b0316331461086c5760405162461bcd60e51b815260206004820181905260248201527f4f776e61626c653a2063616c6c6572206973206e6f7420746865206f776e657260448201526064016105dc565b6112a6611560565b6006805460ff60a01b191690557f5db9ee0a495bf2e6ff9c91a7834c1ba4fdd244a5e8aa4e537bd38aeae4b073aa335b6040516001600160a01b03909116815260200160405180910390a1565b600680546001600160a01b038381166001600160a01b0319831681179093556040519116919082907f8be0079c531659141344cd1fd0a4f28419497f9722a3daafe3b4186f6b6457e090600090a35050565b61134d6115b0565b6006805460ff60a01b1916600160a01b1790557f62e78cea01bee320cd4e420270b5ea74000d11b0c9f74754ebdbfc544b05a2586112d63390565b816001600160a01b0316836001600160a01b0316036113e95760405162461bcd60e51b815260206004820152601960248201527f4552433732313a20617070726f766520746f2063616c6c65720000000000000060448201526064016105dc565b6001600160a01b03838116600081815260056020908152604080832094871680845294825291829020805460ff191686151590811790915591519182527f17307eab39ab6107e8899845ad3d59bd9653f200f220920489ca2b5937696c31910160405180910390a3505050565b611461848484610e6a565b61146d848484846115fd565b610ac75760405162461bcd60e51b81526004016105dc90612156565b60006001600160e01b031982166380ac58cd60e01b14806114ba57506001600160e01b03198216635b5e139f60e01b145b806104a957506301ffc9a760e01b6001600160e01b03198316146104a9565b61079c8282604051806020016040528060008152506116fe565b6114fb6115b0565b610ac784848484611731565b6115118282610a2d565b61079c5761151e816117b9565b6115298360206117cb565b60405160200161153a9291906121a8565b60408051601f198184030181529082905262461bcd60e51b82526105dc91600401611b8a565b600654600160a01b900460ff1661086c5760405162461bcd60e51b815260206004820152601460248201527314185d5cd8589b194e881b9bdd081c185d5cd95960621b60448201526064016105dc565b600654600160a01b900460ff161561086c5760405162461bcd60e51b815260206004820152601060248201526f14185d5cd8589b194e881c185d5cd95960821b60448201526064016105dc565b60006001600160a01b0384163b156116f357604051630a85bd0160e11b81526001600160a01b0385169063150b7a029061164190339089908890889060040161221d565b6020604051808303816000875af192505050801561167c575060408051601f3d908101601f191682019092526116799181019061225a565b60015b6116d9573d8080156116aa576040519150601f19603f3d011682016040523d82523d6000602084013e6116af565b606091505b5080516000036116d15760405162461bcd60e51b81526004016105dc90612156565b805181602001fd5b6001600160e01b031916630a85bd0160e11b149050610e62565b506001949350505050565b611708838361196e565b61171560008484846115fd565b61067d5760405162461bcd60e51b81526004016105dc90612156565b6001811115610ac7576001600160a01b03841615611777576001600160a01b0384166000908152600360205260408120805483929061177190849061228d565b90915550505b6001600160a01b03831615610ac7576001600160a01b038316600090815260036020526040812080548392906117ae9084906122a0565b909155505050505050565b60606104a96001600160a01b03831660145b606060006117da8360026122b3565b6117e59060026122a0565b67ffffffffffffffff8111156117fd576117fd611d8a565b6040519080825280601f01601f191660200182016040528015611827576020820181803683370190505b509050600360fc1b81600081518110611842576118426122ca565b60200101906001600160f81b031916908160001a905350600f60fb1b81600181518110611871576118716122ca565b60200101906001600160f81b031916908160001a90535060006118958460026122b3565b6118a09060016122a0565b90505b6001811115611918576f181899199a1a9b1b9c1cb0b131b232b360811b85600f16601081106118d4576118d46122ca565b1a60f81b8282815181106118ea576118ea6122ca565b60200101906001600160f81b031916908160001a90535060049490941c93611911816122e0565b90506118a3565b5083156119675760405162461bcd60e51b815260206004820181905260248201527f537472696e67733a20686578206c656e67746820696e73756666696369656e7460448201526064016105dc565b9392505050565b6001600160a01b0382166119c45760405162461bcd60e51b815260206004820181905260248201527f4552433732313a206d696e7420746f20746865207a65726f206164647265737360448201526064016105dc565b6000818152600260205260409020546001600160a01b031615611a295760405162461bcd60e51b815260206004820152601c60248201527f4552433732313a20746f6b656e20616c7265616479206d696e7465640000000060448201526064016105dc565b611a376000838360016114f3565b6000818152600260205260409020546001600160a01b031615611a9c5760405162461bcd60e51b815260206004820152601c60248201527f4552433732313a20746f6b656e20616c7265616479206d696e7465640000000060448201526064016105dc565b6001600160a01b038216600081815260036020908152604080832080546001019055848352600290915280822080546001600160a01b0319168417905551839291907fddf252ad1be2c89b69c2b068fc378daa952ba7f163c4a11628f55a4df523b3ef908290a45050565b6001600160e01b031981168114610a9257600080fd5b600060208284031215611b2f57600080fd5b813561196781611b07565b60005b83811015611b55578181015183820152602001611b3d565b50506000910152565b60008151808452611b76816020860160208601611b3a565b601f01601f19169290920160200192915050565b6020815260006119676020830184611b5e565b600060208284031215611baf57600080fd5b5035919050565b80356001600160a01b0381168114611bcd57600080fd5b919050565b60008060408385031215611be557600080fd5b611bee83611bb6565b946020939093013593505050565b60008083601f840112611c0e57600080fd5b50813567ffffffffffffffff811115611c2657600080fd5b602083019150836020828501011115611c3e57600080fd5b9250929050565b60008060008060008060008060a0898b031215611c6157600080fd5b611c6a89611bb6565b9750602089013567ffffffffffffffff80821115611c8757600080fd5b611c938c838d01611bfc565b909950975060408b0135915080821115611cac57600080fd5b611cb88c838d01611bfc565b909750955060608b0135915080821115611cd157600080fd5b50611cde8b828c01611bfc565b909450925050608089013560028110611cf657600080fd5b809150509295985092959890939650565b600080600060608486031215611d1c57600080fd5b611d2584611bb6565b9250611d3360208501611bb6565b9150604084013590509250925092565b600060208284031215611d5557600080fd5b61196782611bb6565b60008060408385031215611d7157600080fd5b82359150611d8160208401611bb6565b90509250929050565b634e487b7160e01b600052604160045260246000fd5b600067ffffffffffffffff80841115611dbb57611dbb611d8a565b604051601f8501601f19908116603f01168101908282118183101715611de357611de3611d8a565b81604052809350858152868686011115611dfc57600080fd5b858560208301376000602087830101525050509392505050565b600060208284031215611e2857600080fd5b813567ffffffffffffffff811115611e3f57600080fd5b8201601f81018413611e5057600080fd5b610e6284823560208401611da0565b60008060408385031215611e7257600080fd5b611e7b83611bb6565b915060208301358015158114611e9057600080fd5b809150509250929050565b60008060008060808587031215611eb157600080fd5b611eba85611bb6565b9350611ec860208601611bb6565b925060408501359150606085013567ffffffffffffffff811115611eeb57600080fd5b8501601f81018713611efc57600080fd5b611f0b87823560208401611da0565b91505092959194509250565b60008060408385031215611f2a57600080fd5b611f3383611bb6565b9150611d8160208401611bb6565b600181811c90821680611f5557607f821691505b602082108103611f7557634e487b7160e01b600052602260045260246000fd5b50919050565b6020808252602d908201527f4552433732313a2063616c6c6572206973206e6f7420746f6b656e206f776e6560408201526c1c881bdc88185c1c1c9bdd9959609a1b606082015260800190565b601f82111561067d57600081815260208120601f850160051c81016020861015611fef5750805b601f850160051c820191505b8181101561200e57828155600101611ffb565b505050505050565b815167ffffffffffffffff81111561203057612030611d8a565b6120448161203e8454611f41565b84611fc8565b602080601f83116001811461207957600084156120615750858301515b600019600386901b1c1916600185901b17855561200e565b600085815260208120601f198616915b828110156120a857888601518255948401946001909101908401612089565b50858210156120c65787850151600019600388901b60f8161c191681555b5050505050600190811b01905550565b6060815260006120e96060830186611b5e565b60208301949094525060400152919050565b634e487b7160e01b600052602160045260246000fd5b60208082526025908201527f4552433732313a207472616e736665722066726f6d20696e636f72726563742060408201526437bbb732b960d91b606082015260800190565b60208082526032908201527f4552433732313a207472616e7366657220746f206e6f6e20455243373231526560408201527131b2b4bb32b91034b6b83632b6b2b73a32b960711b606082015260800190565b7f416363657373436f6e74726f6c3a206163636f756e74200000000000000000008152600083516121e0816017850160208801611b3a565b7001034b99036b4b9b9b4b733903937b6329607d1b6017918401918201528351612211816028840160208801611b3a565b01602801949350505050565b6001600160a01b038581168252841660208201526040810183905260806060820181905260009061225090830184611b5e565b9695505050505050565b60006020828403121561226c57600080fd5b815161196781611b07565b634e487b7160e01b600052601160045260246000fd5b818103818111156104a9576104a9612277565b808201808211156104a9576104a9612277565b80820281158282048414176104a9576104a9612277565b634e487b7160e01b600052603260045260246000fd5b6000816122ef576122ef612277565b50600019019056fe241ecf16d79d0f8dbfb92cbc07fe17840425976cf0667f022fe9877caa831b08a26469706673582212202e8948d48c05b44fd6a65d4055a7ee30c9d49e92cb9a2e7eaa9f8b839f79489d64736f6c63430008110033",
  "linkReferences": {},
  "deployedLinkReferences": {}
}