{
  "_format": "hh-sol-artifact-1",
  "contractName": "ERC721Factory",
  "sourceName": "contracts/ERC721Factory.sol",
  "abi": [
    {
      "inputs": [
        {
          "internalType": "address",
          "name": "_templateAddress",
          "type": "address"
        }
      ],
      "stateMutability": "nonpayable",
      "type": "constructor"
    },
    {
      "anonymous": false,
      "inputs": [
        {
          "indexed": true,
          "internalType": "address",
          "name": "owner",
          "type": "address"
        },
        {
          "indexed": true,
          "internalType": "address",
          "name": "creator",
          "type": "address"
        },
        {
          "indexed": true,
          "internalType": "address",
          "name": "templateAddress",
          "type": "address"
        },
        {
          "indexed": false,
          "internalType": "address",
          "name": "tokenAddress",
          "type": "address"
        },
        {
          "indexed": false,
          "internalType": "string",
          "name": "tokenName",
          "type": "string"
        },
        {
          "indexed": false,
          "internalType": "string",
          "name": "tokenSymbol",
          "type": "string"
        },
        {
          "indexed": false,
          "internalType": "string",
          "name": "metadataURI",
          "type": "string"
        },
        {
          "indexed": false,
          "internalType": "enum IERC721Template.Kind",
          "name": "kind",
          "type": "uint8"
        }
      ],
      "name": "ERC721Created",
      "type": "event"
    },
    {
      "anonymous": false,
      "inputs": [
        {
          "indexed": true,
          "internalType": "address",
          "name": "previousOwner",
          "type": "address"
        },
        {
          "indexed": true,
          "internalType": "address",
          "name": "newOwner",
          "type": "address"
        }
      ],
      "name": "OwnershipTransferred",
      "type": "event"
    },
    {
      "inputs": [
        {
          "internalType": "address",
          "name": "_owner",
          "type": "address"
        },
        {
          "internalType": "string",
          "name": "_name",
          "type": "string"
        },
        {
          "internalType": "string",
          "name": "_symbol",
          "type": "string"
        },
        {
          "internalType": "string",
          "name": "_metadataURI",
          "type": "string"
        },
        {
          "internalType": "enum IERC721Template.Kind",
          "name": "_kind",
          "type": "uint8"
        }
      ],
      "name": "cloneContract",
      "outputs": [
        {
          "internalType": "address",
          "name": "tokenAddress",
          "type": "address"
        }
      ],
      "stateMutability": "nonpayable",
      "type": "function"
    },
    {
      "inputs": [],
      "name": "currentERC721Count",
      "outputs": [
        {
          "internalType": "uint256",
          "name": "",
          "type": "uint256"
        }
      ],
      "stateMutability": "view",
      "type": "function"
    },
    {
      "inputs": [],
      "name": "owner",
      "outputs": [
        {
          "internalType": "address",
          "name": "",
          "type": "address"
        }
      ],
      "stateMutability": "view",
      "type": "function"
    },
    {
      "inputs": [],
      "name": "renounceOwnership",
      "outputs": [],
      "stateMutability": "nonpayable",
      "type": "function"
    },
    {
      "inputs": [
        {
          "internalType": "address",
          "name": "_templateAddress",
          "type": "address"
        }
      ],
      "name": "setTemplateAddress",
      "outputs": [],
      "stateMutability": "nonpayable",
      "type": "function"
    },
    {
      "inputs": [],
      "name": "templateAddress",
      "outputs": [
        {
          "internalType": "address",
          "name": "",
          "type": "address"
        }
      ],
      "stateMutability": "view",
      "type": "function"
    },
    {
      "inputs": [
        {
          "internalType": "address",
          "name": "newOwner",
          "type": "address"
        }
      ],
      "name": "transferOwnership",
      "outputs": [],
      "stateMutability": "nonpayable",
      "type": "function"
    }
  ],
  "bytecode": "0x6080604052600060025534801561001557600080fd5b5060405161085638038061085683398101604081905261003491610110565b61003d336100c0565b600180556001600160a01b03811661009b5760405162461bcd60e51b815260206004820152601860248201527f4e756c6c2061646472657373206e6f7420616c6c6f7765640000000000000000604482015260640160405180910390fd5b600380546001600160a01b0319166001600160a01b0392909216919091179055610140565b600080546001600160a01b038381166001600160a01b0319831681178455604051919092169283917f8be0079c531659141344cd1fd0a4f28419497f9722a3daafe3b4186f6b6457e09190a35050565b60006020828403121561012257600080fd5b81516001600160a01b038116811461013957600080fd5b9392505050565b6107078061014f6000396000f3fe608060405234801561001057600080fd5b506004361061007d5760003560e01c80638da5cb5b1161005b5780638da5cb5b146100d3578063b9628541146100e4578063dbfa2b90146100f7578063f2fde38b1461010a57600080fd5b80630c5a6f2f146100825780633be7347c146100b2578063715018a6146100c9575b600080fd5b600354610095906001600160a01b031681565b6040516001600160a01b0390911681526020015b60405180910390f35b6100bb60025481565b6040519081526020016100a9565b6100d161011d565b005b6000546001600160a01b0316610095565b6100d16100f2366004610450565b610131565b610095610105366004610515565b6101b6565b6100d1610118366004610450565b6102bf565b610125610338565b61012f6000610392565b565b610139610338565b6001600160a01b0381166101945760405162461bcd60e51b815260206004820152601860248201527f4e756c6c2061646472657373206e6f7420616c6c6f776564000000000000000060448201526064015b60405180910390fd5b600380546001600160a01b0319166001600160a01b0392909216919091179055565b6003546000906001600160a01b03166101ce816103e2565b91506001600260008282546101e391906105c7565b90915550506003546040516001600160a01b03918216913391908a16907fcb64d442392e5b570da016fd05bd7844ba9c09eb80548a0923904688984b2845906102359087908c908c908c908c90610634565b60405180910390a460405163027d77eb60e31b81526001600160a01b038316906313ebbf5890610271908a908a908a908a908a90600401610634565b6020604051808303816000875af1158015610290573d6000803e3d6000fd5b505050506040513d601f19601f820116820180604052508101906102b491906106af565b505095945050505050565b6102c7610338565b6001600160a01b03811661032c5760405162461bcd60e51b815260206004820152602660248201527f4f776e61626c653a206e6577206f776e657220697320746865207a65726f206160448201526564647265737360d01b606482015260840161018b565b61033581610392565b50565b6000546001600160a01b0316331461012f5760405162461bcd60e51b815260206004820181905260248201527f4f776e61626c653a2063616c6c6572206973206e6f7420746865206f776e6572604482015260640161018b565b600080546001600160a01b038381166001600160a01b0319831681178455604051919092169283917f8be0079c531659141344cd1fd0a4f28419497f9722a3daafe3b4186f6b6457e09190a35050565b6000808260601b9050604051733d602d80600a3d3981f3363d3d373d3d3d363d7360601b81528160148201526e5af43d82803e903d91602b57fd5bf360881b60288201526037816000f0949350505050565b80356001600160a01b038116811461044b57600080fd5b919050565b60006020828403121561046257600080fd5b61046b82610434565b9392505050565b634e487b7160e01b600052604160045260246000fd5b600082601f83011261049957600080fd5b813567ffffffffffffffff808211156104b4576104b4610472565b604051601f8301601f19908116603f011681019082821181831017156104dc576104dc610472565b816040528381528660208588010111156104f557600080fd5b836020870160208301376000602085830101528094505050505092915050565b600080600080600060a0868803121561052d57600080fd5b61053686610434565b9450602086013567ffffffffffffffff8082111561055357600080fd5b61055f89838a01610488565b9550604088013591508082111561057557600080fd5b61058189838a01610488565b9450606088013591508082111561059757600080fd5b506105a488828901610488565b9250506080860135600281106105b957600080fd5b809150509295509295909350565b808201808211156105e857634e487b7160e01b600052601160045260246000fd5b92915050565b6000815180845260005b81811015610614576020818501810151868301820152016105f8565b506000602082860101526020601f19601f83011685010191505092915050565b6001600160a01b038616815260a060208201819052600090610658908301876105ee565b828103604084015261066a81876105ee565b9050828103606084015261067e81866105ee565b9150506002831061069f57634e487b7160e01b600052602160045260246000fd5b8260808301529695505050505050565b6000602082840312156106c157600080fd5b8151801515811461046b57600080fdfea26469706673582212208b8e7e92f71cc490626cee04d20506a36db345d81749a4922117feeaf1c01dd064736f6c63430008110033",
  "linkReferences": {},
  "deployedLinkReferences": {}
}