{
  "_format": "hh-sol-artifact-1",
  "contractName": "ERC721Factory",
  "sourceName": "contracts/ERC721Factory.sol",
  "abi": [
    {
      "inputs": [
        {
          "internalType": "address",
          "name": "_templateAddress",
          "type": "address"
        }
      ],
      "stateMutability": "nonpayable",
      "type": "constructor"
    },
    {
      "anonymous": false,
      "inputs": [
        {
          "indexed": true,
          "internalType": "address",
          "name": "owner",
          "type": "address"
        },
        {
          "indexed": true,
          "internalType": "address",
          "name": "creator",
          "type": "address"
        },
        {
          "indexed": true,
          "internalType": "address",
          "name": "templateAddress",
          "type": "address"
        },
        {
          "indexed": false,
          "internalType": "address",
          "name": "tokenAddress",
          "type": "address"
        },
        {
          "indexed": false,
          "internalType": "string",
          "name": "tokenName",
          "type": "string"
        },
        {
          "indexed": false,
          "internalType": "string",
          "name": "tokenSymbol",
          "type": "string"
        },
        {
          "indexed": false,
          "internalType": "string",
          "name": "metadataURI",
          "type": "string"
        }
      ],
      "name": "ERC721Created",
      "type": "event"
    },
    {
      "anonymous": false,
      "inputs": [
        {
          "indexed": true,
          "internalType": "address",
          "name": "previousOwner",
          "type": "address"
        },
        {
          "indexed": true,
          "internalType": "address",
          "name": "newOwner",
          "type": "address"
        }
      ],
      "name": "OwnershipTransferred",
      "type": "event"
    },
    {
      "inputs": [
        {
          "internalType": "address",
          "name": "_owner",
          "type": "address"
        },
        {
          "internalType": "string",
          "name": "_name",
          "type": "string"
        },
        {
          "internalType": "string",
          "name": "_symbol",
          "type": "string"
        },
        {
          "internalType": "string",
          "name": "_metadataURI",
          "type": "string"
        }
      ],
      "name": "cloneContract",
      "outputs": [
        {
          "internalType": "address",
          "name": "tokenAddress",
          "type": "address"
        }
      ],
      "stateMutability": "nonpayable",
      "type": "function"
    },
    {
      "inputs": [],
      "name": "owner",
      "outputs": [
        {
          "internalType": "address",
          "name": "",
          "type": "address"
        }
      ],
      "stateMutability": "view",
      "type": "function"
    },
    {
      "inputs": [],
      "name": "renounceOwnership",
      "outputs": [],
      "stateMutability": "nonpayable",
      "type": "function"
    },
    {
      "inputs": [
        {
          "internalType": "address",
          "name": "_templateAddress",
          "type": "address"
        }
      ],
      "name": "setTemplateAddress",
      "outputs": [],
      "stateMutability": "nonpayable",
      "type": "function"
    },
    {
      "inputs": [
        {
          "internalType": "address",
          "name": "newOwner",
          "type": "address"
        }
      ],
      "name": "transferOwnership",
      "outputs": [],
      "stateMutability": "nonpayable",
      "type": "function"
    }
  ],
  "bytecode": "0x6080604052600060025534801561001557600080fd5b506040516107bd3803806107bd83398101604081905261003491610110565b61003d336100c0565b600180556001600160a01b03811661009b5760405162461bcd60e51b815260206004820152601860248201527f4e756c6c2061646472657373206e6f7420616c6c6f7765640000000000000000604482015260640160405180910390fd5b600380546001600160a01b0319166001600160a01b0392909216919091179055610140565b600080546001600160a01b038381166001600160a01b0319831681178455604051919092169283917f8be0079c531659141344cd1fd0a4f28419497f9722a3daafe3b4186f6b6457e09190a35050565b60006020828403121561012257600080fd5b81516001600160a01b038116811461013957600080fd5b9392505050565b61066e8061014f6000396000f3fe608060405234801561001057600080fd5b50600436106100575760003560e01c8063715018a61461005c5780638da5cb5b14610066578063b96285411461008f578063f04dbe23146100a2578063f2fde38b146100b5575b600080fd5b6100646100c8565b005b6000546001600160a01b03165b6040516001600160a01b03909116815260200160405180910390f35b61006461009d3660046103f6565b6100dc565b6100736100b03660046104bb565b610161565b6100646100c33660046103f6565b610265565b6100d06102de565b6100da6000610338565b565b6100e46102de565b6001600160a01b03811661013f5760405162461bcd60e51b815260206004820152601860248201527f4e756c6c2061646472657373206e6f7420616c6c6f776564000000000000000060448201526064015b60405180910390fd5b600380546001600160a01b0319166001600160a01b0392909216919091179055565b6003546000906001600160a01b031661017981610388565b915060016002600082825461018e9190610554565b90915550506003546040516001600160a01b03918216913391908916907fca08b793728e5f458931cff56385d026c64d024d815222145d7e0f97e5e90340906101de9087908b908b908b906105c1565b60405180910390a4604051635f1e6f6d60e01b81526001600160a01b03831690635f1e6f6d906102189089908990899089906004016105c1565b6020604051808303816000875af1158015610237573d6000803e3d6000fd5b505050506040513d601f19601f8201168201806040525081019061025b9190610616565b5050949350505050565b61026d6102de565b6001600160a01b0381166102d25760405162461bcd60e51b815260206004820152602660248201527f4f776e61626c653a206e6577206f776e657220697320746865207a65726f206160448201526564647265737360d01b6064820152608401610136565b6102db81610338565b50565b6000546001600160a01b031633146100da5760405162461bcd60e51b815260206004820181905260248201527f4f776e61626c653a2063616c6c6572206973206e6f7420746865206f776e65726044820152606401610136565b600080546001600160a01b038381166001600160a01b0319831681178455604051919092169283917f8be0079c531659141344cd1fd0a4f28419497f9722a3daafe3b4186f6b6457e09190a35050565b6000808260601b9050604051733d602d80600a3d3981f3363d3d373d3d3d363d7360601b81528160148201526e5af43d82803e903d91602b57fd5bf360881b60288201526037816000f0949350505050565b80356001600160a01b03811681146103f157600080fd5b919050565b60006020828403121561040857600080fd5b610411826103da565b9392505050565b634e487b7160e01b600052604160045260246000fd5b600082601f83011261043f57600080fd5b813567ffffffffffffffff8082111561045a5761045a610418565b604051601f8301601f19908116603f0116810190828211818310171561048257610482610418565b8160405283815286602085880101111561049b57600080fd5b836020870160208301376000602085830101528094505050505092915050565b600080600080608085870312156104d157600080fd5b6104da856103da565b9350602085013567ffffffffffffffff808211156104f757600080fd5b6105038883890161042e565b9450604087013591508082111561051957600080fd5b6105258883890161042e565b9350606087013591508082111561053b57600080fd5b506105488782880161042e565b91505092959194509250565b8082018082111561057557634e487b7160e01b600052601160045260246000fd5b92915050565b6000815180845260005b818110156105a157602081850181015186830182015201610585565b506000602082860101526020601f19601f83011685010191505092915050565b6001600160a01b03851681526080602082018190526000906105e59083018661057b565b82810360408401526105f7818661057b565b9050828103606084015261060b818561057b565b979650505050505050565b60006020828403121561062857600080fd5b8151801515811461041157600080fdfea2646970667358221220103e1d2e356b52cef96b274ffbb3a1df5b08d1b47f91194b4cb1a99741b1a63264736f6c63430008110033",
  "linkReferences": {},
  "deployedLinkReferences": {}
}