{
  "_format": "hh-sol-artifact-1",
  "contractName": "ERC721Template",
  "sourceName": "contracts/templates/ERC721Template.sol",
  "abi": [
    {
      "anonymous": false,
      "inputs": [
        {
          "indexed": true,
          "internalType": "address",
          "name": "owner",
          "type": "address"
        },
        {
          "indexed": true,
          "internalType": "address",
          "name": "approved",
          "type": "address"
        },
        {
          "indexed": true,
          "internalType": "uint256",
          "name": "tokenId",
          "type": "uint256"
        }
      ],
      "name": "Approval",
      "type": "event"
    },
    {
      "anonymous": false,
      "inputs": [
        {
          "indexed": true,
          "internalType": "address",
          "name": "owner",
          "type": "address"
        },
        {
          "indexed": true,
          "internalType": "address",
          "name": "operator",
          "type": "address"
        },
        {
          "indexed": false,
          "internalType": "bool",
          "name": "approved",
          "type": "bool"
        }
      ],
      "name": "ApprovalForAll",
      "type": "event"
    },
    {
      "anonymous": false,
      "inputs": [
        {
          "indexed": true,
          "internalType": "address",
          "name": "updatedBy",
          "type": "address"
        },
        {
          "indexed": false,
          "internalType": "string",
          "name": "metadataURI",
          "type": "string"
        },
        {
          "indexed": false,
          "internalType": "uint256",
          "name": "timestamp",
          "type": "uint256"
        },
        {
          "indexed": false,
          "internalType": "uint256",
          "name": "blockNumber",
          "type": "uint256"
        }
      ],
      "name": "MetadataUpdated",
      "type": "event"
    },
    {
      "anonymous": false,
      "inputs": [
        {
          "indexed": true,
          "internalType": "address",
          "name": "previousOwner",
          "type": "address"
        },
        {
          "indexed": true,
          "internalType": "address",
          "name": "newOwner",
          "type": "address"
        }
      ],
      "name": "OwnershipTransferred",
      "type": "event"
    },
    {
      "anonymous": false,
      "inputs": [
        {
          "indexed": false,
          "internalType": "address",
          "name": "account",
          "type": "address"
        }
      ],
      "name": "Paused",
      "type": "event"
    },
    {
      "anonymous": false,
      "inputs": [
        {
          "indexed": true,
          "internalType": "bytes32",
          "name": "role",
          "type": "bytes32"
        },
        {
          "indexed": true,
          "internalType": "bytes32",
          "name": "previousAdminRole",
          "type": "bytes32"
        },
        {
          "indexed": true,
          "internalType": "bytes32",
          "name": "newAdminRole",
          "type": "bytes32"
        }
      ],
      "name": "RoleAdminChanged",
      "type": "event"
    },
    {
      "anonymous": false,
      "inputs": [
        {
          "indexed": true,
          "internalType": "bytes32",
          "name": "role",
          "type": "bytes32"
        },
        {
          "indexed": true,
          "internalType": "address",
          "name": "account",
          "type": "address"
        },
        {
          "indexed": true,
          "internalType": "address",
          "name": "sender",
          "type": "address"
        }
      ],
      "name": "RoleGranted",
      "type": "event"
    },
    {
      "anonymous": false,
      "inputs": [
        {
          "indexed": true,
          "internalType": "bytes32",
          "name": "role",
          "type": "bytes32"
        },
        {
          "indexed": true,
          "internalType": "address",
          "name": "account",
          "type": "address"
        },
        {
          "indexed": true,
          "internalType": "address",
          "name": "sender",
          "type": "address"
        }
      ],
      "name": "RoleRevoked",
      "type": "event"
    },
    {
      "anonymous": false,
      "inputs": [
        {
          "indexed": true,
          "internalType": "address",
          "name": "from",
          "type": "address"
        },
        {
          "indexed": true,
          "internalType": "address",
          "name": "to",
          "type": "address"
        },
        {
          "indexed": true,
          "internalType": "uint256",
          "name": "tokenId",
          "type": "uint256"
        }
      ],
      "name": "Transfer",
      "type": "event"
    },
    {
      "anonymous": false,
      "inputs": [
        {
          "indexed": false,
          "internalType": "address",
          "name": "account",
          "type": "address"
        }
      ],
      "name": "Unpaused",
      "type": "event"
    },
    {
      "inputs": [],
      "name": "DEFAULT_ADMIN_ROLE",
      "outputs": [
        {
          "internalType": "bytes32",
          "name": "",
          "type": "bytes32"
        }
      ],
      "stateMutability": "view",
      "type": "function"
    },
    {
      "inputs": [],
      "name": "MANAGER_ROLE",
      "outputs": [
        {
          "internalType": "bytes32",
          "name": "",
          "type": "bytes32"
        }
      ],
      "stateMutability": "view",
      "type": "function"
    },
    {
      "inputs": [
        {
          "internalType": "address",
          "name": "_manager",
          "type": "address"
        }
      ],
      "name": "addManager",
      "outputs": [],
      "stateMutability": "nonpayable",
      "type": "function"
    },
    {
      "inputs": [
        {
          "internalType": "address",
          "name": "to",
          "type": "address"
        },
        {
          "internalType": "uint256",
          "name": "tokenId",
          "type": "uint256"
        }
      ],
      "name": "approve",
      "outputs": [],
      "stateMutability": "nonpayable",
      "type": "function"
    },
    {
      "inputs": [
        {
          "internalType": "address",
          "name": "owner",
          "type": "address"
        }
      ],
      "name": "balanceOf",
      "outputs": [
        {
          "internalType": "uint256",
          "name": "",
          "type": "uint256"
        }
      ],
      "stateMutability": "view",
      "type": "function"
    },
    {
      "inputs": [
        {
          "internalType": "uint256",
          "name": "tokenId",
          "type": "uint256"
        }
      ],
      "name": "getApproved",
      "outputs": [
        {
          "internalType": "address",
          "name": "",
          "type": "address"
        }
      ],
      "stateMutability": "view",
      "type": "function"
    },
    {
      "inputs": [
        {
          "internalType": "bytes32",
          "name": "role",
          "type": "bytes32"
        }
      ],
      "name": "getRoleAdmin",
      "outputs": [
        {
          "internalType": "bytes32",
          "name": "",
          "type": "bytes32"
        }
      ],
      "stateMutability": "view",
      "type": "function"
    },
    {
      "inputs": [
        {
          "internalType": "bytes32",
          "name": "role",
          "type": "bytes32"
        },
        {
          "internalType": "address",
          "name": "account",
          "type": "address"
        }
      ],
      "name": "grantRole",
      "outputs": [],
      "stateMutability": "nonpayable",
      "type": "function"
    },
    {
      "inputs": [
        {
          "internalType": "bytes32",
          "name": "role",
          "type": "bytes32"
        },
        {
          "internalType": "address",
          "name": "account",
          "type": "address"
        }
      ],
      "name": "hasRole",
      "outputs": [
        {
          "internalType": "bool",
          "name": "",
          "type": "bool"
        }
      ],
      "stateMutability": "view",
      "type": "function"
    },
    {
      "inputs": [
        {
          "internalType": "address",
          "name": "_owner",
          "type": "address"
        },
        {
          "internalType": "string",
          "name": "_name",
          "type": "string"
        },
        {
          "internalType": "string",
          "name": "_symbol",
          "type": "string"
        },
        {
          "internalType": "string",
          "name": "_metadataURI",
          "type": "string"
        }
      ],
      "name": "initialize",
      "outputs": [
        {
          "internalType": "bool",
          "name": "",
          "type": "bool"
        }
      ],
      "stateMutability": "nonpayable",
      "type": "function"
    },
    {
      "inputs": [
        {
          "internalType": "address",
          "name": "owner",
          "type": "address"
        },
        {
          "internalType": "address",
          "name": "operator",
          "type": "address"
        }
      ],
      "name": "isApprovedForAll",
      "outputs": [
        {
          "internalType": "bool",
          "name": "",
          "type": "bool"
        }
      ],
      "stateMutability": "view",
      "type": "function"
    },
    {
      "inputs": [],
      "name": "name",
      "outputs": [
        {
          "internalType": "string",
          "name": "",
          "type": "string"
        }
      ],
      "stateMutability": "view",
      "type": "function"
    },
    {
      "inputs": [],
      "name": "owner",
      "outputs": [
        {
          "internalType": "address",
          "name": "",
          "type": "address"
        }
      ],
      "stateMutability": "view",
      "type": "function"
    },
    {
      "inputs": [
        {
          "internalType": "uint256",
          "name": "tokenId",
          "type": "uint256"
        }
      ],
      "name": "ownerOf",
      "outputs": [
        {
          "internalType": "address",
          "name": "",
          "type": "address"
        }
      ],
      "stateMutability": "view",
      "type": "function"
    },
    {
      "inputs": [],
      "name": "pause",
      "outputs": [],
      "stateMutability": "nonpayable",
      "type": "function"
    },
    {
      "inputs": [],
      "name": "paused",
      "outputs": [
        {
          "internalType": "bool",
          "name": "",
          "type": "bool"
        }
      ],
      "stateMutability": "view",
      "type": "function"
    },
    {
      "inputs": [],
      "name": "price",
      "outputs": [
        {
          "internalType": "uint256",
          "name": "",
          "type": "uint256"
        }
      ],
      "stateMutability": "view",
      "type": "function"
    },
    {
      "inputs": [
        {
          "internalType": "address",
          "name": "_manager",
          "type": "address"
        }
      ],
      "name": "removeManager",
      "outputs": [],
      "stateMutability": "nonpayable",
      "type": "function"
    },
    {
      "inputs": [],
      "name": "renounceOwnership",
      "outputs": [],
      "stateMutability": "nonpayable",
      "type": "function"
    },
    {
      "inputs": [
        {
          "internalType": "bytes32",
          "name": "role",
          "type": "bytes32"
        },
        {
          "internalType": "address",
          "name": "account",
          "type": "address"
        }
      ],
      "name": "renounceRole",
      "outputs": [],
      "stateMutability": "nonpayable",
      "type": "function"
    },
    {
      "inputs": [
        {
          "internalType": "bytes32",
          "name": "role",
          "type": "bytes32"
        },
        {
          "internalType": "address",
          "name": "account",
          "type": "address"
        }
      ],
      "name": "revokeRole",
      "outputs": [],
      "stateMutability": "nonpayable",
      "type": "function"
    },
    {
      "inputs": [
        {
          "internalType": "address",
          "name": "from",
          "type": "address"
        },
        {
          "internalType": "address",
          "name": "to",
          "type": "address"
        },
        {
          "internalType": "uint256",
          "name": "tokenId",
          "type": "uint256"
        }
      ],
      "name": "safeTransferFrom",
      "outputs": [],
      "stateMutability": "nonpayable",
      "type": "function"
    },
    {
      "inputs": [
        {
          "internalType": "address",
          "name": "from",
          "type": "address"
        },
        {
          "internalType": "address",
          "name": "to",
          "type": "address"
        },
        {
          "internalType": "uint256",
          "name": "tokenId",
          "type": "uint256"
        },
        {
          "internalType": "bytes",
          "name": "data",
          "type": "bytes"
        }
      ],
      "name": "safeTransferFrom",
      "outputs": [],
      "stateMutability": "nonpayable",
      "type": "function"
    },
    {
      "inputs": [
        {
          "internalType": "address",
          "name": "operator",
          "type": "address"
        },
        {
          "internalType": "bool",
          "name": "approved",
          "type": "bool"
        }
      ],
      "name": "setApprovalForAll",
      "outputs": [],
      "stateMutability": "nonpayable",
      "type": "function"
    },
    {
      "inputs": [
        {
          "internalType": "uint256",
          "name": "_price",
          "type": "uint256"
        }
      ],
      "name": "setPrice",
      "outputs": [],
      "stateMutability": "nonpayable",
      "type": "function"
    },
    {
      "inputs": [
        {
          "internalType": "bytes4",
          "name": "interfaceId",
          "type": "bytes4"
        }
      ],
      "name": "supportsInterface",
      "outputs": [
        {
          "internalType": "bool",
          "name": "",
          "type": "bool"
        }
      ],
      "stateMutability": "view",
      "type": "function"
    },
    {
      "inputs": [],
      "name": "symbol",
      "outputs": [
        {
          "internalType": "string",
          "name": "",
          "type": "string"
        }
      ],
      "stateMutability": "view",
      "type": "function"
    },
    {
      "inputs": [
        {
          "internalType": "uint256",
          "name": "_tokenId",
          "type": "uint256"
        }
      ],
      "name": "tokenURI",
      "outputs": [
        {
          "internalType": "string",
          "name": "",
          "type": "string"
        }
      ],
      "stateMutability": "view",
      "type": "function"
    },
    {
      "inputs": [
        {
          "internalType": "address",
          "name": "from",
          "type": "address"
        },
        {
          "internalType": "address",
          "name": "to",
          "type": "address"
        },
        {
          "internalType": "uint256",
          "name": "tokenId",
          "type": "uint256"
        }
      ],
      "name": "transferFrom",
      "outputs": [],
      "stateMutability": "nonpayable",
      "type": "function"
    },
    {
      "inputs": [
        {
          "internalType": "address",
          "name": "newOwner",
          "type": "address"
        }
      ],
      "name": "transferOwnership",
      "outputs": [],
      "stateMutability": "nonpayable",
      "type": "function"
    },
    {
      "inputs": [],
      "name": "unpause",
      "outputs": [],
      "stateMutability": "nonpayable",
      "type": "function"
    },
    {
      "inputs": [
        {
          "internalType": "string",
          "name": "_metadataURI",
          "type": "string"
        }
      ],
      "name": "updateMetadata",
      "outputs": [],
      "stateMutability": "nonpayable",
      "type": "function"
    },
    {
      "inputs": [],
      "name": "withdraw",
      "outputs": [],
      "stateMutability": "nonpayable",
      "type": "function"
    }
  ],
  "bytecode": "0x60806040523480156200001157600080fd5b50604051806040016040528060048152602001634e616d6560e01b8152506040518060400160405280600681526020016514de5b589bdb60d21b81525081600090816200005f91906200019e565b5060016200006e82826200019e565b5050506200008b62000085620000a360201b60201c565b620000a7565b6006805460ff60a01b1916905560016007556200026a565b3390565b600680546001600160a01b038381166001600160a01b0319831681179093556040519116919082907f8be0079c531659141344cd1fd0a4f28419497f9722a3daafe3b4186f6b6457e090600090a35050565b634e487b7160e01b600052604160045260246000fd5b600181811c908216806200012457607f821691505b6020821081036200014557634e487b7160e01b600052602260045260246000fd5b50919050565b601f8211156200019957600081815260208120601f850160051c81016020861015620001745750805b601f850160051c820191505b81811015620001955782815560010162000180565b5050505b505050565b81516001600160401b03811115620001ba57620001ba620000f9565b620001d281620001cb84546200010f565b846200014b565b602080601f8311600181146200020a5760008415620001f15750858301515b600019600386901b1c1916600185901b17855562000195565b600085815260208120601f198616915b828110156200023b578886015182559484019460019091019084016200021a565b50858210156200025a5787850151600019600388901b60f8161c191681555b5050505050600190811b01905550565b6122f1806200027a6000396000f3fe608060405234801561001057600080fd5b50600436106101fb5760003560e01c8063715018a61161011a578063a217fddf116100ad578063c87b56dd1161007c578063c87b56dd14610414578063d547741f14610427578063e985e9c51461043a578063ec87621c14610476578063f2fde38b1461048b57600080fd5b8063a217fddf146103d3578063a22cb465146103db578063ac18de43146103ee578063b88d4fde1461040157600080fd5b806391b7f5ed116100e957806391b7f5ed1461039c57806391d14854146103af57806395d89b41146103c2578063a035b1fe146103ca57600080fd5b8063715018a6146103685780638456cb59146103705780638da5cb5b14610378578063918b5be11461038957600080fd5b806336568abe116101925780635c975abb116101615780635c975abb1461031d5780635f1e6f6d1461032f5780636352211e1461034257806370a082311461035557600080fd5b806336568abe146102e75780633ccfd60b146102fa5780633f4ba83a1461030257806342842e0e1461030a57600080fd5b806323b872dd116101ce57806323b872dd1461027d578063248a9ca3146102905780632d06177a146102c15780632f2ff15d146102d457600080fd5b806301ffc9a71461020057806306fdde0314610228578063081812fc1461023d578063095ea7b314610268575b600080fd5b61021361020e366004611aee565b61049e565b60405190151581526020015b60405180910390f35b6102306104af565b60405161021f9190611b5b565b61025061024b366004611b6e565b610541565b6040516001600160a01b03909116815260200161021f565b61027b610276366004611ba3565b610568565b005b61027b61028b366004611bcd565b610682565b6102b361029e366004611b6e565b60009081526008602052604090206001015490565b60405190815260200161021f565b61027b6102cf366004611c09565b6106b3565b61027b6102e2366004611c24565b6106e7565b61027b6102f5366004611c24565b61070c565b61027b610786565b61027b6107b0565b61027b610318366004611bcd565b6107c0565b600654600160a01b900460ff16610213565b61021361033d366004611c99565b6107db565b610250610350366004611b6e565b610891565b6102b3610363366004611c09565b6108f1565b61027b610977565b61027b610989565b6006546001600160a01b0316610250565b61027b610397366004611dd0565b610999565b61027b6103aa366004611b6e565b610a07565b6102136103bd366004611c24565b610a25565b610230610a50565b6102b3600d5481565b6102b3600081565b61027b6103e9366004611e19565b610a5f565b61027b6103fc366004611c09565b610a6a565b61027b61040f366004611e55565b610a8d565b610230610422366004611b6e565b610ac5565b61027b610435366004611c24565b610be8565b610213610448366004611ed1565b6001600160a01b03918216600090815260056020908152604080832093909416825291909152205460ff1690565b6102b360008051602061229c83398151915281565b61027b610499366004611c09565b610c0d565b60006104a982610c83565b92915050565b6060600a80546104be90611efb565b80601f01602080910402602001604051908101604052809291908181526020018280546104ea90611efb565b80156105375780601f1061050c57610100808354040283529160200191610537565b820191906000526020600020905b81548152906001019060200180831161051a57829003601f168201915b5050505050905090565b600061054c82610ca8565b506000908152600460205260409020546001600160a01b031690565b600061057382610891565b9050806001600160a01b0316836001600160a01b0316036105e55760405162461bcd60e51b815260206004820152602160248201527f4552433732313a20617070726f76616c20746f2063757272656e74206f776e656044820152603960f91b60648201526084015b60405180910390fd5b336001600160a01b038216148061060157506106018133610448565b6106735760405162461bcd60e51b815260206004820152603d60248201527f4552433732313a20617070726f76652063616c6c6572206973206e6f7420746f60448201527f6b656e206f776e6572206f7220617070726f76656420666f7220616c6c00000060648201526084016105dc565b61067d8383610d07565b505050565b61068c3382610d75565b6106a85760405162461bcd60e51b81526004016105dc90611f35565b61067d838383610df4565b60008051602061229c8339815191526106cb81610f65565b6106e360008051602061229c83398151915283610f6f565b5050565b60008281526008602052604090206001015461070281610f65565b61067d8383610f6f565b6001600160a01b038116331461077c5760405162461bcd60e51b815260206004820152602f60248201527f416363657373436f6e74726f6c3a2063616e206f6e6c792072656e6f756e636560448201526e103937b632b9903337b91039b2b63360891b60648201526084016105dc565b6106e38282610ff5565b61078e61105c565b600c546107a4906001600160a01b0316476110b5565b6107ae6001600755565b565b6107b86111ce565b6107ae611228565b61067d83838360405180602001604052806000815250610a8d565b60006108858888888080601f01602080910402602001604051908101604052809392919081815260200183838082843760009201919091525050604080516020601f8c018190048102820181019092528a815292508a915089908190840183828082843760009201919091525050604080516020601f8b01819004810282018101909252898152925089915088908190840183828082843760009201919091525061127d92505050565b98975050505050505050565b6000818152600260205260408120546001600160a01b0316806104a95760405162461bcd60e51b8152602060048201526018602482015277115490cdcc8c4e881a5b9d985b1a59081d1bdad95b88125160421b60448201526064016105dc565b60006001600160a01b03821661095b5760405162461bcd60e51b815260206004820152602960248201527f4552433732313a2061646472657373207a65726f206973206e6f7420612076616044820152683634b21037bbb732b960b91b60648201526084016105dc565b506001600160a01b031660009081526003602052604090205490565b61097f6111ce565b6107ae60006112c7565b6109916111ce565b6107ae611319565b60008051602061229c8339815191526109b181610f65565b60096109bd8382611fd0565b50336001600160a01b03167f6facb794c71877e7713bdcde3c4894d8cc4514f0f33ecb6ebdf457775d6f89d88342436040516109fb93929190612090565b60405180910390a25050565b60008051602061229c833981519152610a1f81610f65565b50600d55565b60009182526008602090815260408084206001600160a01b0393909316845291905290205460ff1690565b6060600b80546104be90611efb565b6106e333838361135c565b610a726111ce565b610a8a60008051602061229c83398151915282610ff5565b50565b610a973383610d75565b610ab35760405162461bcd60e51b81526004016105dc90611f35565b610abf8484848461142a565b50505050565b6000818152600260205260409020546060906001600160a01b0316610b2c5760405162461bcd60e51b815260206004820152601f60248201527f55524920717565727920666f72206e6f6e6578697374656e7420746f6b656e0060448201526064016105dc565b600060098054610b3b90611efb565b905011610b5757604051806020016040528060008152506104a9565b60098054610b6490611efb565b80601f0160208091040260200160405190810160405280929190818152602001828054610b9090611efb565b8015610bdd5780601f10610bb257610100808354040283529160200191610bdd565b820191906000526020600020905b815481529060010190602001808311610bc057829003601f168201915b505050505092915050565b600082815260086020526040902060010154610c0381610f65565b61067d8383610ff5565b610c156111ce565b6001600160a01b038116610c7a5760405162461bcd60e51b815260206004820152602660248201527f4f776e61626c653a206e6577206f776e657220697320746865207a65726f206160448201526564647265737360d01b60648201526084016105dc565b610a8a816112c7565b60006001600160e01b03198216637965db0b60e01b14806104a957506104a98261145d565b6000818152600260205260409020546001600160a01b0316610a8a5760405162461bcd60e51b8152602060048201526018602482015277115490cdcc8c4e881a5b9d985b1a59081d1bdad95b88125160421b60448201526064016105dc565b600081815260046020526040902080546001600160a01b0319166001600160a01b0384169081179091558190610d3c82610891565b6001600160a01b03167f8c5be1e5ebec7d5bd14f71427d1e84f3dd0314c0f7b2291e5b200ac8c7c3b92560405160405180910390a45050565b600080610d8183610891565b9050806001600160a01b0316846001600160a01b03161480610dc857506001600160a01b0380821660009081526005602090815260408083209388168352929052205460ff165b80610dec5750836001600160a01b0316610de184610541565b6001600160a01b0316145b949350505050565b826001600160a01b0316610e0782610891565b6001600160a01b031614610e2d5760405162461bcd60e51b81526004016105dc906120b5565b6001600160a01b038216610e8f5760405162461bcd60e51b8152602060048201526024808201527f4552433732313a207472616e7366657220746f20746865207a65726f206164646044820152637265737360e01b60648201526084016105dc565b610e9c83838360016114ad565b826001600160a01b0316610eaf82610891565b6001600160a01b031614610ed55760405162461bcd60e51b81526004016105dc906120b5565b600081815260046020908152604080832080546001600160a01b03199081169091556001600160a01b0387811680865260038552838620805460001901905590871680865283862080546001019055868652600290945282852080549092168417909155905184937fddf252ad1be2c89b69c2b068fc378daa952ba7f163c4a11628f55a4df523b3ef91a4505050565b610a8a81336114c1565b610f798282610a25565b6106e35760008281526008602090815260408083206001600160a01b03851684529091529020805460ff19166001179055610fb13390565b6001600160a01b0316816001600160a01b0316837f2f8788117e7eff1d82e926ec794901d17c78024a50270940304540a733656f0d60405160405180910390a45050565b610fff8282610a25565b156106e35760008281526008602090815260408083206001600160a01b0385168085529252808320805460ff1916905551339285917ff6391f5c32d9c69d2a47ea670b442974b53935d1edc7fd64eb21e047a839171b9190a45050565b6002600754036110ae5760405162461bcd60e51b815260206004820152601f60248201527f5265656e7472616e637947756172643a207265656e7472616e742063616c6c0060448201526064016105dc565b6002600755565b804710156111055760405162461bcd60e51b815260206004820152601d60248201527f416464726573733a20696e73756666696369656e742062616c616e636500000060448201526064016105dc565b6000826001600160a01b03168260405160006040518083038185875af1925050503d8060008114611152576040519150601f19603f3d011682016040523d82523d6000602084013e611157565b606091505b505090508061067d5760405162461bcd60e51b815260206004820152603a60248201527f416464726573733a20756e61626c6520746f2073656e642076616c75652c207260448201527f6563697069656e74206d6179206861766520726576657274656400000000000060648201526084016105dc565b6006546001600160a01b031633146107ae5760405162461bcd60e51b815260206004820181905260248201527f4f776e61626c653a2063616c6c6572206973206e6f7420746865206f776e657260448201526064016105dc565b61123061151a565b6006805460ff60a01b191690557f5db9ee0a495bf2e6ff9c91a7834c1ba4fdd244a5e8aa4e537bd38aeae4b073aa335b6040516001600160a01b03909116815260200160405180910390a1565b6000600a61128b8582611fd0565b50600b6112988482611fd0565b5060096112a58382611fd0565b506112b1600033610f6f565b6112bc85600161156a565b506001949350505050565b600680546001600160a01b038381166001600160a01b0319831681179093556040519116919082907f8be0079c531659141344cd1fd0a4f28419497f9722a3daafe3b4186f6b6457e090600090a35050565b611321611584565b6006805460ff60a01b1916600160a01b1790557f62e78cea01bee320cd4e420270b5ea74000d11b0c9f74754ebdbfc544b05a2586112603390565b816001600160a01b0316836001600160a01b0316036113bd5760405162461bcd60e51b815260206004820152601960248201527f4552433732313a20617070726f766520746f2063616c6c65720000000000000060448201526064016105dc565b6001600160a01b03838116600081815260056020908152604080832094871680845294825291829020805460ff191686151590811790915591519182527f17307eab39ab6107e8899845ad3d59bd9653f200f220920489ca2b5937696c31910160405180910390a3505050565b611435848484610df4565b611441848484846115d1565b610abf5760405162461bcd60e51b81526004016105dc906120fa565b60006001600160e01b031982166380ac58cd60e01b148061148e57506001600160e01b03198216635b5e139f60e01b145b806104a957506301ffc9a760e01b6001600160e01b03198316146104a9565b6114b5611584565b610abf848484846116cf565b6114cb8282610a25565b6106e3576114d881611757565b6114e3836020611769565b6040516020016114f492919061214c565b60408051601f198184030181529082905262461bcd60e51b82526105dc91600401611b5b565b600654600160a01b900460ff166107ae5760405162461bcd60e51b815260206004820152601460248201527314185d5cd8589b194e881b9bdd081c185d5cd95960621b60448201526064016105dc565b6106e382826040518060200160405280600081525061190c565b600654600160a01b900460ff16156107ae5760405162461bcd60e51b815260206004820152601060248201526f14185d5cd8589b194e881c185d5cd95960821b60448201526064016105dc565b60006001600160a01b0384163b156116c757604051630a85bd0160e11b81526001600160a01b0385169063150b7a02906116159033908990889088906004016121c1565b6020604051808303816000875af1925050508015611650575060408051601f3d908101601f1916820190925261164d918101906121fe565b60015b6116ad573d80801561167e576040519150601f19603f3d011682016040523d82523d6000602084013e611683565b606091505b5080516000036116a55760405162461bcd60e51b81526004016105dc906120fa565b805181602001fd5b6001600160e01b031916630a85bd0160e11b149050610dec565b506001610dec565b6001811115610abf576001600160a01b03841615611715576001600160a01b0384166000908152600360205260408120805483929061170f908490612231565b90915550505b6001600160a01b03831615610abf576001600160a01b0383166000908152600360205260408120805483929061174c908490612244565b909155505050505050565b60606104a96001600160a01b03831660145b60606000611778836002612257565b611783906002612244565b67ffffffffffffffff81111561179b5761179b611d44565b6040519080825280601f01601f1916602001820160405280156117c5576020820181803683370190505b509050600360fc1b816000815181106117e0576117e061226e565b60200101906001600160f81b031916908160001a905350600f60fb1b8160018151811061180f5761180f61226e565b60200101906001600160f81b031916908160001a9053506000611833846002612257565b61183e906001612244565b90505b60018111156118b6576f181899199a1a9b1b9c1cb0b131b232b360811b85600f16601081106118725761187261226e565b1a60f81b8282815181106118885761188861226e565b60200101906001600160f81b031916908160001a90535060049490941c936118af81612284565b9050611841565b5083156119055760405162461bcd60e51b815260206004820181905260248201527f537472696e67733a20686578206c656e67746820696e73756666696369656e7460448201526064016105dc565b9392505050565b611916838361193f565b61192360008484846115d1565b61067d5760405162461bcd60e51b81526004016105dc906120fa565b6001600160a01b0382166119955760405162461bcd60e51b815260206004820181905260248201527f4552433732313a206d696e7420746f20746865207a65726f206164647265737360448201526064016105dc565b6000818152600260205260409020546001600160a01b0316156119fa5760405162461bcd60e51b815260206004820152601c60248201527f4552433732313a20746f6b656e20616c7265616479206d696e7465640000000060448201526064016105dc565b611a086000838360016114ad565b6000818152600260205260409020546001600160a01b031615611a6d5760405162461bcd60e51b815260206004820152601c60248201527f4552433732313a20746f6b656e20616c7265616479206d696e7465640000000060448201526064016105dc565b6001600160a01b038216600081815260036020908152604080832080546001019055848352600290915280822080546001600160a01b0319168417905551839291907fddf252ad1be2c89b69c2b068fc378daa952ba7f163c4a11628f55a4df523b3ef908290a45050565b6001600160e01b031981168114610a8a57600080fd5b600060208284031215611b0057600080fd5b813561190581611ad8565b60005b83811015611b26578181015183820152602001611b0e565b50506000910152565b60008151808452611b47816020860160208601611b0b565b601f01601f19169290920160200192915050565b6020815260006119056020830184611b2f565b600060208284031215611b8057600080fd5b5035919050565b80356001600160a01b0381168114611b9e57600080fd5b919050565b60008060408385031215611bb657600080fd5b611bbf83611b87565b946020939093013593505050565b600080600060608486031215611be257600080fd5b611beb84611b87565b9250611bf960208501611b87565b9150604084013590509250925092565b600060208284031215611c1b57600080fd5b61190582611b87565b60008060408385031215611c3757600080fd5b82359150611c4760208401611b87565b90509250929050565b60008083601f840112611c6257600080fd5b50813567ffffffffffffffff811115611c7a57600080fd5b602083019150836020828501011115611c9257600080fd5b9250929050565b60008060008060008060006080888a031215611cb457600080fd5b611cbd88611b87565b9650602088013567ffffffffffffffff80821115611cda57600080fd5b611ce68b838c01611c50565b909850965060408a0135915080821115611cff57600080fd5b611d0b8b838c01611c50565b909650945060608a0135915080821115611d2457600080fd5b50611d318a828b01611c50565b989b979a50959850939692959293505050565b634e487b7160e01b600052604160045260246000fd5b600067ffffffffffffffff80841115611d7557611d75611d44565b604051601f8501601f19908116603f01168101908282118183101715611d9d57611d9d611d44565b81604052809350858152868686011115611db657600080fd5b858560208301376000602087830101525050509392505050565b600060208284031215611de257600080fd5b813567ffffffffffffffff811115611df957600080fd5b8201601f81018413611e0a57600080fd5b610dec84823560208401611d5a565b60008060408385031215611e2c57600080fd5b611e3583611b87565b915060208301358015158114611e4a57600080fd5b809150509250929050565b60008060008060808587031215611e6b57600080fd5b611e7485611b87565b9350611e8260208601611b87565b925060408501359150606085013567ffffffffffffffff811115611ea557600080fd5b8501601f81018713611eb657600080fd5b611ec587823560208401611d5a565b91505092959194509250565b60008060408385031215611ee457600080fd5b611eed83611b87565b9150611c4760208401611b87565b600181811c90821680611f0f57607f821691505b602082108103611f2f57634e487b7160e01b600052602260045260246000fd5b50919050565b6020808252602d908201527f4552433732313a2063616c6c6572206973206e6f7420746f6b656e206f776e6560408201526c1c881bdc88185c1c1c9bdd9959609a1b606082015260800190565b601f82111561067d57600081815260208120601f850160051c81016020861015611fa95750805b601f850160051c820191505b81811015611fc857828155600101611fb5565b505050505050565b815167ffffffffffffffff811115611fea57611fea611d44565b611ffe81611ff88454611efb565b84611f82565b602080601f831160018114612033576000841561201b5750858301515b600019600386901b1c1916600185901b178555611fc8565b600085815260208120601f198616915b8281101561206257888601518255948401946001909101908401612043565b50858210156120805787850151600019600388901b60f8161c191681555b5050505050600190811b01905550565b6060815260006120a36060830186611b2f565b60208301949094525060400152919050565b60208082526025908201527f4552433732313a207472616e736665722066726f6d20696e636f72726563742060408201526437bbb732b960d91b606082015260800190565b60208082526032908201527f4552433732313a207472616e7366657220746f206e6f6e20455243373231526560408201527131b2b4bb32b91034b6b83632b6b2b73a32b960711b606082015260800190565b7f416363657373436f6e74726f6c3a206163636f756e7420000000000000000000815260008351612184816017850160208801611b0b565b7001034b99036b4b9b9b4b733903937b6329607d1b60179184019182015283516121b5816028840160208801611b0b565b01602801949350505050565b6001600160a01b03858116825284166020820152604081018390526080606082018190526000906121f490830184611b2f565b9695505050505050565b60006020828403121561221057600080fd5b815161190581611ad8565b634e487b7160e01b600052601160045260246000fd5b818103818111156104a9576104a961221b565b808201808211156104a9576104a961221b565b80820281158282048414176104a9576104a961221b565b634e487b7160e01b600052603260045260246000fd5b6000816122935761229361221b565b50600019019056fe241ecf16d79d0f8dbfb92cbc07fe17840425976cf0667f022fe9877caa831b08a2646970667358221220f435befefe09565221a3904888d6a044842bb85b7ff70b957978edfef465904d64736f6c63430008110033",
  "linkReferences": {},
  "deployedLinkReferences": {}
}