{
  "_format": "hh-sol-artifact-1",
  "contractName": "ERC721Template",
  "sourceName": "contracts/templates/ERC721Template.sol",
  "abi": [
    {
      "anonymous": false,
      "inputs": [
        {
          "indexed": true,
          "internalType": "address",
          "name": "owner",
          "type": "address"
        },
        {
          "indexed": true,
          "internalType": "address",
          "name": "approved",
          "type": "address"
        },
        {
          "indexed": true,
          "internalType": "uint256",
          "name": "tokenId",
          "type": "uint256"
        }
      ],
      "name": "Approval",
      "type": "event"
    },
    {
      "anonymous": false,
      "inputs": [
        {
          "indexed": true,
          "internalType": "address",
          "name": "owner",
          "type": "address"
        },
        {
          "indexed": true,
          "internalType": "address",
          "name": "operator",
          "type": "address"
        },
        {
          "indexed": false,
          "internalType": "bool",
          "name": "approved",
          "type": "bool"
        }
      ],
      "name": "ApprovalForAll",
      "type": "event"
    },
    {
      "anonymous": false,
      "inputs": [
        {
          "indexed": true,
          "internalType": "address",
          "name": "previousOwner",
          "type": "address"
        },
        {
          "indexed": true,
          "internalType": "address",
          "name": "newOwner",
          "type": "address"
        }
      ],
      "name": "OwnershipTransferred",
      "type": "event"
    },
    {
      "anonymous": false,
      "inputs": [
        {
          "indexed": false,
          "internalType": "address",
          "name": "account",
          "type": "address"
        }
      ],
      "name": "Paused",
      "type": "event"
    },
    {
      "anonymous": false,
      "inputs": [
        {
          "indexed": true,
          "internalType": "bytes32",
          "name": "role",
          "type": "bytes32"
        },
        {
          "indexed": true,
          "internalType": "bytes32",
          "name": "previousAdminRole",
          "type": "bytes32"
        },
        {
          "indexed": true,
          "internalType": "bytes32",
          "name": "newAdminRole",
          "type": "bytes32"
        }
      ],
      "name": "RoleAdminChanged",
      "type": "event"
    },
    {
      "anonymous": false,
      "inputs": [
        {
          "indexed": true,
          "internalType": "bytes32",
          "name": "role",
          "type": "bytes32"
        },
        {
          "indexed": true,
          "internalType": "address",
          "name": "account",
          "type": "address"
        },
        {
          "indexed": true,
          "internalType": "address",
          "name": "sender",
          "type": "address"
        }
      ],
      "name": "RoleGranted",
      "type": "event"
    },
    {
      "anonymous": false,
      "inputs": [
        {
          "indexed": true,
          "internalType": "bytes32",
          "name": "role",
          "type": "bytes32"
        },
        {
          "indexed": true,
          "internalType": "address",
          "name": "account",
          "type": "address"
        },
        {
          "indexed": true,
          "internalType": "address",
          "name": "sender",
          "type": "address"
        }
      ],
      "name": "RoleRevoked",
      "type": "event"
    },
    {
      "anonymous": false,
      "inputs": [
        {
          "indexed": true,
          "internalType": "address",
          "name": "from",
          "type": "address"
        },
        {
          "indexed": true,
          "internalType": "address",
          "name": "to",
          "type": "address"
        },
        {
          "indexed": true,
          "internalType": "uint256",
          "name": "tokenId",
          "type": "uint256"
        }
      ],
      "name": "Transfer",
      "type": "event"
    },
    {
      "anonymous": false,
      "inputs": [
        {
          "indexed": false,
          "internalType": "address",
          "name": "account",
          "type": "address"
        }
      ],
      "name": "Unpaused",
      "type": "event"
    },
    {
      "inputs": [],
      "name": "DEFAULT_ADMIN_ROLE",
      "outputs": [
        {
          "internalType": "bytes32",
          "name": "",
          "type": "bytes32"
        }
      ],
      "stateMutability": "view",
      "type": "function"
    },
    {
      "inputs": [],
      "name": "MANAGER_ROLE",
      "outputs": [
        {
          "internalType": "bytes32",
          "name": "",
          "type": "bytes32"
        }
      ],
      "stateMutability": "view",
      "type": "function"
    },
    {
      "inputs": [
        {
          "internalType": "address",
          "name": "_manager",
          "type": "address"
        }
      ],
      "name": "addManager",
      "outputs": [],
      "stateMutability": "nonpayable",
      "type": "function"
    },
    {
      "inputs": [
        {
          "internalType": "address",
          "name": "to",
          "type": "address"
        },
        {
          "internalType": "uint256",
          "name": "tokenId",
          "type": "uint256"
        }
      ],
      "name": "approve",
      "outputs": [],
      "stateMutability": "nonpayable",
      "type": "function"
    },
    {
      "inputs": [
        {
          "internalType": "address",
          "name": "owner",
          "type": "address"
        }
      ],
      "name": "balanceOf",
      "outputs": [
        {
          "internalType": "uint256",
          "name": "",
          "type": "uint256"
        }
      ],
      "stateMutability": "view",
      "type": "function"
    },
    {
      "inputs": [
        {
          "internalType": "uint256",
          "name": "tokenId",
          "type": "uint256"
        }
      ],
      "name": "getApproved",
      "outputs": [
        {
          "internalType": "address",
          "name": "",
          "type": "address"
        }
      ],
      "stateMutability": "view",
      "type": "function"
    },
    {
      "inputs": [
        {
          "internalType": "bytes32",
          "name": "role",
          "type": "bytes32"
        }
      ],
      "name": "getRoleAdmin",
      "outputs": [
        {
          "internalType": "bytes32",
          "name": "",
          "type": "bytes32"
        }
      ],
      "stateMutability": "view",
      "type": "function"
    },
    {
      "inputs": [
        {
          "internalType": "bytes32",
          "name": "role",
          "type": "bytes32"
        },
        {
          "internalType": "address",
          "name": "account",
          "type": "address"
        }
      ],
      "name": "grantRole",
      "outputs": [],
      "stateMutability": "nonpayable",
      "type": "function"
    },
    {
      "inputs": [
        {
          "internalType": "bytes32",
          "name": "role",
          "type": "bytes32"
        },
        {
          "internalType": "address",
          "name": "account",
          "type": "address"
        }
      ],
      "name": "hasRole",
      "outputs": [
        {
          "internalType": "bool",
          "name": "",
          "type": "bool"
        }
      ],
      "stateMutability": "view",
      "type": "function"
    },
    {
      "inputs": [
        {
          "internalType": "address",
          "name": "_owner",
          "type": "address"
        },
        {
          "internalType": "string",
          "name": "_name",
          "type": "string"
        },
        {
          "internalType": "string",
          "name": "_symbol",
          "type": "string"
        },
        {
          "internalType": "string",
          "name": "_metadataURI",
          "type": "string"
        }
      ],
      "name": "initialize",
      "outputs": [
        {
          "internalType": "bool",
          "name": "",
          "type": "bool"
        }
      ],
      "stateMutability": "nonpayable",
      "type": "function"
    },
    {
      "inputs": [
        {
          "internalType": "address",
          "name": "owner",
          "type": "address"
        },
        {
          "internalType": "address",
          "name": "operator",
          "type": "address"
        }
      ],
      "name": "isApprovedForAll",
      "outputs": [
        {
          "internalType": "bool",
          "name": "",
          "type": "bool"
        }
      ],
      "stateMutability": "view",
      "type": "function"
    },
    {
      "inputs": [],
      "name": "name",
      "outputs": [
        {
          "internalType": "string",
          "name": "",
          "type": "string"
        }
      ],
      "stateMutability": "view",
      "type": "function"
    },
    {
      "inputs": [],
      "name": "owner",
      "outputs": [
        {
          "internalType": "address",
          "name": "",
          "type": "address"
        }
      ],
      "stateMutability": "view",
      "type": "function"
    },
    {
      "inputs": [
        {
          "internalType": "uint256",
          "name": "tokenId",
          "type": "uint256"
        }
      ],
      "name": "ownerOf",
      "outputs": [
        {
          "internalType": "address",
          "name": "",
          "type": "address"
        }
      ],
      "stateMutability": "view",
      "type": "function"
    },
    {
      "inputs": [],
      "name": "pause",
      "outputs": [],
      "stateMutability": "nonpayable",
      "type": "function"
    },
    {
      "inputs": [],
      "name": "paused",
      "outputs": [
        {
          "internalType": "bool",
          "name": "",
          "type": "bool"
        }
      ],
      "stateMutability": "view",
      "type": "function"
    },
    {
      "inputs": [],
      "name": "price",
      "outputs": [
        {
          "internalType": "uint256",
          "name": "",
          "type": "uint256"
        }
      ],
      "stateMutability": "view",
      "type": "function"
    },
    {
      "inputs": [
        {
          "internalType": "address",
          "name": "_manager",
          "type": "address"
        }
      ],
      "name": "removeManager",
      "outputs": [],
      "stateMutability": "nonpayable",
      "type": "function"
    },
    {
      "inputs": [],
      "name": "renounceOwnership",
      "outputs": [],
      "stateMutability": "nonpayable",
      "type": "function"
    },
    {
      "inputs": [
        {
          "internalType": "bytes32",
          "name": "role",
          "type": "bytes32"
        },
        {
          "internalType": "address",
          "name": "account",
          "type": "address"
        }
      ],
      "name": "renounceRole",
      "outputs": [],
      "stateMutability": "nonpayable",
      "type": "function"
    },
    {
      "inputs": [
        {
          "internalType": "bytes32",
          "name": "role",
          "type": "bytes32"
        },
        {
          "internalType": "address",
          "name": "account",
          "type": "address"
        }
      ],
      "name": "revokeRole",
      "outputs": [],
      "stateMutability": "nonpayable",
      "type": "function"
    },
    {
      "inputs": [
        {
          "internalType": "address",
          "name": "from",
          "type": "address"
        },
        {
          "internalType": "address",
          "name": "to",
          "type": "address"
        },
        {
          "internalType": "uint256",
          "name": "tokenId",
          "type": "uint256"
        }
      ],
      "name": "safeTransferFrom",
      "outputs": [],
      "stateMutability": "nonpayable",
      "type": "function"
    },
    {
      "inputs": [
        {
          "internalType": "address",
          "name": "from",
          "type": "address"
        },
        {
          "internalType": "address",
          "name": "to",
          "type": "address"
        },
        {
          "internalType": "uint256",
          "name": "tokenId",
          "type": "uint256"
        },
        {
          "internalType": "bytes",
          "name": "data",
          "type": "bytes"
        }
      ],
      "name": "safeTransferFrom",
      "outputs": [],
      "stateMutability": "nonpayable",
      "type": "function"
    },
    {
      "inputs": [
        {
          "internalType": "address",
          "name": "operator",
          "type": "address"
        },
        {
          "internalType": "bool",
          "name": "approved",
          "type": "bool"
        }
      ],
      "name": "setApprovalForAll",
      "outputs": [],
      "stateMutability": "nonpayable",
      "type": "function"
    },
    {
      "inputs": [
        {
          "internalType": "uint256",
          "name": "_price",
          "type": "uint256"
        }
      ],
      "name": "setPrice",
      "outputs": [],
      "stateMutability": "nonpayable",
      "type": "function"
    },
    {
      "inputs": [
        {
          "internalType": "bytes4",
          "name": "interfaceId",
          "type": "bytes4"
        }
      ],
      "name": "supportsInterface",
      "outputs": [
        {
          "internalType": "bool",
          "name": "",
          "type": "bool"
        }
      ],
      "stateMutability": "view",
      "type": "function"
    },
    {
      "inputs": [],
      "name": "symbol",
      "outputs": [
        {
          "internalType": "string",
          "name": "",
          "type": "string"
        }
      ],
      "stateMutability": "view",
      "type": "function"
    },
    {
      "inputs": [
        {
          "internalType": "uint256",
          "name": "index",
          "type": "uint256"
        }
      ],
      "name": "tokenByIndex",
      "outputs": [
        {
          "internalType": "uint256",
          "name": "",
          "type": "uint256"
        }
      ],
      "stateMutability": "view",
      "type": "function"
    },
    {
      "inputs": [
        {
          "internalType": "address",
          "name": "owner",
          "type": "address"
        },
        {
          "internalType": "uint256",
          "name": "index",
          "type": "uint256"
        }
      ],
      "name": "tokenOfOwnerByIndex",
      "outputs": [
        {
          "internalType": "uint256",
          "name": "",
          "type": "uint256"
        }
      ],
      "stateMutability": "view",
      "type": "function"
    },
    {
      "inputs": [
        {
          "internalType": "uint256",
          "name": "_tokenId",
          "type": "uint256"
        }
      ],
      "name": "tokenURI",
      "outputs": [
        {
          "internalType": "string",
          "name": "",
          "type": "string"
        }
      ],
      "stateMutability": "view",
      "type": "function"
    },
    {
      "inputs": [],
      "name": "totalSupply",
      "outputs": [
        {
          "internalType": "uint256",
          "name": "",
          "type": "uint256"
        }
      ],
      "stateMutability": "view",
      "type": "function"
    },
    {
      "inputs": [
        {
          "internalType": "address",
          "name": "from",
          "type": "address"
        },
        {
          "internalType": "address",
          "name": "to",
          "type": "address"
        },
        {
          "internalType": "uint256",
          "name": "tokenId",
          "type": "uint256"
        }
      ],
      "name": "transferFrom",
      "outputs": [],
      "stateMutability": "nonpayable",
      "type": "function"
    },
    {
      "inputs": [
        {
          "internalType": "address",
          "name": "newOwner",
          "type": "address"
        }
      ],
      "name": "transferOwnership",
      "outputs": [],
      "stateMutability": "nonpayable",
      "type": "function"
    },
    {
      "inputs": [],
      "name": "unpause",
      "outputs": [],
      "stateMutability": "nonpayable",
      "type": "function"
    },
    {
      "inputs": [
        {
          "internalType": "string",
          "name": "_metadataURI",
          "type": "string"
        }
      ],
      "name": "updateMetadata",
      "outputs": [],
      "stateMutability": "nonpayable",
      "type": "function"
    },
    {
      "inputs": [],
      "name": "withdraw",
      "outputs": [],
      "stateMutability": "nonpayable",
      "type": "function"
    }
  ],
  "bytecode": "0x60806040523480156200001157600080fd5b50604051806040016040528060048152602001634e616d6560e01b8152506040518060400160405280600681526020016514de5b589bdb60d21b81525081600090816200005f91906200019e565b5060016200006e82826200019e565b5050506200008b62000085620000a360201b60201c565b620000a7565b600a805460ff60a01b191690556001600b556200026a565b3390565b600a80546001600160a01b038381166001600160a01b0319831681179093556040519116919082907f8be0079c531659141344cd1fd0a4f28419497f9722a3daafe3b4186f6b6457e090600090a35050565b634e487b7160e01b600052604160045260246000fd5b600181811c908216806200012457607f821691505b6020821081036200014557634e487b7160e01b600052602260045260246000fd5b50919050565b601f8211156200019957600081815260208120601f850160051c81016020861015620001745750805b601f850160051c820191505b81811015620001955782815560010162000180565b5050505b505050565b81516001600160401b03811115620001ba57620001ba620000f9565b620001d281620001cb84546200010f565b846200014b565b602080601f8311600181146200020a5760008415620001f15750858301515b600019600386901b1c1916600185901b17855562000195565b600085815260208120601f198616915b828110156200023b578886015182559484019460019091019084016200021a565b50858210156200025a5787850151600019600388901b60f8161c191681555b5050505050600190811b01905550565b612701806200027a6000396000f3fe608060405234801561001057600080fd5b506004361061021c5760003560e01c806370a0823111610125578063a217fddf116100ad578063c87b56dd1161007c578063c87b56dd1461045f578063d547741f14610472578063e985e9c514610485578063ec87621c146104c1578063f2fde38b146104d657600080fd5b8063a217fddf1461041e578063a22cb46514610426578063ac18de4314610439578063b88d4fde1461044c57600080fd5b8063918b5be1116100f4578063918b5be1146103d457806391b7f5ed146103e757806391d14854146103fa57806395d89b411461040d578063a035b1fe1461041557600080fd5b806370a08231146103a0578063715018a6146103b35780638456cb59146103bb5780638da5cb5b146103c357600080fd5b80632f745c59116101a857806342842e0e1161017757806342842e0e146103425780634f6ccce7146103555780635c975abb146103685780635f1e6f6d1461037a5780636352211e1461038d57600080fd5b80632f745c591461030c57806336568abe1461031f5780633ccfd60b146103325780633f4ba83a1461033a57600080fd5b806318160ddd116101ef57806318160ddd1461029e57806323b872dd146102b0578063248a9ca3146102c35780632d06177a146102e65780632f2ff15d146102f957600080fd5b806301ffc9a71461022157806306fdde0314610249578063081812fc1461025e578063095ea7b314610289575b600080fd5b61023461022f366004611f0d565b6104e9565b60405190151581526020015b60405180910390f35b6102516104fa565b6040516102409190611f7a565b61027161026c366004611f8d565b61058c565b6040516001600160a01b039091168152602001610240565b61029c610297366004611fc2565b6105b3565b005b6008545b604051908152602001610240565b61029c6102be366004611fec565b6106cd565b6102a26102d1366004611f8d565b6000908152600c602052604090206001015490565b61029c6102f4366004612028565b6106fe565b61029c610307366004612043565b610732565b6102a261031a366004611fc2565b610757565b61029c61032d366004612043565b6107ed565b61029c610867565b61029c610891565b61029c610350366004611fec565b6108a1565b6102a2610363366004611f8d565b6108bc565b600a54600160a01b900460ff16610234565b6102346103883660046120b8565b61094f565b61027161039b366004611f8d565b610a05565b6102a26103ae366004612028565b610a65565b61029c610aeb565b61029c610afd565b600a546001600160a01b0316610271565b61029c6103e23660046121ef565b610b0d565b61029c6103f5366004611f8d565b610b31565b610234610408366004612043565b610b4f565b610251610b7a565b6102a260115481565b6102a2600081565b61029c610434366004612238565b610b89565b61029c610447366004612028565b610b94565b61029c61045a366004612274565b610bb7565b61025161046d366004611f8d565b610bef565b61029c610480366004612043565b610d12565b6102346104933660046122f0565b6001600160a01b03918216600090815260056020908152604080832093909416825291909152205460ff1690565b6102a26000805160206126ac83398151915281565b61029c6104e4366004612028565b610d37565b60006104f482610dad565b92915050565b6060600e80546105099061231a565b80601f01602080910402602001604051908101604052809291908181526020018280546105359061231a565b80156105825780601f1061055757610100808354040283529160200191610582565b820191906000526020600020905b81548152906001019060200180831161056557829003601f168201915b5050505050905090565b600061059782610dd2565b506000908152600460205260409020546001600160a01b031690565b60006105be82610a05565b9050806001600160a01b0316836001600160a01b0316036106305760405162461bcd60e51b815260206004820152602160248201527f4552433732313a20617070726f76616c20746f2063757272656e74206f776e656044820152603960f91b60648201526084015b60405180910390fd5b336001600160a01b038216148061064c575061064c8133610493565b6106be5760405162461bcd60e51b815260206004820152603d60248201527f4552433732313a20617070726f76652063616c6c6572206973206e6f7420746f60448201527f6b656e206f776e6572206f7220617070726f76656420666f7220616c6c0000006064820152608401610627565b6106c88383610e31565b505050565b6106d73382610e9f565b6106f35760405162461bcd60e51b815260040161062790612354565b6106c8838383610f1e565b6000805160206126ac8339815191526107168161108f565b61072e6000805160206126ac83398151915283611099565b5050565b6000828152600c602052604090206001015461074d8161108f565b6106c88383611099565b600061076283610a65565b82106107c45760405162461bcd60e51b815260206004820152602b60248201527f455243373231456e756d657261626c653a206f776e657220696e646578206f7560448201526a74206f6620626f756e647360a81b6064820152608401610627565b506001600160a01b03919091166000908152600660209081526040808320938352929052205490565b6001600160a01b038116331461085d5760405162461bcd60e51b815260206004820152602f60248201527f416363657373436f6e74726f6c3a2063616e206f6e6c792072656e6f756e636560448201526e103937b632b9903337b91039b2b63360891b6064820152608401610627565b61072e828261111f565b61086f611186565b601054610885906001600160a01b0316476111df565b61088f6001600b55565b565b6108996112f8565b61088f611352565b6106c883838360405180602001604052806000815250610bb7565b60006108c760085490565b821061092a5760405162461bcd60e51b815260206004820152602c60248201527f455243373231456e756d657261626c653a20676c6f62616c20696e646578206f60448201526b7574206f6620626f756e647360a01b6064820152608401610627565b6008828154811061093d5761093d6123a1565b90600052602060002001549050919050565b60006109f98888888080601f01602080910402602001604051908101604052809392919081815260200183838082843760009201919091525050604080516020601f8c018190048102820181019092528a815292508a915089908190840183828082843760009201919091525050604080516020601f8b0181900481028201810190925289815292508991508890819084018382808284376000920191909152506113a792505050565b98975050505050505050565b6000818152600260205260408120546001600160a01b0316806104f45760405162461bcd60e51b8152602060048201526018602482015277115490cdcc8c4e881a5b9d985b1a59081d1bdad95b88125160421b6044820152606401610627565b60006001600160a01b038216610acf5760405162461bcd60e51b815260206004820152602960248201527f4552433732313a2061646472657373207a65726f206973206e6f7420612076616044820152683634b21037bbb732b960b91b6064820152608401610627565b506001600160a01b031660009081526003602052604090205490565b610af36112f8565b61088f60006113f1565b610b056112f8565b61088f611443565b6000805160206126ac833981519152610b258161108f565b600d6106c88382612405565b6000805160206126ac833981519152610b498161108f565b50601155565b6000918252600c602090815260408084206001600160a01b0393909316845291905290205460ff1690565b6060600f80546105099061231a565b61072e338383611486565b610b9c6112f8565b610bb46000805160206126ac8339815191528261111f565b50565b610bc13383610e9f565b610bdd5760405162461bcd60e51b815260040161062790612354565b610be984848484611554565b50505050565b6000818152600260205260409020546060906001600160a01b0316610c565760405162461bcd60e51b815260206004820152601f60248201527f55524920717565727920666f72206e6f6e6578697374656e7420746f6b656e006044820152606401610627565b6000600d8054610c659061231a565b905011610c8157604051806020016040528060008152506104f4565b600d8054610c8e9061231a565b80601f0160208091040260200160405190810160405280929190818152602001828054610cba9061231a565b8015610d075780601f10610cdc57610100808354040283529160200191610d07565b820191906000526020600020905b815481529060010190602001808311610cea57829003601f168201915b505050505092915050565b6000828152600c6020526040902060010154610d2d8161108f565b6106c8838361111f565b610d3f6112f8565b6001600160a01b038116610da45760405162461bcd60e51b815260206004820152602660248201527f4f776e61626c653a206e6577206f776e657220697320746865207a65726f206160448201526564647265737360d01b6064820152608401610627565b610bb4816113f1565b60006001600160e01b03198216637965db0b60e01b14806104f457506104f482611587565b6000818152600260205260409020546001600160a01b0316610bb45760405162461bcd60e51b8152602060048201526018602482015277115490cdcc8c4e881a5b9d985b1a59081d1bdad95b88125160421b6044820152606401610627565b600081815260046020526040902080546001600160a01b0319166001600160a01b0384169081179091558190610e6682610a05565b6001600160a01b03167f8c5be1e5ebec7d5bd14f71427d1e84f3dd0314c0f7b2291e5b200ac8c7c3b92560405160405180910390a45050565b600080610eab83610a05565b9050806001600160a01b0316846001600160a01b03161480610ef257506001600160a01b0380821660009081526005602090815260408083209388168352929052205460ff165b80610f165750836001600160a01b0316610f0b8461058c565b6001600160a01b0316145b949350505050565b826001600160a01b0316610f3182610a05565b6001600160a01b031614610f575760405162461bcd60e51b8152600401610627906124c5565b6001600160a01b038216610fb95760405162461bcd60e51b8152602060048201526024808201527f4552433732313a207472616e7366657220746f20746865207a65726f206164646044820152637265737360e01b6064820152608401610627565b610fc683838360016115ac565b826001600160a01b0316610fd982610a05565b6001600160a01b031614610fff5760405162461bcd60e51b8152600401610627906124c5565b600081815260046020908152604080832080546001600160a01b03199081169091556001600160a01b0387811680865260038552838620805460001901905590871680865283862080546001019055868652600290945282852080549092168417909155905184937fddf252ad1be2c89b69c2b068fc378daa952ba7f163c4a11628f55a4df523b3ef91a4505050565b610bb481336115c0565b6110a38282610b4f565b61072e576000828152600c602090815260408083206001600160a01b03851684529091529020805460ff191660011790556110db3390565b6001600160a01b0316816001600160a01b0316837f2f8788117e7eff1d82e926ec794901d17c78024a50270940304540a733656f0d60405160405180910390a45050565b6111298282610b4f565b1561072e576000828152600c602090815260408083206001600160a01b0385168085529252808320805460ff1916905551339285917ff6391f5c32d9c69d2a47ea670b442974b53935d1edc7fd64eb21e047a839171b9190a45050565b6002600b54036111d85760405162461bcd60e51b815260206004820152601f60248201527f5265656e7472616e637947756172643a207265656e7472616e742063616c6c006044820152606401610627565b6002600b55565b8047101561122f5760405162461bcd60e51b815260206004820152601d60248201527f416464726573733a20696e73756666696369656e742062616c616e63650000006044820152606401610627565b6000826001600160a01b03168260405160006040518083038185875af1925050503d806000811461127c576040519150601f19603f3d011682016040523d82523d6000602084013e611281565b606091505b50509050806106c85760405162461bcd60e51b815260206004820152603a60248201527f416464726573733a20756e61626c6520746f2073656e642076616c75652c207260448201527f6563697069656e74206d617920686176652072657665727465640000000000006064820152608401610627565b600a546001600160a01b0316331461088f5760405162461bcd60e51b815260206004820181905260248201527f4f776e61626c653a2063616c6c6572206973206e6f7420746865206f776e65726044820152606401610627565b61135a611619565b600a805460ff60a01b191690557f5db9ee0a495bf2e6ff9c91a7834c1ba4fdd244a5e8aa4e537bd38aeae4b073aa335b6040516001600160a01b03909116815260200160405180910390a1565b6000600e6113b58582612405565b50600f6113c28482612405565b50600d6113cf8382612405565b506113db600033611099565b6113e6856001611669565b506001949350505050565b600a80546001600160a01b038381166001600160a01b0319831681179093556040519116919082907f8be0079c531659141344cd1fd0a4f28419497f9722a3daafe3b4186f6b6457e090600090a35050565b61144b611683565b600a805460ff60a01b1916600160a01b1790557f62e78cea01bee320cd4e420270b5ea74000d11b0c9f74754ebdbfc544b05a25861138a3390565b816001600160a01b0316836001600160a01b0316036114e75760405162461bcd60e51b815260206004820152601960248201527f4552433732313a20617070726f766520746f2063616c6c6572000000000000006044820152606401610627565b6001600160a01b03838116600081815260056020908152604080832094871680845294825291829020805460ff191686151590811790915591519182527f17307eab39ab6107e8899845ad3d59bd9653f200f220920489ca2b5937696c31910160405180910390a3505050565b61155f848484610f1e565b61156b848484846116d0565b610be95760405162461bcd60e51b81526004016106279061250a565b60006001600160e01b0319821663780e9d6360e01b14806104f457506104f4826117ce565b6115b4611683565b610be98484848461181e565b6115ca8282610b4f565b61072e576115d78161195e565b6115e2836020611970565b6040516020016115f392919061255c565b60408051601f198184030181529082905262461bcd60e51b825261062791600401611f7a565b600a54600160a01b900460ff1661088f5760405162461bcd60e51b815260206004820152601460248201527314185d5cd8589b194e881b9bdd081c185d5cd95960621b6044820152606401610627565b61072e828260405180602001604052806000815250611b13565b600a54600160a01b900460ff161561088f5760405162461bcd60e51b815260206004820152601060248201526f14185d5cd8589b194e881c185d5cd95960821b6044820152606401610627565b60006001600160a01b0384163b156117c657604051630a85bd0160e11b81526001600160a01b0385169063150b7a02906117149033908990889088906004016125d1565b6020604051808303816000875af192505050801561174f575060408051601f3d908101601f1916820190925261174c9181019061260e565b60015b6117ac573d80801561177d576040519150601f19603f3d011682016040523d82523d6000602084013e611782565b606091505b5080516000036117a45760405162461bcd60e51b81526004016106279061250a565b805181602001fd5b6001600160e01b031916630a85bd0160e11b149050610f16565b506001610f16565b60006001600160e01b031982166380ac58cd60e01b14806117ff57506001600160e01b03198216635b5e139f60e01b145b806104f457506301ffc9a760e01b6001600160e01b03198316146104f4565b61182a84848484611b46565b60018111156118995760405162461bcd60e51b815260206004820152603560248201527f455243373231456e756d657261626c653a20636f6e7365637574697665207472604482015274185b9cd9995c9cc81b9bdd081cdd5c1c1bdc9d1959605a1b6064820152608401610627565b816001600160a01b0385166118f5576118f081600880546000838152600960205260408120829055600182018355919091527ff3f7a9fe364faab93b216da50a3214154f22a0a2b415b23a84c8169e8b636ee30155565b611918565b836001600160a01b0316856001600160a01b031614611918576119188582611bce565b6001600160a01b0384166119345761192f81611c6b565b611957565b846001600160a01b0316846001600160a01b031614611957576119578482611d1a565b5050505050565b60606104f46001600160a01b03831660145b6060600061197f836002612641565b61198a906002612658565b67ffffffffffffffff8111156119a2576119a2612163565b6040519080825280601f01601f1916602001820160405280156119cc576020820181803683370190505b509050600360fc1b816000815181106119e7576119e76123a1565b60200101906001600160f81b031916908160001a905350600f60fb1b81600181518110611a1657611a166123a1565b60200101906001600160f81b031916908160001a9053506000611a3a846002612641565b611a45906001612658565b90505b6001811115611abd576f181899199a1a9b1b9c1cb0b131b232b360811b85600f1660108110611a7957611a796123a1565b1a60f81b828281518110611a8f57611a8f6123a1565b60200101906001600160f81b031916908160001a90535060049490941c93611ab68161266b565b9050611a48565b508315611b0c5760405162461bcd60e51b815260206004820181905260248201527f537472696e67733a20686578206c656e67746820696e73756666696369656e746044820152606401610627565b9392505050565b611b1d8383611d5e565b611b2a60008484846116d0565b6106c85760405162461bcd60e51b81526004016106279061250a565b6001811115610be9576001600160a01b03841615611b8c576001600160a01b03841660009081526003602052604081208054839290611b86908490612682565b90915550505b6001600160a01b03831615610be9576001600160a01b03831660009081526003602052604081208054839290611bc3908490612658565b909155505050505050565b60006001611bdb84610a65565b611be59190612682565b600083815260076020526040902054909150808214611c38576001600160a01b03841660009081526006602090815260408083208584528252808320548484528184208190558352600790915290208190555b5060009182526007602090815260408084208490556001600160a01b039094168352600681528383209183525290812055565b600854600090611c7d90600190612682565b60008381526009602052604081205460088054939450909284908110611ca557611ca56123a1565b906000526020600020015490508060088381548110611cc657611cc66123a1565b6000918252602080832090910192909255828152600990915260408082208490558582528120556008805480611cfe57611cfe612695565b6001900381819060005260206000200160009055905550505050565b6000611d2583610a65565b6001600160a01b039093166000908152600660209081526040808320868452825280832085905593825260079052919091209190915550565b6001600160a01b038216611db45760405162461bcd60e51b815260206004820181905260248201527f4552433732313a206d696e7420746f20746865207a65726f20616464726573736044820152606401610627565b6000818152600260205260409020546001600160a01b031615611e195760405162461bcd60e51b815260206004820152601c60248201527f4552433732313a20746f6b656e20616c7265616479206d696e746564000000006044820152606401610627565b611e276000838360016115ac565b6000818152600260205260409020546001600160a01b031615611e8c5760405162461bcd60e51b815260206004820152601c60248201527f4552433732313a20746f6b656e20616c7265616479206d696e746564000000006044820152606401610627565b6001600160a01b038216600081815260036020908152604080832080546001019055848352600290915280822080546001600160a01b0319168417905551839291907fddf252ad1be2c89b69c2b068fc378daa952ba7f163c4a11628f55a4df523b3ef908290a45050565b6001600160e01b031981168114610bb457600080fd5b600060208284031215611f1f57600080fd5b8135611b0c81611ef7565b60005b83811015611f45578181015183820152602001611f2d565b50506000910152565b60008151808452611f66816020860160208601611f2a565b601f01601f19169290920160200192915050565b602081526000611b0c6020830184611f4e565b600060208284031215611f9f57600080fd5b5035919050565b80356001600160a01b0381168114611fbd57600080fd5b919050565b60008060408385031215611fd557600080fd5b611fde83611fa6565b946020939093013593505050565b60008060006060848603121561200157600080fd5b61200a84611fa6565b925061201860208501611fa6565b9150604084013590509250925092565b60006020828403121561203a57600080fd5b611b0c82611fa6565b6000806040838503121561205657600080fd5b8235915061206660208401611fa6565b90509250929050565b60008083601f84011261208157600080fd5b50813567ffffffffffffffff81111561209957600080fd5b6020830191508360208285010111156120b157600080fd5b9250929050565b60008060008060008060006080888a0312156120d357600080fd5b6120dc88611fa6565b9650602088013567ffffffffffffffff808211156120f957600080fd5b6121058b838c0161206f565b909850965060408a013591508082111561211e57600080fd5b61212a8b838c0161206f565b909650945060608a013591508082111561214357600080fd5b506121508a828b0161206f565b989b979a50959850939692959293505050565b634e487b7160e01b600052604160045260246000fd5b600067ffffffffffffffff8084111561219457612194612163565b604051601f8501601f19908116603f011681019082821181831017156121bc576121bc612163565b816040528093508581528686860111156121d557600080fd5b858560208301376000602087830101525050509392505050565b60006020828403121561220157600080fd5b813567ffffffffffffffff81111561221857600080fd5b8201601f8101841361222957600080fd5b610f1684823560208401612179565b6000806040838503121561224b57600080fd5b61225483611fa6565b91506020830135801515811461226957600080fd5b809150509250929050565b6000806000806080858703121561228a57600080fd5b61229385611fa6565b93506122a160208601611fa6565b925060408501359150606085013567ffffffffffffffff8111156122c457600080fd5b8501601f810187136122d557600080fd5b6122e487823560208401612179565b91505092959194509250565b6000806040838503121561230357600080fd5b61230c83611fa6565b915061206660208401611fa6565b600181811c9082168061232e57607f821691505b60208210810361234e57634e487b7160e01b600052602260045260246000fd5b50919050565b6020808252602d908201527f4552433732313a2063616c6c6572206973206e6f7420746f6b656e206f776e6560408201526c1c881bdc88185c1c1c9bdd9959609a1b606082015260800190565b634e487b7160e01b600052603260045260246000fd5b601f8211156106c857600081815260208120601f850160051c810160208610156123de5750805b601f850160051c820191505b818110156123fd578281556001016123ea565b505050505050565b815167ffffffffffffffff81111561241f5761241f612163565b6124338161242d845461231a565b846123b7565b602080601f83116001811461246857600084156124505750858301515b600019600386901b1c1916600185901b1785556123fd565b600085815260208120601f198616915b8281101561249757888601518255948401946001909101908401612478565b50858210156124b55787850151600019600388901b60f8161c191681555b5050505050600190811b01905550565b60208082526025908201527f4552433732313a207472616e736665722066726f6d20696e636f72726563742060408201526437bbb732b960d91b606082015260800190565b60208082526032908201527f4552433732313a207472616e7366657220746f206e6f6e20455243373231526560408201527131b2b4bb32b91034b6b83632b6b2b73a32b960711b606082015260800190565b7f416363657373436f6e74726f6c3a206163636f756e7420000000000000000000815260008351612594816017850160208801611f2a565b7001034b99036b4b9b9b4b733903937b6329607d1b60179184019182015283516125c5816028840160208801611f2a565b01602801949350505050565b6001600160a01b038581168252841660208201526040810183905260806060820181905260009061260490830184611f4e565b9695505050505050565b60006020828403121561262057600080fd5b8151611b0c81611ef7565b634e487b7160e01b600052601160045260246000fd5b80820281158282048414176104f4576104f461262b565b808201808211156104f4576104f461262b565b60008161267a5761267a61262b565b506000190190565b818103818111156104f4576104f461262b565b634e487b7160e01b600052603160045260246000fdfe241ecf16d79d0f8dbfb92cbc07fe17840425976cf0667f022fe9877caa831b08a264697066735822122034f4de53e87bf319964b079486729d0b108994c9a2fc7cc5250743e0ed4c8a7a64736f6c63430008110033",
  "linkReferences": {},
  "deployedLinkReferences": {}
}