{
  "_format": "hh-sol-artifact-1",
  "contractName": "FairSwap",
  "sourceName": "contracts/fairswap/FairSwap.sol",
  "abi": [
    {
      "inputs": [
        {
          "internalType": "bytes32",
          "name": "_sessionId",
          "type": "bytes32"
        }
      ],
      "name": "refund",
      "outputs": [],
      "stateMutability": "nonpayable",
      "type": "function"
    }
  ],
  "bytecode": "0x6080806040523461001657610228908161001c8239f35b600080fdfe60406080815260048036101561001457600080fd5b600091823560e01c637249fbb61461002b57600080fd5b3461012c57602080600319360112610128578235808552848252600983862001544211156101245760ff8386205416600581101561011157859291906002036100a6578083528282528383206001810154600b90910154610094916001600160a01b0316610130565b82525282209060ff1982541617905580f35b8091925284825260ff838620541660058110156101115790600386939210156100d2575b505050505080f35b8083528282528383208054600b909101546100f89160081c6001600160a01b0316610130565b82525282209060ff1982541617905538808281806100ca565b634e487b7160e01b865260218552602486fd5b8480fd5b8380fd5b8280fd5b600080808094819460018060a01b03165af1903d156101ec5767ffffffffffffffff903d8281116101d85760405192601f8201601f19908116603f01168401908111848210176101c457604052825260203d92013e5b1561018d57565b60405162461bcd60e51b815260206004820152600f60248201526e151c985b9cd9995c8819985a5b1959608a1b6044820152606490fd5b634e487b7160e01b83526041600452602483fd5b634e487b7160e01b82526041600452602482fd5b5061018656fea26469706673582212200efbfb89a576b3df05dc4b9a8cbc3667ba9370668a1caac28a01070911c0476064736f6c63430008110033",
  "linkReferences": {},
  "deployedLinkReferences": {}
}