{
  "_format": "hh-sol-artifact-1",
  "contractName": "Marketplace",
  "sourceName": "contracts/marketplace/Marketplace.sol",
  "abi": [
    {
      "anonymous": false,
      "inputs": [
        {
          "indexed": true,
          "internalType": "address",
          "name": "sender",
          "type": "address"
        },
        {
          "indexed": true,
          "internalType": "address",
          "name": "receiver",
          "type": "address"
        },
        {
          "indexed": true,
          "internalType": "address",
          "name": "nftAddress",
          "type": "address"
        },
        {
          "indexed": false,
          "internalType": "address",
          "name": "algorithm",
          "type": "address"
        }
      ],
      "name": "ComputationVerified",
      "type": "event"
    },
    {
      "anonymous": false,
      "inputs": [
        {
          "indexed": true,
          "internalType": "address",
          "name": "nftAddress",
          "type": "address"
        },
        {
          "indexed": true,
          "internalType": "address",
          "name": "algorithm",
          "type": "address"
        },
        {
          "indexed": true,
          "internalType": "address",
          "name": "sender",
          "type": "address"
        },
        {
          "indexed": false,
          "internalType": "uint256",
          "name": "price",
          "type": "uint256"
        }
      ],
      "name": "OfferCreated",
      "type": "event"
    },
    {
      "anonymous": false,
      "inputs": [],
      "name": "OfferRemoved",
      "type": "event"
    },
    {
      "anonymous": false,
      "inputs": [],
      "name": "OfferUpdated",
      "type": "event"
    },
    {
      "anonymous": false,
      "inputs": [
        {
          "indexed": false,
          "internalType": "bytes32",
          "name": "sessionId",
          "type": "bytes32"
        }
      ],
      "name": "OrderAccepted",
      "type": "event"
    },
    {
      "anonymous": false,
      "inputs": [
        {
          "indexed": false,
          "internalType": "bytes32",
          "name": "sessionId",
          "type": "bytes32"
        }
      ],
      "name": "OrderCancelled",
      "type": "event"
    },
    {
      "anonymous": false,
      "inputs": [
        {
          "indexed": false,
          "internalType": "enum FairSwap.Stage",
          "name": "phase",
          "type": "uint8"
        },
        {
          "indexed": true,
          "internalType": "address",
          "name": "sender",
          "type": "address"
        },
        {
          "indexed": true,
          "internalType": "address",
          "name": "receiver",
          "type": "address"
        },
        {
          "indexed": true,
          "internalType": "address",
          "name": "nftAddress",
          "type": "address"
        },
        {
          "indexed": false,
          "internalType": "address",
          "name": "algorithm",
          "type": "address"
        },
        {
          "indexed": false,
          "internalType": "address",
          "name": "verifier",
          "type": "address"
        },
        {
          "indexed": false,
          "internalType": "string",
          "name": "pkAddress",
          "type": "string"
        },
        {
          "indexed": false,
          "internalType": "uint256",
          "name": "timeout",
          "type": "uint256"
        },
        {
          "indexed": false,
          "internalType": "uint256",
          "name": "timeoutInterval",
          "type": "uint256"
        },
        {
          "indexed": false,
          "internalType": "uint256",
          "name": "price",
          "type": "uint256"
        },
        {
          "indexed": false,
          "internalType": "bytes32",
          "name": "sessionId",
          "type": "bytes32"
        }
      ],
      "name": "OrderCreated",
      "type": "event"
    },
    {
      "anonymous": false,
      "inputs": [
        {
          "indexed": false,
          "internalType": "bytes32",
          "name": "sessionId",
          "type": "bytes32"
        }
      ],
      "name": "OrderFulfilled",
      "type": "event"
    },
    {
      "anonymous": false,
      "inputs": [
        {
          "indexed": false,
          "internalType": "uint256",
          "name": "depth",
          "type": "uint256"
        },
        {
          "indexed": false,
          "internalType": "uint256",
          "name": "length",
          "type": "uint256"
        },
        {
          "indexed": false,
          "internalType": "uint256",
          "name": "n",
          "type": "uint256"
        },
        {
          "indexed": false,
          "internalType": "bytes32",
          "name": "keyCommit",
          "type": "bytes32"
        },
        {
          "indexed": false,
          "internalType": "bytes32",
          "name": "ciphertextRoot",
          "type": "bytes32"
        },
        {
          "indexed": false,
          "internalType": "bytes32",
          "name": "fileRoot",
          "type": "bytes32"
        },
        {
          "indexed": false,
          "internalType": "bytes32",
          "name": "sessionId",
          "type": "bytes32"
        }
      ],
      "name": "OrderInitialized",
      "type": "event"
    },
    {
      "anonymous": false,
      "inputs": [
        {
          "indexed": false,
          "internalType": "bytes32",
          "name": "key",
          "type": "bytes32"
        },
        {
          "indexed": false,
          "internalType": "bytes32",
          "name": "sessionId",
          "type": "bytes32"
        }
      ],
      "name": "OrderRevealed",
      "type": "event"
    },
    {
      "inputs": [
        {
          "internalType": "bytes32",
          "name": "_sessionId",
          "type": "bytes32"
        }
      ],
      "name": "buy",
      "outputs": [],
      "stateMutability": "payable",
      "type": "function"
    },
    {
      "inputs": [
        {
          "internalType": "bytes32",
          "name": "_sessionId",
          "type": "bytes32"
        },
        {
          "internalType": "uint256",
          "name": "_indexOut",
          "type": "uint256"
        },
        {
          "internalType": "uint256",
          "name": "_indexIn",
          "type": "uint256"
        },
        {
          "internalType": "bytes32",
          "name": "_Zout",
          "type": "bytes32"
        },
        {
          "internalType": "bytes32[]",
          "name": "_Zin1",
          "type": "bytes32[]"
        },
        {
          "internalType": "bytes32[]",
          "name": "_Zin2",
          "type": "bytes32[]"
        },
        {
          "internalType": "bytes32[]",
          "name": "_proofZout",
          "type": "bytes32[]"
        },
        {
          "internalType": "bytes32[]",
          "name": "_proofZin",
          "type": "bytes32[]"
        }
      ],
      "name": "complainAboutLeaf",
      "outputs": [],
      "stateMutability": "nonpayable",
      "type": "function"
    },
    {
      "inputs": [
        {
          "internalType": "bytes32",
          "name": "_sessionId",
          "type": "bytes32"
        },
        {
          "internalType": "uint256",
          "name": "_indexOut",
          "type": "uint256"
        },
        {
          "internalType": "uint256",
          "name": "_indexIn",
          "type": "uint256"
        },
        {
          "internalType": "bytes32",
          "name": "_Zout",
          "type": "bytes32"
        },
        {
          "internalType": "bytes32",
          "name": "_Zin1",
          "type": "bytes32"
        },
        {
          "internalType": "bytes32",
          "name": "_Zin2",
          "type": "bytes32"
        },
        {
          "internalType": "bytes32[]",
          "name": "_proofZout",
          "type": "bytes32[]"
        },
        {
          "internalType": "bytes32[]",
          "name": "_proofZin",
          "type": "bytes32[]"
        }
      ],
      "name": "complainAboutNode",
      "outputs": [],
      "stateMutability": "nonpayable",
      "type": "function"
    },
    {
      "inputs": [
        {
          "internalType": "bytes32",
          "name": "_sessionId",
          "type": "bytes32"
        },
        {
          "internalType": "bytes32",
          "name": "_Zm",
          "type": "bytes32"
        },
        {
          "internalType": "bytes32[]",
          "name": "_proofZm",
          "type": "bytes32[]"
        }
      ],
      "name": "complainAboutRoot",
      "outputs": [],
      "stateMutability": "nonpayable",
      "type": "function"
    },
    {
      "inputs": [
        {
          "internalType": "address",
          "name": "_nftAddress",
          "type": "address"
        },
        {
          "internalType": "address[]",
          "name": "_algorithms",
          "type": "address[]"
        },
        {
          "internalType": "uint256[]",
          "name": "_prices",
          "type": "uint256[]"
        }
      ],
      "name": "createOffer",
      "outputs": [],
      "stateMutability": "nonpayable",
      "type": "function"
    },
    {
      "inputs": [
        {
          "internalType": "address",
          "name": "_nftAddress",
          "type": "address"
        },
        {
          "internalType": "address",
          "name": "_verifier",
          "type": "address"
        },
        {
          "internalType": "address",
          "name": "_algorithm",
          "type": "address"
        },
        {
          "internalType": "string",
          "name": "_pkAddress",
          "type": "string"
        }
      ],
      "name": "createOrder",
      "outputs": [],
      "stateMutability": "nonpayable",
      "type": "function"
    },
    {
      "inputs": [
        {
          "internalType": "bytes32",
          "name": "_sessionId",
          "type": "bytes32"
        },
        {
          "internalType": "uint256",
          "name": "_depth",
          "type": "uint256"
        },
        {
          "internalType": "uint256",
          "name": "_length",
          "type": "uint256"
        },
        {
          "internalType": "uint256",
          "name": "_n",
          "type": "uint256"
        },
        {
          "internalType": "bytes32",
          "name": "_keyCommit",
          "type": "bytes32"
        },
        {
          "internalType": "bytes32",
          "name": "_ciphertextRoot",
          "type": "bytes32"
        },
        {
          "internalType": "bytes32",
          "name": "_fileRoot",
          "type": "bytes32"
        },
        {
          "internalType": "uint256[]",
          "name": "_input",
          "type": "uint256[]"
        },
        {
          "components": [
            {
              "components": [
                {
                  "internalType": "uint256",
                  "name": "X",
                  "type": "uint256"
                },
                {
                  "internalType": "uint256",
                  "name": "Y",
                  "type": "uint256"
                }
              ],
              "internalType": "struct Marketplace.G1Point",
              "name": "a",
              "type": "tuple"
            },
            {
              "components": [
                {
                  "internalType": "uint256[2]",
                  "name": "X",
                  "type": "uint256[2]"
                },
                {
                  "internalType": "uint256[2]",
                  "name": "Y",
                  "type": "uint256[2]"
                }
              ],
              "internalType": "struct Marketplace.G2Point",
              "name": "b",
              "type": "tuple"
            },
            {
              "components": [
                {
                  "internalType": "uint256",
                  "name": "X",
                  "type": "uint256"
                },
                {
                  "internalType": "uint256",
                  "name": "Y",
                  "type": "uint256"
                }
              ],
              "internalType": "struct Marketplace.G1Point",
              "name": "c",
              "type": "tuple"
            }
          ],
          "internalType": "struct Marketplace.Proof",
          "name": "_proof",
          "type": "tuple"
        }
      ],
      "name": "proofComputation",
      "outputs": [],
      "stateMutability": "nonpayable",
      "type": "function"
    },
    {
      "inputs": [
        {
          "internalType": "bytes32",
          "name": "_sessionId",
          "type": "bytes32"
        }
      ],
      "name": "refund",
      "outputs": [],
      "stateMutability": "nonpayable",
      "type": "function"
    },
    {
      "inputs": [
        {
          "internalType": "bytes32",
          "name": "_sessionId",
          "type": "bytes32"
        },
        {
          "internalType": "bytes32",
          "name": "_key",
          "type": "bytes32"
        }
      ],
      "name": "reveal",
      "outputs": [],
      "stateMutability": "nonpayable",
      "type": "function"
    },
    {
      "stateMutability": "payable",
      "type": "receive"
    }
  ],
  "bytecode": "0x6080806040523461001b5760016000556120eb90816100218239f35b600080fdfe6080604052600436101561005e575b361561001957600080fd5b60405162461bcd60e51b815260206004820152601d60248201527f4f6e6c7920696620636f6d7075746174696f6e732061726520736f6c640000006044820152606490fd5b60003560e01c806323c9440114611836578063303fd0bb1461161f5780637249fbb6146115335780639c9a10611461148d578063c0d9e40d14610db5578063d5f4645814610a5d578063fc334e8c1461093c578063fed577121461066b5763ff55ce220361000e5734610567576102003660031901126105675760e4356001600160401b038111610567576100f790369060040161193e565b906101003661010319011261056757600260005414610626576002600055600435600052600160205260406000206040519061013282611984565b805461014160ff821684611b1a565b60081c6001600160a01b03908116602084015260018201548116604080850191909152600283015482166060850152600383015482166080850152600483015490911660a084015251600582015460009061019b81611b26565b808452906001811690811561060257506001146105b8575b50906101c481600f949303826119bb565b60c0840152600681015460e0840152600781015461010084015260088101546101208401526009810154610140840152600a810154610160840152600b810154610180840152600c8101546101a0840152600d8101546101c0840152600e8101546101e0840152015461020082015260208101516001600160a01b0316330361058257600092836102b2926102c08295604051958691602083019663c941764760e01b885261010480356024860152610120610124803560448801526101449260408460648a0137604061018460a48a01376101c43560e48901526101e43590880152860152840191611b90565b03601f1981018652856119bb565b60a001519251926001600160a01b03165af16102da611a0f565b901561056757806020806102f393518301019101611a9a565b1561056757600435600090815260016020526040902054600881901c6001600160a01b03169060ff16600581101561056c57610567576004356000526001602052600960406000200154421015610567573303610567576040600020602435600682015560443560078201556064356008820155608435600c82015560a435600d82015560c435600e9091015561038b600435611bb4565b60043560005260016020526040600020604051906103a882611984565b80546103b760ff821684611b1a565b60081c6001600160a01b03908116602084015260018201548116604080850191909152600283015482166060850152600383015482166080850152600483015490911660a084015251600582015460009061041181611b26565b80845290600181169081156105455750600114610504575b7ff59e4e348ca114f954d760e7bbcb1af2627f94c03e23dca748993ec5b8c8e2ec60e086868661045b818803826119bb565b60c083015260068101549182848201526007820154806101008301526008830154806101208401526009840154610140840152600a840154610160840152600b840154610180840152600c84015491826101a0850152600d85015493846101c0820152610200600f600e88015497886101e08501520154910152604051958652602086015260408501526060840152608083015260a082015260043560c0820152a16001600055005b9050600583016000526020600020906000915b81831061052b575050810160200181610429565b600181602092949394548385880101520191019190610517565b60ff191660208086019190915291151560051b84019091019150829050610429565b600080fd5b634e487b7160e01b600052602160045260246000fd5b60405162461bcd60e51b815260206004820152600e60248201526d2737ba103a34329039b2b73232b960911b6044820152606490fd5b92919050600582016000526020600020926000905b8082106105e657509192509081016020016101c46101b3565b91929360018160209254838588010152019101909392916105cd565b60ff191660208086019190915291151560051b840190910191506101c490506101b3565b60405162461bcd60e51b815260206004820152601f60248201527f5265656e7472616e637947756172643a207265656e7472616e742063616c6c006044820152606490fd5b346105675760603660031901126105675761068461196e565b6024906001600160401b03908235828111610567576106a790369060040161193e565b936044938435908111610567576106c290369060040161193e565b959092868203610905576040516301ffc9a760e01b81526380ac58cd60e01b60048201526001600160a01b0395861692602092909183818781885afa908115610851576000916108d8575b50156108a05760005b82811061071f57005b61072a818b89611ac1565b351561085d5761073b818b89611ac1565b35856000526002855260406000208961075d610758858888611ac1565b611ae7565b166000528552604060002055610777610758828585611ac1565b6040516331a9108f60e11b8152600160048201529190858389818a5afa928315610851576107f19388888f868f918f966000966107f6575b5082916107df917f6167d627da72a913fb477055ee686dfefb48ee3623474eb852da6bfcce0fb998969798611ac1565b359560405196875216951693a4611ab2565b610716565b7f6167d627da72a913fb477055ee686dfefb48ee3623474eb852da6bfcce0fb998959650916107df9161083f8594873d891161084a575b61083781836119bb565b810190611afb565b9796509150916107af565b503d61082d565b6040513d6000823e3d90fd5b60405162461bcd60e51b8152600481018590526017818801527f50726963652063616e2774206265206e65676174697665000000000000000000818b0152606490fd5b60405162461bcd60e51b815260048101849052601281870152714e6f7420612076616c69642045524337323160701b818a0152606490fd5b6108f89150843d86116108fe575b6108f081836119bb565b810190611a9a565b8a61070d565b503d6108e6565b60405162461bcd60e51b8152602060048201526011818501527013195b99dd1a1cc81b9bdd08195c5d585b607a1b81880152606490fd5b346105675760403660031901126105675760043560008181526001602090815260409091205460243590600881901c6001600160a01b03169060ff16600581101561056c5760020361056757836000526001835260096040600020015442101561056757330361056757600c60406000200154604051838101838152848252604082018281106001600160401b03821117610a47578592816109e8600094826040528351928391611b60565b8101039060025afa15610851576000510361056757826040927f2cf28bf9600f9917825b89ffa0b45d1c8b7e9d290a9aa382d2fad867bcd53644946000526001815282600f856000200155610a3c82611bb4565b8351928352820152a1005b634e487b7160e01b600052604160045260246000fd5b3461056757610100366003190112610567576001600160401b0360843581811161056757610a8f90369060040161193e565b9060a43583811161056757610aa890369060040161193e565b91909260c43585811161056757610ac390369060040161193e565b9560e43590811161056757610adc90369060040161193e565b919096600435600052600160205260018060a01b036001604060002001541660ff60406000205416600581101561056c57600303610567576004356000526001602052600960406000200154421015610567573303610567576040600020600181015490546001600160a01b039091169060ff16600581101561056c5760030361056757600435600052600160205260096040600020015442101561056757330361056757610baa91610ba2610b9d60643593602435938585600435611e28565b611c56565b600435611daf565b9560206000610bed60405183810190848252610bdc81610bce604082018b8d611b90565b03601f1981018352826119bb565b604051928392839251928391611b60565b8101039060025afa1561085157610c10610b9d8383600051604435600435611e28565b60043560005260016020526006604060002001549182600019810111610d9f57610c3e926000190191611ac1565b604051903590602081016001600160fb1b03861161056757610c7a60009183610bdc602080968c8c60051b8091873781010380845201826119bb565b8101039060025afa15610851576000510361056757610ca991610c9e913691611f3d565b604435600435611fdb565b91600160443501928360443511610d9f57610bce610bdc610ce0602096610cd7610d0d966000983691611f3d565b90600435611fdb565b604051928391610cfb89840196604088526060850190611f93565b838103601f1901604085015290611f93565b8101039060025afa156108515760005103610d51575b7f5152abf959f6564662358c2e52b702259b78bac5ee7842a0f01937e670efcc7d60206040516004358152a1005b6004356000526001602052610d7f60018060a01b0360016040600020015416600b6040600020015490611a3f565b60043560005260016020526040600020600460ff19825416179055610d23565b634e487b7160e01b600052601160045260246000fd5b3461056757608036600319011261056757610dce61196e565b6024356001600160a01b0381168103610567576044356001600160a01b0381169003610567576064356001600160401b0381116105675736602382011215610567578060040135610e1e816119dc565b91610e2c60405193846119bb565b8183523660248383010111610567578160009260246020930183860137830101526001600160a01b0383811660008181526002602090815260408083206044359095168352938152908390205492516331a9108f60e11b8152600160048201529492939291859060249082905afa9384156108515760009461146c575b5060206000610efd604051838101906bffffffffffffffffffffffff198960601b1682523360601b60348201526bffffffffffffffffffffffff1960443560601b166048820152603c8152610bdc816119a0565b8101039060025afa156108515760005194610e1042014211610d9f5760405194610f2686611984565b6000865260018060a01b0316602086015233604086015260018060a01b0316606085015260018060a01b0360443516608085015260018060a01b031660a084015260c0830152600060e083015260006101008301526000610120830152610e104201610140830152610e1061016083015261018082015260006101a082015260006101c082015260006101e082015260006102008201528160005260016020526040600020908051600581101561056c57610fe190836119f7565b60208101518254610100600160a81b03191660089190911b610100600160a81b031617825560408101516001830180546001600160a01b03199081166001600160a01b0393841617909155606083015160028501805483169184169190911790556080830151600385018054831691841691909117905560a0830151600485018054909216921691909117905560c08101518051906001600160401b038211610a47576110916005850154611b26565b601f8111611425575b50602090601f83116001146113af579180600f9492610200946000926113a4575b50508160011b916000199060031b1c19161760058501555b60e08101516006850155610100810151600785015561012081015160088501556101408101516009850155610160810151600a850155610180810151600b8501556101a0810151600c8501556101c0810151600d8501556101e0810151600e85015501519101558060005260016020526040600020906040519061115682611984565b825461116560ff821684611b1a565b60081c6001600160a01b03908116602084015260018401548116604080850191909152600285015482166060850152600385015482166080850152600485015490911660a08401525160058401805460009592916111c282611b26565b808452916001811690811561137d5750600114611340575b50506111ec81600f94959603826119bb565b60c0850152600681015460e0850152600781015461010085015260088101546101208501526009810154610140850152600a810154610160850152600b810154610180850152600c8101546101a0850152600d8101546101c0850152600e8101546101e08501520154610200830152815190600582101561056c577fdf1b8c15cf593f7b65af197a3e7d1c668e1f72a35390338278d8d5da0a719e8e60018060a01b036020850151169161012060018060a01b036040870151169460018060a01b036060880151169660018060a01b036080820151169360018060a01b0360a08301511660c08301519261014081015161018061016083015192015192604051988997885260208801526040870152610100606087015261131d85518096816101008a015260208a8a019101611b60565b608086015260a085015260c084015260e0830152601f01601f19168101030190a4005b90955060005260206000206000905b8682106113675750810160200194506111ec816111da565b600181602092548385870101520191019061134f565b60ff191660208086019190915292151560051b840190920196506111ec91508290506111da565b0151905087806110bb565b906005850160005260206000209160005b601f198516811061140d575092600f94926001926102009583601f198116106113f4575b505050811b0160058501556110d3565b015160001960f88460031b161c191690558780806113e4565b919260206001819286850151815501940192016113c0565b600585016000526020600020601f840160051c810160208510611465575b601f830160051c8201811061145957505061109a565b60008155600101611443565b5080611443565b61148691945060203d60201161084a5761083781836119bb565b9285610ea9565b60203660031901126105675760043580600052600160205260018060a01b036001604060002001541660ff60406000205416600581101561056c576001036105675781600052600160205260096040600020015442101561056757330361056757600b6040600020015434106105675760208161152a7f63c027557cd85061f6431e688c7d6d1ab2f4be5510ad28a8be7e3498b164b2d493611bb4565b604051908152a1005b34610567576020806003193601126105675760043590816000526001918282526009604060002001544211156105675760ff60406000205416600581101561056c576002036115bd5760008181528383526040902080840154600b909101546115a4916001600160a01b0316611a3f565b600052526040600020600460ff19825416179055600080f35b8060005282825260ff60406000205416600581101561056c57600311156115e057005b6000818152838352604090208054600b909101546116099160081c6001600160a01b0316611a3f565b600052526040600020600460ff19825416179055005b3461056757610100366003190112610567576001600160401b0360c4358181116105675761165190369060040161193e565b9160e4359081116105675761166a90369060040161193e565b600493919335918260005260019160209483865260018060a01b03928385604060002001541660ff60406000205416600581101561056c576003036105675786600052858852600960406000200154421015610567573303610567578385604060002001541660ff60406000205416600581101561056c5760030361056757866000528588526009604060002001544210156105675733036105675761172691611720610b9d606435936024359385858c611e28565b86611daf565b956084356044359161173e610b9d858385878c611e28565b866000528588526006604060002001546000198101908111610d9f576117699060a435958693611ac1565b35036105675761177a908287611daf565b91848201809211610d9f5786926117976117b39260009489611daf565b60405190858201928352604082015260408152610bdc816119a0565b8101039060025afa15610851577f5152abf959f6564662358c2e52b702259b78bac5ee7842a0f01937e670efcc7d94600051036117f6575b5050604051908152a1005b6118199083600052828552826040600020015416600b6040600020015490611a3f565b8160005282526040600020600460ff1982541617905583806117eb565b34610567576060366003190112610567576004356044356001600160401b0381116105675761186990369060040161193e565b82600052600160205260018060a01b03806001604060002001541660ff60406000205416600581101561056c5760030361056757846000526001602052600960406000200154421015610567573303610567576001604060002001541660ff60406000205416600581101561056c57600303610567578360005260016020526009604060002001544210156105675733036105675761190b9160243584611c94565b61191157005b60207f5152abf959f6564662358c2e52b702259b78bac5ee7842a0f01937e670efcc7d91604051908152a1005b9181601f84011215610567578235916001600160401b038311610567576020808501948460051b01011161056757565b600435906001600160a01b038216820361056757565b61022081019081106001600160401b03821117610a4757604052565b606081019081106001600160401b03821117610a4757604052565b90601f801991011681019081106001600160401b03821117610a4757604052565b6001600160401b038111610a4757601f01601f191660200190565b90600581101561056c5760ff80198354169116179055565b3d15611a3a573d90611a20826119dc565b91611a2e60405193846119bb565b82523d6000602084013e565b606090565b6000918291829182916001600160a01b03165af1611a5b611a0f565b5015611a6357565b60405162461bcd60e51b815260206004820152600f60248201526e151c985b9cd9995c8819985a5b1959608a1b6044820152606490fd5b90816020910312610567575180151581036105675790565b6000198114610d9f5760010190565b9190811015611ad15760051b0190565b634e487b7160e01b600052603260045260246000fd5b356001600160a01b03811681036105675790565b9081602091031261056757516001600160a01b03811681036105675790565b600582101561056c5752565b90600182811c92168015611b56575b6020831014611b4057565b634e487b7160e01b600052602260045260246000fd5b91607f1691611b35565b60005b838110611b735750506000910152565b8181015183820152602001611b63565b91908201809211610d9f57565b81835290916001600160fb1b0383116105675760209260051b809284830137010190565b6000818152600160205260ff6040822054166005811015611c215760018101809111611c35576005811015611c215781611bfc604092856009955260016020528383206119f7565b8381526001602052611c14600a838320015442611b83565b9381526001602052200155565b634e487b7160e01b82526021600452602482fd5b634e487b7160e01b82526011600452602482fd5b91908203918211610d9f57565b15611c5d57565b60405162461bcd60e51b815260206004820152600f60248201526e4e6f7420696e20656e636f64696e6760881b6044820152606490fd5b92909260009381855260019384602052604093600885882001549060001992838301928311611d9b576001600160ff1b03928084168103611d875791610b9d9186611ce1948b1b89611e28565b8387528560205260088588200154918201918211611d735781168103611d5f5790611d0e91851b83611daf565b81855283602052600e838620015403611d275750505090565b81842080840154600b9091015493949293611d4a916001600160a01b0316611a3f565b81528260205220600460ff1982541617905590565b634e487b7160e01b86526011600452602486fd5b634e487b7160e01b87526011600452602487fd5b634e487b7160e01b8a52601160045260248afd5b634e487b7160e01b89526011600452602489fd5b906020611e0b92600093818592835260018452611dd460409560088786200154611b83565b90835260018452600f858420015485519085820192835286820152858152611dfb816119a0565b8551928392839251928391611b60565b8101039060025afa15611e1e5750511890565b51903d90823e3d90fd5b939092916000905b8560005260019060209082825260069260409380856000200154861015611f1e57859082821b8a16821c8303611ed757611e75928b6000528552856000200154611c49565b6000198101908111610d9f57600091611e92611ead92888a611ac1565b359085519085820192835286820152858152611dfb816119a0565b8101039060025afa15611ecd5750611ec760005191611ab2565b90611e30565b513d6000823e3d90fd5b611ee79250856000200154611c49565b6000198101908111610d9f57600091611f04611ead92888a611ac1565b3585519085820192835286820152858152611dfb816119a0565b505096955050505050506000526001602052600d604060002001541490565b9092916001600160401b038411610a47578360051b6040519260208094611f66828501826119bb565b809781520191810192831161056757905b828210611f845750505050565b81358152908301908301611f77565b90815180825260208080930193019160005b828110611fb3575050505090565b835185529381019392810192600101611fa5565b8051821015611ad15760209160051b010190565b906000918083526001916020838152600760409281848820015490818102918183041490151715611d7357869490865b61201b575b505050505050505090565b8188528684528285892001548610156120b0578388612063600f88832001548851848101918683528a820152898152612053816119a0565b8951928392839251928391611b60565b8101039060025afa156120a6579061209e61209888938b6120928a8d5161208a8285611fc7565b511892611fc7565b52611ab2565b96611ab2565b95909161200b565b84513d89823e3d90fd5b61201056fea2646970667358221220adb50b199ef5bd7032a76cb084307db783a37e07460e64c4aab70870e93c231664736f6c63430008110033",
  "linkReferences": {},
  "deployedLinkReferences": {}
}