{
  "_format": "hh-sol-artifact-1",
  "contractName": "Marketplace",
  "sourceName": "contracts/marketplace/Marketplace.sol",
  "abi": [
    {
      "anonymous": false,
      "inputs": [
        {
          "indexed": true,
          "internalType": "address",
          "name": "seller",
          "type": "address"
        },
        {
          "indexed": true,
          "internalType": "address",
          "name": "buyer",
          "type": "address"
        },
        {
          "indexed": true,
          "internalType": "address",
          "name": "nftAddress",
          "type": "address"
        },
        {
          "indexed": false,
          "internalType": "address",
          "name": "algorithm",
          "type": "address"
        }
      ],
      "name": "ComputationVerified",
      "type": "event"
    },
    {
      "anonymous": false,
      "inputs": [
        {
          "indexed": true,
          "internalType": "address",
          "name": "nftAddress",
          "type": "address"
        },
        {
          "indexed": true,
          "internalType": "address",
          "name": "algorithm",
          "type": "address"
        },
        {
          "components": [
            {
              "internalType": "address",
              "name": "seller",
              "type": "address"
            },
            {
              "internalType": "uint256",
              "name": "price",
              "type": "uint256"
            }
          ],
          "indexed": false,
          "internalType": "struct Marketplace.Item",
          "name": "item",
          "type": "tuple"
        }
      ],
      "name": "ItemCreated",
      "type": "event"
    },
    {
      "anonymous": false,
      "inputs": [],
      "name": "ItemRemoved",
      "type": "event"
    },
    {
      "anonymous": false,
      "inputs": [],
      "name": "ItemSold",
      "type": "event"
    },
    {
      "anonymous": false,
      "inputs": [],
      "name": "ItemUpdated",
      "type": "event"
    },
    {
      "anonymous": false,
      "inputs": [],
      "name": "OrderCancelled",
      "type": "event"
    },
    {
      "anonymous": false,
      "inputs": [
        {
          "indexed": true,
          "internalType": "address",
          "name": "seller",
          "type": "address"
        },
        {
          "indexed": true,
          "internalType": "address",
          "name": "buyer",
          "type": "address"
        },
        {
          "indexed": true,
          "internalType": "address",
          "name": "nftAddress",
          "type": "address"
        },
        {
          "indexed": false,
          "internalType": "string",
          "name": "pkAddress",
          "type": "string"
        },
        {
          "indexed": false,
          "internalType": "uint256",
          "name": "price",
          "type": "uint256"
        }
      ],
      "name": "OrderCreated",
      "type": "event"
    },
    {
      "anonymous": false,
      "inputs": [],
      "name": "OrderUpdated",
      "type": "event"
    },
    {
      "inputs": [
        {
          "internalType": "address",
          "name": "_nftAddress",
          "type": "address"
        },
        {
          "internalType": "address[]",
          "name": "_algorithms",
          "type": "address[]"
        },
        {
          "internalType": "uint256[]",
          "name": "_prices",
          "type": "uint256[]"
        }
      ],
      "name": "createItem",
      "outputs": [],
      "stateMutability": "nonpayable",
      "type": "function"
    },
    {
      "inputs": [
        {
          "internalType": "address",
          "name": "_nftAddress",
          "type": "address"
        },
        {
          "internalType": "address",
          "name": "_verifier",
          "type": "address"
        },
        {
          "internalType": "address",
          "name": "_algorithm",
          "type": "address"
        },
        {
          "internalType": "string",
          "name": "_pkAddress",
          "type": "string"
        }
      ],
      "name": "createOrder",
      "outputs": [],
      "stateMutability": "payable",
      "type": "function"
    },
    {
      "inputs": [
        {
          "internalType": "address",
          "name": "_nftAddress",
          "type": "address"
        },
        {
          "internalType": "uint256",
          "name": "_oderIndex",
          "type": "uint256"
        }
      ],
      "name": "redeem",
      "outputs": [],
      "stateMutability": "nonpayable",
      "type": "function"
    },
    {
      "inputs": [
        {
          "internalType": "address",
          "name": "_nftAddress",
          "type": "address"
        },
        {
          "internalType": "uint256",
          "name": "_orderIndex",
          "type": "uint256"
        },
        {
          "internalType": "uint256[]",
          "name": "_input",
          "type": "uint256[]"
        },
        {
          "components": [
            {
              "components": [
                {
                  "internalType": "uint256",
                  "name": "X",
                  "type": "uint256"
                },
                {
                  "internalType": "uint256",
                  "name": "Y",
                  "type": "uint256"
                }
              ],
              "internalType": "struct Marketplace.G1Point",
              "name": "a",
              "type": "tuple"
            },
            {
              "components": [
                {
                  "internalType": "uint256[2]",
                  "name": "X",
                  "type": "uint256[2]"
                },
                {
                  "internalType": "uint256[2]",
                  "name": "Y",
                  "type": "uint256[2]"
                }
              ],
              "internalType": "struct Marketplace.G2Point",
              "name": "b",
              "type": "tuple"
            },
            {
              "components": [
                {
                  "internalType": "uint256",
                  "name": "X",
                  "type": "uint256"
                },
                {
                  "internalType": "uint256",
                  "name": "Y",
                  "type": "uint256"
                }
              ],
              "internalType": "struct Marketplace.G1Point",
              "name": "c",
              "type": "tuple"
            }
          ],
          "internalType": "struct Marketplace.Proof",
          "name": "_proof",
          "type": "tuple"
        }
      ],
      "name": "verifyComputation",
      "outputs": [],
      "stateMutability": "nonpayable",
      "type": "function"
    },
    {
      "stateMutability": "payable",
      "type": "receive"
    }
  ],
  "bytecode": "0x608060405234801561001057600080fd5b50600160005561129c806100256000396000f3fe6080604052600436106100435760003560e01c80631e9a695014610093578063a68f7281146100b5578063c0d9e40d146100d5578063f6481b71146100e857600080fd5b3661008e5760405162461bcd60e51b815260206004820152601660248201527513db9b1e481a59881a5d195b5cc8185c99481cdbdb1960521b60448201526064015b60405180910390fd5b600080fd5b34801561009f57600080fd5b506100b36100ae366004610d1e565b610108565b005b3480156100c157600080fd5b506100b36100d0366004610d94565b6102d8565b6100b36100e3366004610e2b565b6105f9565b3480156100f457600080fd5b506100b3610103366004610f0e565b61084e565b610110610c0f565b6001600160a01b038216600090815260026020526040812080548390811061013a5761013a610f8a565b60009182526020918290206040805161016081018252600a90930290910180546001600160a01b0390811684526001820154811694840194909452600281015484169183019190915260038101548316606083015260048101549092166080820152600582015460a0820152600682015460c0820152600782015460e0820152600882018054919291610100840191906101d390610fa0565b80601f01602080910402602001604051908101604052809291908181526020018280546101ff90610fa0565b801561024c5780601f106102215761010080835404028352916020019161024c565b820191906000526020600020905b81548152906001019060200180831161022f57829003601f168201915b50505091835250506009919091015460ff8082161515602084015261010090910416151560409091015260808101519091506001600160a01b0316331480156102985750428160e00151105b80156102a75750806101200151155b80156102b65750806101400151155b156102c9576102c9338260a00151610c68565b506102d46001600055565b5050565b82811461031b5760405162461bcd60e51b815260206004820152601160248201527013195b99dd1a1cc81b9bdd08195c5d585b607a1b6044820152606401610085565b6040516301ffc9a760e01b81526380ac58cd60e01b60048201526001600160a01b038616906301ffc9a790602401602060405180830381865afa158015610366573d6000803e3d6000fd5b505050506040513d601f19601f8201168201806040525081019061038a9190610fda565b6103cb5760405162461bcd60e51b81526020600482015260126024820152714e6f7420612076616c69642045524337323160701b6044820152606401610085565b60005b838110156105f15760008383838181106103ea576103ea610f8a565b905060200201351161043e5760405162461bcd60e51b815260206004820152601760248201527f50726963652063616e2774206265206e656761746976650000000000000000006044820152606401610085565b6040518060400160405280336001600160a01b0316815260200184848481811061046a5761046a610f8a565b9050602002013581525060016000886001600160a01b03166001600160a01b0316815260200190815260200160002060008787858181106104ad576104ad610f8a565b90506020020160208101906104c29190611003565b6001600160a01b0390811682526020808301939093526040909101600020835181546001600160a01b031916921691909117815591015160019091015584848281811061051157610511610f8a565b90506020020160208101906105269190611003565b6001600160a01b038781166000818152600160205260408120939092169290917f95967959d3eae5ed5fb004ec6e53161018887533e1b6017a2a01dc4683b728d1919089898781811061057b5761057b610f8a565b90506020020160208101906105909190611003565b6001600160a01b03166001600160a01b031681526020019081526020016000206040516105d7919081546001600160a01b0316815260019190910154602082015260400190565b60405180910390a3806105e981611034565b9150506103ce565b505050505050565b6001600160a01b03808516600090815260016020818152604080842087861685528252928390208351808501909452805490941683529201549181018290529034101561067b5760405162461bcd60e51b815260206004820152601060248201526f4e6f7420656e6f7567682066756e647360801b6044820152606401610085565b6001600160a01b038086166000818152600260209081526040918290208251610160810184529384528785168483015288851692840192909252336060840152845190931660808301529183015160a08201524260c0820181905260e08201906106e8906203f48061104d565b81526020808201869052600060408084018290526060938401829052855460018082018855968352918390208551600a9093020180546001600160a01b03199081166001600160a01b0394851617825593860151968101805485169784169790971790965584015160028601805484169183169190911790559183015160038501805483169184169190911790556080830151600485018054909216921691909117905560a0810151600583015560c0810151600683015560e0810151600783015561010081015190919060088201906107c290826110ac565b50610120820151600990910180546101409093015115156101000261ff00199215159290921661ffff1990931692909217179055805160208201516040516001600160a01b038089169333939116917f67b22dcaaed4fc68a70553afb04b1be96fe73eda2a8c31da538c7628f86ca85f9161083f91889190611190565b60405180910390a45050505050565b610856610c0f565b6001600160a01b038516600090815260026020526040812080548690811061088057610880610f8a565b60009182526020918290206040805161016081018252600a90930290910180546001600160a01b0390811684526001820154811694840194909452600281015484169183019190915260038101548316606083015260048101549092166080820152600582015460a0820152600682015460c0820152600782015460e08201526008820180549192916101008401919061091990610fa0565b80601f016020809104026020016040519081016040528092919081815260200182805461094590610fa0565b80156109925780601f1061096757610100808354040283529160200191610992565b820191906000526020600020905b81548152906001019060200180831161097557829003601f168201915b50505091835250506009919091015460ff808216151560208401526101009091041615156040909101526101208101519091501580156109d55750806101400151155b610a215760405162461bcd60e51b815260206004820152601760248201527f4f7264657220616c72656164792066756c66696c6c65640000000000000000006044820152606401610085565b80606001516001600160a01b0316336001600160a01b031614610a765760405162461bcd60e51b815260206004820152600d60248201526c2737ba103a343290313abcb2b960991b6044820152606401610085565b6000828585604051602401610a8d939291906111cb565b60408051601f198184030181529181526020820180516001600160e01b031663c941764760e01b17905283810151905191925060009182916001600160a01b031690610ada90859061124a565b6000604051808303816000865af19150503d8060008114610b17576040519150601f19603f3d011682016040523d82523d6000602084013e610b1c565b606091505b509150915081610b2b57600080fd5b600081806020019051810190610b419190610fda565b905080610b805760405162461bcd60e51b815260206004820152600d60248201526c24b73b30b634b210383937b7b360991b6044820152606401610085565b610b9285608001518660a00151610c68565b60016101208601819052610140860152606085015160808601516020808801516040516001600160a01b0391821681528e82169482169391909116917fefdac588e301b29a89b2f5a01d2bdbdf6c423731331cc2ecc7ea31e87f090726910160405180910390a45050505050610c086001600055565b5050505050565b600260005403610c615760405162461bcd60e51b815260206004820152601f60248201527f5265656e7472616e637947756172643a207265656e7472616e742063616c6c006044820152606401610085565b6002600055565b6000826001600160a01b03168260405160006040518083038185875af1925050503d8060008114610cb5576040519150601f19603f3d011682016040523d82523d6000602084013e610cba565b606091505b5050905080610cfd5760405162461bcd60e51b815260206004820152600f60248201526e151c985b9cd9995c8819985a5b1959608a1b6044820152606401610085565b505050565b80356001600160a01b0381168114610d1957600080fd5b919050565b60008060408385031215610d3157600080fd5b610d3a83610d02565b946020939093013593505050565b60008083601f840112610d5a57600080fd5b50813567ffffffffffffffff811115610d7257600080fd5b6020830191508360208260051b8501011115610d8d57600080fd5b9250929050565b600080600080600060608688031215610dac57600080fd5b610db586610d02565b9450602086013567ffffffffffffffff80821115610dd257600080fd5b610dde89838a01610d48565b90965094506040880135915080821115610df757600080fd5b50610e0488828901610d48565b969995985093965092949392505050565b634e487b7160e01b600052604160045260246000fd5b60008060008060808587031215610e4157600080fd5b610e4a85610d02565b9350610e5860208601610d02565b9250610e6660408601610d02565b9150606085013567ffffffffffffffff80821115610e8357600080fd5b818701915087601f830112610e9757600080fd5b813581811115610ea957610ea9610e15565b604051601f8201601f19908116603f01168101908382118183101715610ed157610ed1610e15565b816040528281528a6020848701011115610eea57600080fd5b82602086016020830137600060208483010152809550505050505092959194509250565b6000806000806000858703610160811215610f2857600080fd5b610f3187610d02565b955060208701359450604087013567ffffffffffffffff811115610f5457600080fd5b610f6089828a01610d48565b909550935050610100605f1982011215610f7957600080fd5b506060860190509295509295909350565b634e487b7160e01b600052603260045260246000fd5b600181811c90821680610fb457607f821691505b602082108103610fd457634e487b7160e01b600052602260045260246000fd5b50919050565b600060208284031215610fec57600080fd5b81518015158114610ffc57600080fd5b9392505050565b60006020828403121561101557600080fd5b610ffc82610d02565b634e487b7160e01b600052601160045260246000fd5b6000600182016110465761104661101e565b5060010190565b808201808211156110605761106061101e565b92915050565b601f821115610cfd57600081815260208120601f850160051c8101602086101561108d5750805b601f850160051c820191505b818110156105f157828155600101611099565b815167ffffffffffffffff8111156110c6576110c6610e15565b6110da816110d48454610fa0565b84611066565b602080601f83116001811461110f57600084156110f75750858301515b600019600386901b1c1916600185901b1785556105f1565b600085815260208120601f198616915b8281101561113e5788860151825594840194600190910190840161111f565b508582101561115c5787850151600019600388901b60f8161c191681555b5050505050600190811b01905550565b60005b8381101561118757818101518382015260200161116f565b50506000910152565b60408152600083518060408401526111af81606085016020880161116c565b602083019390935250601f91909101601f191601606001919050565b8335815260208085013590820152600061012060408087016040850137604060808701608085013761120d60c0840160c0880180358252602090810135910152565b610100830181905282018390526101406001600160fb1b0384111561123157600080fd5b8360051b80868386013792909201909101949350505050565b6000825161125c81846020870161116c565b919091019291505056fea2646970667358221220e6813d7611341e27184f3d9fa9634113b7b58ef4381e78079d41369a59e4cc7464736f6c63430008110033",
  "linkReferences": {},
  "deployedLinkReferences": {}
}