{
  "_format": "hh-sol-artifact-1",
  "contractName": "Marketplace",
  "sourceName": "contracts/marketplace/Marketplace.sol",
  "abi": [
    {
      "anonymous": false,
      "inputs": [
        {
          "indexed": true,
          "internalType": "address",
          "name": "nftAddress",
          "type": "address"
        },
        {
          "indexed": true,
          "internalType": "address",
          "name": "algorithm",
          "type": "address"
        },
        {
          "indexed": true,
          "internalType": "address",
          "name": "sender",
          "type": "address"
        },
        {
          "indexed": false,
          "internalType": "uint256",
          "name": "price",
          "type": "uint256"
        }
      ],
      "name": "OfferCreated",
      "type": "event"
    },
    {
      "anonymous": false,
      "inputs": [],
      "name": "OfferRemoved",
      "type": "event"
    },
    {
      "anonymous": false,
      "inputs": [],
      "name": "OfferUpdated",
      "type": "event"
    },
    {
      "anonymous": false,
      "inputs": [
        {
          "indexed": false,
          "internalType": "bytes32",
          "name": "sessionId",
          "type": "bytes32"
        }
      ],
      "name": "OrderAccepted",
      "type": "event"
    },
    {
      "anonymous": false,
      "inputs": [
        {
          "indexed": false,
          "internalType": "bytes32",
          "name": "sessionId",
          "type": "bytes32"
        }
      ],
      "name": "OrderCancelled",
      "type": "event"
    },
    {
      "anonymous": false,
      "inputs": [
        {
          "indexed": false,
          "internalType": "enum FairSwap.Stage",
          "name": "phase",
          "type": "uint8"
        },
        {
          "indexed": true,
          "internalType": "address",
          "name": "sender",
          "type": "address"
        },
        {
          "indexed": true,
          "internalType": "address",
          "name": "receiver",
          "type": "address"
        },
        {
          "indexed": true,
          "internalType": "address",
          "name": "nftAddress",
          "type": "address"
        },
        {
          "indexed": false,
          "internalType": "address",
          "name": "algorithm",
          "type": "address"
        },
        {
          "indexed": false,
          "internalType": "address",
          "name": "verifier",
          "type": "address"
        },
        {
          "indexed": false,
          "internalType": "string",
          "name": "pkAddress",
          "type": "string"
        },
        {
          "indexed": false,
          "internalType": "uint256",
          "name": "timeout",
          "type": "uint256"
        },
        {
          "indexed": false,
          "internalType": "uint256",
          "name": "timeoutInterval",
          "type": "uint256"
        },
        {
          "indexed": false,
          "internalType": "uint256",
          "name": "price",
          "type": "uint256"
        },
        {
          "indexed": false,
          "internalType": "bytes32",
          "name": "sessionId",
          "type": "bytes32"
        }
      ],
      "name": "OrderCreated",
      "type": "event"
    },
    {
      "anonymous": false,
      "inputs": [
        {
          "indexed": false,
          "internalType": "bytes32",
          "name": "sessionId",
          "type": "bytes32"
        }
      ],
      "name": "OrderFulfilled",
      "type": "event"
    },
    {
      "anonymous": false,
      "inputs": [
        {
          "indexed": false,
          "internalType": "uint256",
          "name": "depth",
          "type": "uint256"
        },
        {
          "indexed": false,
          "internalType": "uint256",
          "name": "length",
          "type": "uint256"
        },
        {
          "indexed": false,
          "internalType": "uint256",
          "name": "n",
          "type": "uint256"
        },
        {
          "indexed": false,
          "internalType": "bytes32",
          "name": "keyCommit",
          "type": "bytes32"
        },
        {
          "indexed": false,
          "internalType": "bytes32",
          "name": "ciphertextRoot",
          "type": "bytes32"
        },
        {
          "indexed": false,
          "internalType": "bytes32",
          "name": "fileRoot",
          "type": "bytes32"
        },
        {
          "indexed": false,
          "internalType": "bytes32",
          "name": "sessionId",
          "type": "bytes32"
        }
      ],
      "name": "OrderInitialized",
      "type": "event"
    },
    {
      "anonymous": false,
      "inputs": [
        {
          "indexed": false,
          "internalType": "bytes32",
          "name": "key",
          "type": "bytes32"
        },
        {
          "indexed": false,
          "internalType": "bytes32",
          "name": "sessionId",
          "type": "bytes32"
        }
      ],
      "name": "OrderRevealed",
      "type": "event"
    },
    {
      "inputs": [
        {
          "internalType": "bytes32",
          "name": "_sessionId",
          "type": "bytes32"
        }
      ],
      "name": "buy",
      "outputs": [],
      "stateMutability": "payable",
      "type": "function"
    },
    {
      "inputs": [
        {
          "internalType": "bytes32",
          "name": "_sessionId",
          "type": "bytes32"
        },
        {
          "internalType": "uint256",
          "name": "_indexOut",
          "type": "uint256"
        },
        {
          "internalType": "uint256",
          "name": "_indexIn",
          "type": "uint256"
        },
        {
          "internalType": "bytes32",
          "name": "_Zout",
          "type": "bytes32"
        },
        {
          "internalType": "bytes32[]",
          "name": "_Zin1",
          "type": "bytes32[]"
        },
        {
          "internalType": "bytes32[]",
          "name": "_Zin2",
          "type": "bytes32[]"
        },
        {
          "internalType": "bytes32[]",
          "name": "_proofZout",
          "type": "bytes32[]"
        },
        {
          "internalType": "bytes32[]",
          "name": "_proofZin",
          "type": "bytes32[]"
        }
      ],
      "name": "complainAboutLeaf",
      "outputs": [],
      "stateMutability": "nonpayable",
      "type": "function"
    },
    {
      "inputs": [
        {
          "internalType": "bytes32",
          "name": "_sessionId",
          "type": "bytes32"
        },
        {
          "internalType": "uint256",
          "name": "_indexOut",
          "type": "uint256"
        },
        {
          "internalType": "uint256",
          "name": "_indexIn",
          "type": "uint256"
        },
        {
          "internalType": "bytes32",
          "name": "_Zout",
          "type": "bytes32"
        },
        {
          "internalType": "bytes32",
          "name": "_Zin1",
          "type": "bytes32"
        },
        {
          "internalType": "bytes32",
          "name": "_Zin2",
          "type": "bytes32"
        },
        {
          "internalType": "bytes32[]",
          "name": "_proofZout",
          "type": "bytes32[]"
        },
        {
          "internalType": "bytes32[]",
          "name": "_proofZin",
          "type": "bytes32[]"
        }
      ],
      "name": "complainAboutNode",
      "outputs": [],
      "stateMutability": "nonpayable",
      "type": "function"
    },
    {
      "inputs": [
        {
          "internalType": "bytes32",
          "name": "_sessionId",
          "type": "bytes32"
        },
        {
          "internalType": "bytes32",
          "name": "_Zm",
          "type": "bytes32"
        },
        {
          "internalType": "bytes32[]",
          "name": "_proofZm",
          "type": "bytes32[]"
        }
      ],
      "name": "complainAboutRoot",
      "outputs": [],
      "stateMutability": "nonpayable",
      "type": "function"
    },
    {
      "inputs": [
        {
          "internalType": "address",
          "name": "_nftAddress",
          "type": "address"
        },
        {
          "internalType": "address[]",
          "name": "_algorithms",
          "type": "address[]"
        },
        {
          "internalType": "uint256[]",
          "name": "_prices",
          "type": "uint256[]"
        }
      ],
      "name": "createOffer",
      "outputs": [],
      "stateMutability": "nonpayable",
      "type": "function"
    },
    {
      "inputs": [
        {
          "internalType": "address",
          "name": "_nftAddress",
          "type": "address"
        },
        {
          "internalType": "address",
          "name": "_verifier",
          "type": "address"
        },
        {
          "internalType": "address",
          "name": "_algorithm",
          "type": "address"
        },
        {
          "internalType": "string",
          "name": "_pkAddress",
          "type": "string"
        }
      ],
      "name": "createOrder",
      "outputs": [],
      "stateMutability": "nonpayable",
      "type": "function"
    },
    {
      "inputs": [
        {
          "internalType": "bytes32",
          "name": "_sessionId",
          "type": "bytes32"
        },
        {
          "internalType": "uint256",
          "name": "_depth",
          "type": "uint256"
        },
        {
          "internalType": "uint256",
          "name": "_length",
          "type": "uint256"
        },
        {
          "internalType": "uint256",
          "name": "_n",
          "type": "uint256"
        },
        {
          "internalType": "bytes32",
          "name": "_keyCommit",
          "type": "bytes32"
        },
        {
          "internalType": "bytes32",
          "name": "_ciphertextRoot",
          "type": "bytes32"
        },
        {
          "internalType": "uint256[]",
          "name": "_input",
          "type": "uint256[]"
        },
        {
          "components": [
            {
              "components": [
                {
                  "internalType": "uint256",
                  "name": "X",
                  "type": "uint256"
                },
                {
                  "internalType": "uint256",
                  "name": "Y",
                  "type": "uint256"
                }
              ],
              "internalType": "struct Marketplace.G1Point",
              "name": "a",
              "type": "tuple"
            },
            {
              "components": [
                {
                  "internalType": "uint256[2]",
                  "name": "X",
                  "type": "uint256[2]"
                },
                {
                  "internalType": "uint256[2]",
                  "name": "Y",
                  "type": "uint256[2]"
                }
              ],
              "internalType": "struct Marketplace.G2Point",
              "name": "b",
              "type": "tuple"
            },
            {
              "components": [
                {
                  "internalType": "uint256",
                  "name": "X",
                  "type": "uint256"
                },
                {
                  "internalType": "uint256",
                  "name": "Y",
                  "type": "uint256"
                }
              ],
              "internalType": "struct Marketplace.G1Point",
              "name": "c",
              "type": "tuple"
            }
          ],
          "internalType": "struct Marketplace.Proof",
          "name": "_proof",
          "type": "tuple"
        }
      ],
      "name": "proofComputation",
      "outputs": [],
      "stateMutability": "nonpayable",
      "type": "function"
    },
    {
      "inputs": [
        {
          "internalType": "bytes32",
          "name": "_sessionId",
          "type": "bytes32"
        }
      ],
      "name": "refund",
      "outputs": [],
      "stateMutability": "nonpayable",
      "type": "function"
    },
    {
      "inputs": [
        {
          "internalType": "bytes32",
          "name": "_sessionId",
          "type": "bytes32"
        },
        {
          "internalType": "bytes32",
          "name": "_key",
          "type": "bytes32"
        }
      ],
      "name": "reveal",
      "outputs": [],
      "stateMutability": "nonpayable",
      "type": "function"
    },
    {
      "stateMutability": "payable",
      "type": "receive"
    }
  ],
  "bytecode": "0x6080806040523461001b576001600055611c9a90816100218239f35b600080fdfe6080604052600436101561005e575b361561001957600080fd5b60405162461bcd60e51b815260206004820152601d60248201527f4f6e6c7920696620636f6d7075746174696f6e732061726520736f6c640000006044820152606490fd5b60003560e01c806323c9440114611072578063303fd0bb14610f745780637249fbb614610e93578063742aef3514610ab15780639c9a106114610a0b578063c0d9e40d14610636578063d5f46458146104d3578063fc334e8c1461039c5763fed577120361000e5734610397576060366003190112610397576100df611177565b6024906001600160401b0390823582811161039757610102903690600401611147565b9360449384359081116103975761011d903690600401611147565b959092868203610360576040516301ffc9a760e01b81526380ac58cd60e01b60048201526001600160a01b0395861692602092909183818781885afa9081156102ac57600091610333575b50156102fb5760005b82811061017a57005b610185818b89611318565b35156102b857610196818b89611318565b3585600052600285526040600020896101b86101b3858888611318565b61133e565b1660005285526040600020556101d26101b3828585611318565b6040516331a9108f60e11b8152600160048201529190858389818a5afa9283156102ac5761024c9388888f868f918f96600096610251575b50829161023a917f6167d627da72a913fb477055ee686dfefb48ee3623474eb852da6bfcce0fb998969798611318565b359560405196875216951693a4611309565b610171565b7f6167d627da72a913fb477055ee686dfefb48ee3623474eb852da6bfcce0fb9989596509161023a9161029a8594873d89116102a5575b61029281836111c4565b810190611352565b97965091509161020a565b503d610288565b6040513d6000823e3d90fd5b60405162461bcd60e51b8152600481018590526017818801527f50726963652063616e2774206265206e65676174697665000000000000000000818b0152606490fd5b60405162461bcd60e51b815260048101849052601281870152714e6f7420612076616c69642045524337323160701b818a0152606490fd5b6103539150843d8611610359575b61034b81836111c4565b8101906112f1565b38610168565b503d610341565b60405162461bcd60e51b8152602060048201526011818501527013195b99dd1a1cc81b9bdd08195c5d585b607a1b81880152606490fd5b600080fd5b346103975760403660031901126103975760043560008181526001602090815260409091205460243590600881901c6001600160a01b03169060ff1660058110156104bd5760020361039757836000526001835260066040600020015442101561039757330361039757600960406000200154604051838101838152848252604082018281106001600160401b038211176104a75785928161044860009482604052835192839161137e565b8101039060025afa156102ac576000510361039757826040927f2cf28bf9600f9917825b89ffa0b45d1c8b7e9d290a9aa382d2fad867bcd53644946000526001815282600c85600020015561049c826113de565b8351928352820152a1005b634e487b7160e01b600052604160045260246000fd5b634e487b7160e01b600052602160045260246000fd5b3461039757610100366003190112610397576004356001600160401b0360843581811161039757610508903690600401611147565b60a49291923582811161039757610523903690600401611147565b909260c4358181116103975761053d903690600401611147565b92909160e43590811161039757610558903690600401611147565b95909488600052600160205260018060a01b03806001604060002001541660ff6040600020541660058110156104bd57600303610397578a6000526001602052600660406000200154421015610397573303610397576001604060002001541660ff6040600020541660058110156104bd576003036103975789600052600160205260066040600020015442101561039757330361039757610603976064356044356024358c611923565b61060957005b60207f5152abf959f6564662358c2e52b702259b78bac5ee7842a0f01937e670efcc7d91604051908152a1005b346103975760803660031901126103975761064f611177565b602435906001600160a01b0382168203610397576044356001600160a01b0381169003610397576001600160401b036064351161039757366023606435011215610397576106a2606435600401356111e5565b6106af60405191826111c4565b600460643590810135808352369101602401116103975760643560040135602460643501602083013760006020606435600401358301015260018060a01b0382166000526002602052604060002060018060a01b0360443516600052602052604060002054604051926331a9108f60e11b84526001600485015260208460248160018060a01b0385165afa9384156102ac576000946109ea575b50602060006107a1604051838101906bffffffffffffffffffffffff19808a60601b1683523360601b603483015260443560601b166048820152603c8152610790816111a9565b60405192839283925192839161137e565b8101039060025afa156102ac57600051610e10420142116109d457604051926107c98461118d565b6000845260018060a01b038616602085015233604085015260018060a01b038716606085015260006080850152600060a0850152600060c0850152610e10420160e0850152610e106101008501528061012085015260006101408501526000610160850152600061018085015260006101a0850152816000526001602052604060002084519460058610156104bd576101a0600c916108897fdf1b8c15cf593f7b65af197a3e7d1c668e1f72a35390338278d8d5da0a719e8e9885611200565b6020818101518554610100600160a81b031916600891821b610100600160a81b03161786556040808401516001880180546001600160a01b03199081166001600160a01b039384161790915560608087015160028b01805490931690841617909155608086015160038a015560a086015160048a015560c086015160058a015560e086015160068a01556101008087015160078b015561012080880151958b019590955561014087015160098b0155610160870151600a8b0155610180870151600b8b0155969095015196909701959095558451600081526044358716818401529c909516938c01939093528a018190528751908a0181905296610993928892908b01910161137e565b42610e10908101608089015260a088015260c087015260e08601526001600160a01b0390811694339490911692601f01601f191681018190036101200190a4005b634e487b7160e01b600052601160045260246000fd5b610a0491945060203d6020116102a55761029281836111c4565b9285610749565b60203660031901126103975760043580600052600160205260018060a01b036001604060002001541660ff6040600020541660058110156104bd576001036103975781600052600160205260066040600020015442101561039757330361039757600860406000200154341061039757602081610aa87f63c027557cd85061f6431e688c7d6d1ab2f4be5510ad28a8be7e3498b164b2d4936113de565b604051908152a1005b34610397576101e03660031901126103975760c4356001600160401b03811161039757610ae2903690600401611147565b906101003660e319011261039757600260005414610e4e576002600055600435600052600160205260008060408120604051610b1d8161118d565b8154610b2c60ff8216836113a1565b60018060a01b039060081c16602082015260018060a01b0360018301541660408201526101a0600c60018060a01b03600285015416936060840194855260038101546080850152600481015460a0850152600581015460c0850152600681015460e0850152600781015461010085015260088101546101208501526009810154610140850152600a810154610160850152600b81015461018085015201549101526040519082602083019163c941764760e01b835260e435602485015261012061010480356044870152610124906040826064890137604061016460a48901376101a43560e48801526101c43590870152850152610c4184610c3361014482018b8b6113ad565b03601f1981018652856111c4565b519251926001600160a01b03165af1610c58611266565b90156103975780602080610c71935183010191016112f1565b1561039757816000198101116109d457610c9091600019810191611318565b600435600090815260016020526040902054903590600881901c6001600160a01b03169060ff1660058110156104bd5761039757600435600052600160205260066040600020015442101561039757330361039757604060002060243560038201556044356004808301919091556064356005830155608435600983015560a435600a830155600b90910191909155610d2990356113de565b60043560005260016020527ff59e4e348ca114f954d760e7bbcb1af2627f94c03e23dca748993ec5b8c8e2ec60e0604060002060405190610d698261118d565b8054610d7860ff8216846113a1565b60018060a01b039060081c16602083015260018060a01b03600182015416604083015260018060a01b03600282015416606083015260038101549182608082015260048201548060a083015260058301548060c08401526006840154868401526007840154610100840152600884015461012084015260098401549182610140850152600a85015493846101608201526101a0600c600b88015497886101808501520154910152604051958652602086015260408501526060840152608083015260a082015260043560c0820152a16001600055005b60405162461bcd60e51b815260206004820152601f60248201527f5265656e7472616e637947756172643a207265656e7472616e742063616c6c006044820152606490fd5b34610397576020806003193601126103975760043590816000526001918282526006604060002001544211156103975760ff6040600020541660058110156104bd57600203610f275760008181528383526040902080840154600890910154610f04916001600160a01b0316611296565b600052526040600020600460ff19825416179055610f256040600020611218565b005b8060005282825260ff6040600020541660058110156104bd5760031115610f4a57005b6000818152838352604090208054600891820154610f04929091901c6001600160a01b0316611296565b3461039757610100366003190112610397576004356001600160401b0360c43581811161039757610fa9903690600401611147565b909160e43590811161039757610fc3903690600401611147565b9184600052600160205260018060a01b03806001604060002001541660ff6040600020541660058110156104bd5760030361039757866000526001602052600660406000200154421015610397573303610397576001604060002001541660ff6040600020541660058110156104bd5760030361039757856000526001602052600660406000200154421015610397573303610397576106039360a4356084356064356044356024358a611768565b34610397576060366003190112610397576004356044356001600160401b038111610397576110a5903690600401611147565b82600052600160205260018060a01b03806001604060002001541660ff6040600020541660058110156104bd5760030361039757846000526001602052600660406000200154421015610397573303610397576001604060002001541660ff6040600020541660058110156104bd57600303610397578360005260016020526006604060002001544210156103975733036103975761060391602435846114b1565b9181601f84011215610397578235916001600160401b038311610397576020808501948460051b01011161039757565b600435906001600160a01b038216820361039757565b6101c081019081106001600160401b038211176104a757604052565b606081019081106001600160401b038211176104a757604052565b90601f801991011681019081106001600160401b038211176104a757604052565b6001600160401b0381116104a757601f01601f191660200190565b9060058110156104bd5760ff80198354169116179055565b600c60009182815582600182015582600282015582600382015582600482015582600582015582600682015582600782015582600882015582600982015582600a82015582600b8201550155565b3d15611291573d90611277826111e5565b9161128560405193846111c4565b82523d6000602084013e565b606090565b6000918291829182916001600160a01b03165af16112b2611266565b50156112ba57565b60405162461bcd60e51b815260206004820152600f60248201526e151c985b9cd9995c8819985a5b1959608a1b6044820152606490fd5b90816020910312610397575180151581036103975790565b60001981146109d45760010190565b91908110156113285760051b0190565b634e487b7160e01b600052603260045260246000fd5b356001600160a01b03811681036103975790565b9081602091031261039757516001600160a01b03811681036103975790565b919082018092116109d457565b60005b8381106113915750506000910152565b8181015183820152602001611381565b60058210156104bd5752565b81835290916001600160fb1b0383116103975760209260051b809284830137010190565b919082039182116109d457565b6000818152600160205260ff604082205416600581101561144b576001810180911161145f57600581101561144b578161142660409285600695526001602052838320611200565b838152600160205261143e6007838320015442611371565b9381526001602052200155565b634e487b7160e01b82526021600452602482fd5b634e487b7160e01b82526011600452602482fd5b1561147a57565b60405162461bcd60e51b815260206004820152600f60248201526e4e6f7420696e20656e636f64696e6760881b6044820152606490fd5b929092600093818552600193846020526040936005858820015490600019928383019283116115c6576001600160ff1b039280841681036115b257916114fe9186611503948b1b89611653565b611473565b838752856020526005858820015491820191821161159e578116810361158a579061153091851b836115da565b81855283602052600b8386200154036115495750505090565b92611587929361156d60018060a01b03868585200154166008858520015490611296565b815283602052818120600460ff1982541617905520611218565b90565b634e487b7160e01b86526011600452602486fd5b634e487b7160e01b87526011600452602487fd5b634e487b7160e01b8a52601160045260248afd5b634e487b7160e01b89526011600452602489fd5b906020611636926000938185928352600184526115ff60409560058786200154611371565b90835260018452600c858420015485519085820192835286820152858152611626816111a9565b855192839283925192839161137e565b8101039060025afa156116495750511890565b51903d90823e3d90fd5b939092916000905b856000526001906020908282526003926040938085600020015486101561174957859082821b8a16821c8303611702576116a0928b60005285528560002001546113d1565b60001981019081116109d4576000916116bd6116d892888a611318565b359085519085820192835286820152858152611626816111a9565b8101039060025afa156116f857506116f260005191611309565b9061165b565b513d6000823e3d90fd5b61171292508560002001546113d1565b60001981019081116109d45760009161172f6116d892888a611318565b3585519085820192835286820152858152611626816111a9565b505096955050505050506000526001602052600a604060002001541490565b956114fe6117869493959a986117809285858b611653565b856115da565b916117976114fe86888a8689611653565b600096848852600196876020526040966003888b20015491600019830192831161188557916117c7918593611318565b3503611881576117d89083866115da565b9186810180911161186d576020926117f5899361181e93886115da565b8751908582019283528882015287815261180e816111a9565b875192839283925192839161137e565b8101039060025afa15611863578451036118385750505090565b9283611587939482528460205261156d60018060a01b03868585200154166008858520015490611296565b82513d86823e3d90fd5b634e487b7160e01b88526011600452602488fd5b8780fd5b634e487b7160e01b8b52601160045260248bfd5b9092916001600160401b0384116104a7578360051b60405192602080946118c2828501826111c4565b809781520191810192831161039757905b8282106118e05750505050565b813581529083019083016118d3565b90815180825260208080930193019160005b82811061190f575050505090565b835185529381019392810192600101611901565b9694976114fe6119459493979a61193f929e9d9e85858c611653565b866115da565b926040968751926020978885019a898c5289866119658d820185876113ad565b0396611979601f19988981018352826111c4565b61198a8d519e8f925192839161137e565b8d60009e8f928101039060025afa15611b59578d898d9e9f838f899051906119b194611653565b6119ba90611473565b898d528b60019d8e8d522060030154916000198301928311611b4557906119e19291611318565b8a519035908a8101906001600160fb1b038911611b4157611a2d8f9192838f8f9586611a1e918f8d9060051b8091883781010380855201836111c4565b5192839283925192839161137e565b8101039060025afa15611b37578c5103611b3357611a5791611a50913691611899565b8388611b77565b9389830180931161188557611abb8b94611a84611acb95611a7d8c99968e963691611899565b908b611b77565b611aaf8451948592611aa08b850198838a5260608601906118ef565b918585840301908501526118ef565b039081018352826111c4565b885192839283925192839161137e565b8101039060025afa15611b2957855103611ae6575050505090565b9284918461158795839752828252611b1260018060a01b03848787200154166008878720015490611296565b835252818120805460ff1916600417905520611218565b83513d87823e3d90fd5b8b80fd5b8a513d8e823e3d90fd5b8e80fd5b634e487b7160e01b8f52601160045260248ffd5b8a513d8d823e3d90fd5b80518210156113285760209160051b010190565b906000918083526001916020838152600460409281848820015490818102918183041490151715611c5157869490865b611bb7575b505050505050505090565b818852868452828589200154861015611c4c578388611bff600c88832001548851848101918683528a820152898152611bef816111a9565b895192839283925192839161137e565b8101039060025afa15611c425790611c3a611c3488938b611c2e8a8d51611c268285611b63565b511892611b63565b52611309565b96611309565b959091611ba7565b84513d89823e3d90fd5b611bac565b634e487b7160e01b875260118252602487fdfea26469706673582212204980555ce3d8c5a6576102b47f916325242674194667007ac9c81175438c6b1c64736f6c63430008110033",
  "linkReferences": {},
  "deployedLinkReferences": {}
}