{
  "_format": "hh-sol-artifact-1",
  "contractName": "ERC721Factory",
  "sourceName": "contracts/ERC721Factory.sol",
  "abi": [
    {
      "inputs": [
        {
          "internalType": "address",
          "name": "_templateAddress",
          "type": "address"
        }
      ],
      "stateMutability": "nonpayable",
      "type": "constructor"
    },
    {
      "anonymous": false,
      "inputs": [
        {
          "indexed": true,
          "internalType": "address",
          "name": "owner",
          "type": "address"
        },
        {
          "indexed": true,
          "internalType": "address",
          "name": "creator",
          "type": "address"
        },
        {
          "indexed": true,
          "internalType": "address",
          "name": "templateAddress",
          "type": "address"
        },
        {
          "indexed": false,
          "internalType": "address",
          "name": "tokenAddress",
          "type": "address"
        },
        {
          "indexed": false,
          "internalType": "string",
          "name": "tokenName",
          "type": "string"
        },
        {
          "indexed": false,
          "internalType": "string",
          "name": "tokenSymbol",
          "type": "string"
        },
        {
          "indexed": false,
          "internalType": "string",
          "name": "metadataURI",
          "type": "string"
        },
        {
          "indexed": false,
          "internalType": "enum IERC721Template.Kind",
          "name": "kind",
          "type": "uint8"
        }
      ],
      "name": "ERC721Created",
      "type": "event"
    },
    {
      "anonymous": false,
      "inputs": [
        {
          "indexed": true,
          "internalType": "address",
          "name": "previousOwner",
          "type": "address"
        },
        {
          "indexed": true,
          "internalType": "address",
          "name": "newOwner",
          "type": "address"
        }
      ],
      "name": "OwnershipTransferred",
      "type": "event"
    },
    {
      "inputs": [
        {
          "internalType": "address",
          "name": "_owner",
          "type": "address"
        },
        {
          "internalType": "string",
          "name": "_name",
          "type": "string"
        },
        {
          "internalType": "string",
          "name": "_symbol",
          "type": "string"
        },
        {
          "internalType": "string",
          "name": "_metadataURI",
          "type": "string"
        },
        {
          "internalType": "enum IERC721Template.Kind",
          "name": "_kind",
          "type": "uint8"
        }
      ],
      "name": "cloneContract",
      "outputs": [
        {
          "internalType": "address",
          "name": "tokenAddress",
          "type": "address"
        }
      ],
      "stateMutability": "nonpayable",
      "type": "function"
    },
    {
      "inputs": [],
      "name": "currentERC721Count",
      "outputs": [
        {
          "internalType": "uint256",
          "name": "",
          "type": "uint256"
        }
      ],
      "stateMutability": "view",
      "type": "function"
    },
    {
      "inputs": [],
      "name": "owner",
      "outputs": [
        {
          "internalType": "address",
          "name": "",
          "type": "address"
        }
      ],
      "stateMutability": "view",
      "type": "function"
    },
    {
      "inputs": [],
      "name": "renounceOwnership",
      "outputs": [],
      "stateMutability": "nonpayable",
      "type": "function"
    },
    {
      "inputs": [
        {
          "internalType": "address",
          "name": "_templateAddress",
          "type": "address"
        }
      ],
      "name": "setTemplateAddress",
      "outputs": [],
      "stateMutability": "nonpayable",
      "type": "function"
    },
    {
      "inputs": [],
      "name": "templateAddress",
      "outputs": [
        {
          "internalType": "address",
          "name": "",
          "type": "address"
        }
      ],
      "stateMutability": "view",
      "type": "function"
    },
    {
      "inputs": [
        {
          "internalType": "address",
          "name": "newOwner",
          "type": "address"
        }
      ],
      "name": "transferOwnership",
      "outputs": [],
      "stateMutability": "nonpayable",
      "type": "function"
    }
  ],
  "bytecode": "0x6080346100fc57601f61081638819003918201601f19168301916001600160401b03831184841017610101578084926020946040528339810103126100fc57516001600160a01b03808216918290036100fc576000549060018060a01b0319913383821617600055604051913391167f8be0079c531659141344cd1fd0a4f28419497f9722a3daafe3b4186f6b6457e0600080a360018055600060025582156100ba575060035416176003556040516106fe90816101188239f35b62461bcd60e51b815260206004820152601860248201527f4e756c6c2061646472657373206e6f7420616c6c6f77656400000000000000006044820152606490fd5b600080fd5b634e487b7160e01b600052604160045260246000fdfe60806040526004361015610013575b600080fd5b6000803560e01c9081630c5a6f2f146100a2575080633be7347c14610099578063715018a6146100905780638da5cb5b14610087578063b96285411461007e578063dbfa2b90146100755763f2fde38b1461006d57600080fd5b61000e61036a565b5061000e6102c4565b5061000e610186565b5061000e610146565b5061000e6100ea565b5061000e6100cb565b346100c857806003193601126100c8576003546001600160a01b03166080908152602090f35b80fd5b503461000e57600036600319011261000e576020600254604051908152f35b503461000e576000806003193601126100c85761010561042e565b80546001600160a01b03198116825581906001600160a01b03167f8be0079c531659141344cd1fd0a4f28419497f9722a3daafe3b4186f6b6457e08280a380f35b503461000e57600036600319011261000e576000546040516001600160a01b039091168152602090f35b600435906001600160a01b038216820361000e57565b503461000e57602036600319011261000e576101a0610170565b6101a861042e565b6001600160a01b031680156101d4576bffffffffffffffffffffffff60a01b6003541617600355600080f35b60405162461bcd60e51b815260206004820152601860248201527f4e756c6c2061646472657373206e6f7420616c6c6f77656400000000000000006044820152606490fd5b50634e487b7160e01b600052604160045260246000fd5b90601f8019910116810190811067ffffffffffffffff82111761025257604052565b61025a610219565b604052565b81601f8201121561000e5780359067ffffffffffffffff82116102b7575b60405192610295601f8401601f191660200185610230565b8284526020838301011161000e57816000926020809301838601378301015290565b6102bf610219565b61027d565b503461000e5760a036600319011261000e576102de610170565b67ffffffffffffffff9060243582811161000e5761030090369060040161025f565b9160443581811161000e5761031990369060040161025f565b9060643590811161000e5761033290369060040161025f565b60843591600283101561000e576103669461034c9461057c565b6040516001600160a01b0390911681529081906020820190565b0390f35b503461000e57602036600319011261000e57610384610170565b61038c61042e565b6001600160a01b0390811680156103da57600080546001600160a01b03198116831782559092167f8be0079c531659141344cd1fd0a4f28419497f9722a3daafe3b4186f6b6457e08380a380f35b60405162461bcd60e51b815260206004820152602660248201527f4f776e61626c653a206e6577206f776e657220697320746865207a65726f206160448201526564647265737360d01b6064820152608490fd5b6000546001600160a01b0316330361044257565b606460405162461bcd60e51b815260206004820152602060248201527f4f776e61626c653a2063616c6c6572206973206e6f7420746865206f776e65726044820152fd5b906001820180921161049457565b634e487b7160e01b600052601160045260246000fd5b919082519283825260005b8481106104d6575050826000602080949584010152601f8019910116010190565b6020818301810151848301820152016104b5565b9594939192610515610531946105239360018060a01b0316895260a060208a015260a08901906104aa565b9087820360408901526104aa565b9085820360608701526104aa565b9260028210156105415760800152565b634e487b7160e01b600052602160045260246000fd5b9081602091031261000e5751801515810361000e5790565b506040513d6000823e3d90fd5b6003549095949291906001600160a01b031661059790610670565b956002546105a490610486565b6002556003546001600160a01b031693604051600160a01b6001900380961690843391808c868c8b8d8b16966105da94866104ea565b037fcb64d442392e5b570da016fd05bd7844ba9c09eb80548a0923904688984b284591a460405163027d77eb60e31b8152958694859461061d94600487016104ea565b0391851691815a602094600091f18015610663575b6106395750565b6106599060203d811161065c575b6106518183610230565b810190610557565b50565b503d610647565b61066b61056f565b610632565b604051733d602d80600a3d3981f3363d3d373d3d3d363d7360601b815260609190911b6bffffffffffffffffffffffff191660148201526e5af43d82803e903d91602b57fd5bf360881b60288201526037906000f09056fea2646970667358221220f73f1016fb74c21673e47f54317f83ed9e685b180643bff675331d349fd9eedc64736f6c63430008110033",
  "linkReferences": {},
  "deployedLinkReferences": {}
}