{
  "_format": "hh-sol-artifact-1",
  "contractName": "Marketplace",
  "sourceName": "contracts/marketplace/Marketplace.sol",
  "abi": [
    {
      "anonymous": false,
      "inputs": [
        {
          "indexed": true,
          "internalType": "address",
          "name": "nftAddress",
          "type": "address"
        },
        {
          "indexed": true,
          "internalType": "address",
          "name": "algorithm",
          "type": "address"
        },
        {
          "indexed": true,
          "internalType": "address",
          "name": "sender",
          "type": "address"
        },
        {
          "indexed": false,
          "internalType": "uint256",
          "name": "price",
          "type": "uint256"
        }
      ],
      "name": "OfferCreated",
      "type": "event"
    },
    {
      "anonymous": false,
      "inputs": [],
      "name": "OfferRemoved",
      "type": "event"
    },
    {
      "anonymous": false,
      "inputs": [],
      "name": "OfferUpdated",
      "type": "event"
    },
    {
      "anonymous": false,
      "inputs": [
        {
          "indexed": false,
          "internalType": "bytes32",
          "name": "sessionId",
          "type": "bytes32"
        }
      ],
      "name": "OrderAccepted",
      "type": "event"
    },
    {
      "anonymous": false,
      "inputs": [
        {
          "indexed": false,
          "internalType": "bytes32",
          "name": "sessionId",
          "type": "bytes32"
        }
      ],
      "name": "OrderCancelled",
      "type": "event"
    },
    {
      "anonymous": false,
      "inputs": [
        {
          "indexed": false,
          "internalType": "enum FairSwap.Stage",
          "name": "phase",
          "type": "uint8"
        },
        {
          "indexed": true,
          "internalType": "address",
          "name": "sender",
          "type": "address"
        },
        {
          "indexed": true,
          "internalType": "address",
          "name": "receiver",
          "type": "address"
        },
        {
          "indexed": true,
          "internalType": "address",
          "name": "nftAddress",
          "type": "address"
        },
        {
          "indexed": false,
          "internalType": "address",
          "name": "algorithm",
          "type": "address"
        },
        {
          "indexed": false,
          "internalType": "address",
          "name": "verifier",
          "type": "address"
        },
        {
          "indexed": false,
          "internalType": "string",
          "name": "pkAddress",
          "type": "string"
        },
        {
          "indexed": false,
          "internalType": "uint256",
          "name": "timeout",
          "type": "uint256"
        },
        {
          "indexed": false,
          "internalType": "uint256",
          "name": "timeoutInterval",
          "type": "uint256"
        },
        {
          "indexed": false,
          "internalType": "uint256",
          "name": "price",
          "type": "uint256"
        },
        {
          "indexed": false,
          "internalType": "bytes32",
          "name": "sessionId",
          "type": "bytes32"
        }
      ],
      "name": "OrderCreated",
      "type": "event"
    },
    {
      "anonymous": false,
      "inputs": [
        {
          "indexed": false,
          "internalType": "bytes32",
          "name": "sessionId",
          "type": "bytes32"
        }
      ],
      "name": "OrderFulfilled",
      "type": "event"
    },
    {
      "anonymous": false,
      "inputs": [
        {
          "indexed": false,
          "internalType": "uint256",
          "name": "depth",
          "type": "uint256"
        },
        {
          "indexed": false,
          "internalType": "uint256",
          "name": "length",
          "type": "uint256"
        },
        {
          "indexed": false,
          "internalType": "uint256",
          "name": "n",
          "type": "uint256"
        },
        {
          "indexed": false,
          "internalType": "bytes32",
          "name": "keyCommit",
          "type": "bytes32"
        },
        {
          "indexed": false,
          "internalType": "bytes32",
          "name": "ciphertextRoot",
          "type": "bytes32"
        },
        {
          "indexed": false,
          "internalType": "bytes32",
          "name": "fileRoot",
          "type": "bytes32"
        },
        {
          "indexed": false,
          "internalType": "bytes32",
          "name": "sessionId",
          "type": "bytes32"
        }
      ],
      "name": "OrderInitialized",
      "type": "event"
    },
    {
      "anonymous": false,
      "inputs": [
        {
          "indexed": false,
          "internalType": "bytes32",
          "name": "key",
          "type": "bytes32"
        },
        {
          "indexed": false,
          "internalType": "bytes32",
          "name": "sessionId",
          "type": "bytes32"
        }
      ],
      "name": "OrderRevealed",
      "type": "event"
    },
    {
      "inputs": [
        {
          "internalType": "bytes32",
          "name": "_sessionId",
          "type": "bytes32"
        }
      ],
      "name": "buy",
      "outputs": [],
      "stateMutability": "payable",
      "type": "function"
    },
    {
      "inputs": [
        {
          "internalType": "bytes32",
          "name": "_sessionId",
          "type": "bytes32"
        },
        {
          "internalType": "uint256",
          "name": "_indexOut",
          "type": "uint256"
        },
        {
          "internalType": "uint256",
          "name": "_indexIn",
          "type": "uint256"
        },
        {
          "internalType": "bytes32",
          "name": "_Zout",
          "type": "bytes32"
        },
        {
          "internalType": "bytes32[]",
          "name": "_Zin1",
          "type": "bytes32[]"
        },
        {
          "internalType": "bytes32[]",
          "name": "_Zin2",
          "type": "bytes32[]"
        },
        {
          "internalType": "bytes32[]",
          "name": "_proofZout",
          "type": "bytes32[]"
        },
        {
          "internalType": "bytes32[]",
          "name": "_proofZin",
          "type": "bytes32[]"
        }
      ],
      "name": "complainAboutLeaf",
      "outputs": [],
      "stateMutability": "nonpayable",
      "type": "function"
    },
    {
      "inputs": [
        {
          "internalType": "bytes32",
          "name": "_sessionId",
          "type": "bytes32"
        },
        {
          "internalType": "uint256",
          "name": "_indexOut",
          "type": "uint256"
        },
        {
          "internalType": "uint256",
          "name": "_indexIn",
          "type": "uint256"
        },
        {
          "internalType": "bytes32",
          "name": "_Zout",
          "type": "bytes32"
        },
        {
          "internalType": "bytes32",
          "name": "_Zin1",
          "type": "bytes32"
        },
        {
          "internalType": "bytes32",
          "name": "_Zin2",
          "type": "bytes32"
        },
        {
          "internalType": "bytes32[]",
          "name": "_proofZout",
          "type": "bytes32[]"
        },
        {
          "internalType": "bytes32[]",
          "name": "_proofZin",
          "type": "bytes32[]"
        }
      ],
      "name": "complainAboutNode",
      "outputs": [],
      "stateMutability": "nonpayable",
      "type": "function"
    },
    {
      "inputs": [
        {
          "internalType": "bytes32",
          "name": "_sessionId",
          "type": "bytes32"
        },
        {
          "internalType": "bytes32",
          "name": "_Zm",
          "type": "bytes32"
        },
        {
          "internalType": "bytes32[]",
          "name": "_proofZm",
          "type": "bytes32[]"
        }
      ],
      "name": "complainAboutRoot",
      "outputs": [],
      "stateMutability": "nonpayable",
      "type": "function"
    },
    {
      "inputs": [
        {
          "internalType": "address",
          "name": "_nftAddress",
          "type": "address"
        },
        {
          "internalType": "address[]",
          "name": "_algorithms",
          "type": "address[]"
        },
        {
          "internalType": "uint256[]",
          "name": "_prices",
          "type": "uint256[]"
        }
      ],
      "name": "createOffer",
      "outputs": [],
      "stateMutability": "nonpayable",
      "type": "function"
    },
    {
      "inputs": [
        {
          "internalType": "address",
          "name": "_nftAddress",
          "type": "address"
        },
        {
          "internalType": "address",
          "name": "_verifier",
          "type": "address"
        },
        {
          "internalType": "address",
          "name": "_algorithm",
          "type": "address"
        },
        {
          "internalType": "string",
          "name": "_pkAddress",
          "type": "string"
        }
      ],
      "name": "createOrder",
      "outputs": [],
      "stateMutability": "nonpayable",
      "type": "function"
    },
    {
      "inputs": [
        {
          "internalType": "bytes32",
          "name": "_sessionId",
          "type": "bytes32"
        },
        {
          "internalType": "uint256",
          "name": "_depth",
          "type": "uint256"
        },
        {
          "internalType": "uint256",
          "name": "_length",
          "type": "uint256"
        },
        {
          "internalType": "uint256",
          "name": "_n",
          "type": "uint256"
        },
        {
          "internalType": "bytes32",
          "name": "_keyCommit",
          "type": "bytes32"
        },
        {
          "internalType": "bytes32",
          "name": "_ciphertextRoot",
          "type": "bytes32"
        },
        {
          "internalType": "bytes32",
          "name": "_fileRoot",
          "type": "bytes32"
        },
        {
          "internalType": "uint256[]",
          "name": "_input",
          "type": "uint256[]"
        },
        {
          "components": [
            {
              "components": [
                {
                  "internalType": "uint256",
                  "name": "X",
                  "type": "uint256"
                },
                {
                  "internalType": "uint256",
                  "name": "Y",
                  "type": "uint256"
                }
              ],
              "internalType": "struct Marketplace.G1Point",
              "name": "a",
              "type": "tuple"
            },
            {
              "components": [
                {
                  "internalType": "uint256[2]",
                  "name": "X",
                  "type": "uint256[2]"
                },
                {
                  "internalType": "uint256[2]",
                  "name": "Y",
                  "type": "uint256[2]"
                }
              ],
              "internalType": "struct Marketplace.G2Point",
              "name": "b",
              "type": "tuple"
            },
            {
              "components": [
                {
                  "internalType": "uint256",
                  "name": "X",
                  "type": "uint256"
                },
                {
                  "internalType": "uint256",
                  "name": "Y",
                  "type": "uint256"
                }
              ],
              "internalType": "struct Marketplace.G1Point",
              "name": "c",
              "type": "tuple"
            }
          ],
          "internalType": "struct Marketplace.Proof",
          "name": "_proof",
          "type": "tuple"
        }
      ],
      "name": "proofComputation",
      "outputs": [],
      "stateMutability": "nonpayable",
      "type": "function"
    },
    {
      "inputs": [
        {
          "internalType": "bytes32",
          "name": "_sessionId",
          "type": "bytes32"
        }
      ],
      "name": "refund",
      "outputs": [],
      "stateMutability": "nonpayable",
      "type": "function"
    },
    {
      "inputs": [
        {
          "internalType": "bytes32",
          "name": "_sessionId",
          "type": "bytes32"
        },
        {
          "internalType": "bytes32",
          "name": "_key",
          "type": "bytes32"
        }
      ],
      "name": "reveal",
      "outputs": [],
      "stateMutability": "nonpayable",
      "type": "function"
    },
    {
      "stateMutability": "payable",
      "type": "receive"
    }
  ],
  "bytecode": "0x6080806040523461001b57600160005561220390816100218239f35b600080fdfe6080604052600436101561005e575b361561001957600080fd5b60405162461bcd60e51b815260206004820152601d60248201527f4f6e6c7920696620636f6d7075746174696f6e732061726520736f6c640000006044820152606490fd5b60003560e01c806323c944011461153c578063303fd0bb1461143e5780637249fbb61461135e5780639c9a1061146112b8578063c0d9e40d14610bc0578063d5f4645814610a5d578063fc334e8c1461093c578063fed577121461066b5763ff55ce220361000e5734610567576102003660031901126105675760e4356001600160401b038111610567576100f7903690600401611611565b906101003661010319011261056757600260005414610626576002600055600435600052600160205260406000206040519061013282611657565b805461014160ff8216846118ed565b60081c6001600160a01b03908116602084015260018201548116604080850191909152600283015482166060850152600383015482166080850152600483015490911660a084015251600582015460009061019b816116e2565b808452906001811690811561060257506001146105b8575b50906101c481600f9493038261168e565b60c0840152600681015460e0840152600781015461010084015260088101546101208401526009810154610140840152600a810154610160840152600b810154610180840152600c8101546101a0840152600d8101546101c0840152600e8101546101e0840152015461020082015260208101516001600160a01b0316330361058257600092836102b2926102c08295604051958691602083019663c941764760e01b885261010480356024860152610120610124803560448801526101449260408460648a0137604061018460a48a01376101c43560e48901526101e43590880152860152840191611929565b03601f19810186528561168e565b60a001519251926001600160a01b03165af16102da6117e2565b901561056757806020806102f39351830101910161186d565b1561056757600435600090815260016020526040902054600881901c6001600160a01b03169060ff16600581101561056c57610567576004356000526001602052600960406000200154421015610567573303610567576040600020602435600682015560443560078201556064356008820155608435600c82015560a435600d82015560c435600e9091015561038b60043561194d565b60043560005260016020526040600020604051906103a882611657565b80546103b760ff8216846118ed565b60081c6001600160a01b03908116602084015260018201548116604080850191909152600283015482166060850152600383015482166080850152600483015490911660a0840152516005820154600090610411816116e2565b80845290600181169081156105455750600114610504575b7ff59e4e348ca114f954d760e7bbcb1af2627f94c03e23dca748993ec5b8c8e2ec60e086868661045b8188038261168e565b60c083015260068101549182848201526007820154806101008301526008830154806101208401526009840154610140840152600a840154610160840152600b840154610180840152600c84015491826101a0850152600d85015493846101c0820152610200600f600e88015497886101e08501520154910152604051958652602086015260408501526060840152608083015260a082015260043560c0820152a16001600055005b9050600583016000526020600020906000915b81831061052b575050810160200181610429565b600181602092949394548385880101520191019190610517565b60ff191660208086019190915291151560051b84019091019150829050610429565b600080fd5b634e487b7160e01b600052602160045260246000fd5b60405162461bcd60e51b815260206004820152600e60248201526d2737ba103a34329039b2b73232b960911b6044820152606490fd5b92919050600582016000526020600020926000905b8082106105e657509192509081016020016101c46101b3565b91929360018160209254838588010152019101909392916105cd565b60ff191660208086019190915291151560051b840190910191506101c490506101b3565b60405162461bcd60e51b815260206004820152601f60248201527f5265656e7472616e637947756172643a207265656e7472616e742063616c6c006044820152606490fd5b3461056757606036600319011261056757610684611641565b6024906001600160401b03908235828111610567576106a7903690600401611611565b936044938435908111610567576106c2903690600401611611565b959092868203610905576040516301ffc9a760e01b81526380ac58cd60e01b60048201526001600160a01b0395861692602092909183818781885afa908115610851576000916108d8575b50156108a05760005b82811061071f57005b61072a818b89611894565b351561085d5761073b818b89611894565b35856000526002855260406000208961075d610758858888611894565b6118ba565b166000528552604060002055610777610758828585611894565b6040516331a9108f60e11b8152600160048201529190858389818a5afa928315610851576107f19388888f868f918f966000966107f6575b5082916107df917f6167d627da72a913fb477055ee686dfefb48ee3623474eb852da6bfcce0fb998969798611894565b359560405196875216951693a4611885565b610716565b7f6167d627da72a913fb477055ee686dfefb48ee3623474eb852da6bfcce0fb998959650916107df9161083f8594873d891161084a575b610837818361168e565b8101906118ce565b9796509150916107af565b503d61082d565b6040513d6000823e3d90fd5b60405162461bcd60e51b8152600481018590526017818801527f50726963652063616e2774206265206e65676174697665000000000000000000818b0152606490fd5b60405162461bcd60e51b815260048101849052601281870152714e6f7420612076616c69642045524337323160701b818a0152606490fd5b6108f89150843d86116108fe575b6108f0818361168e565b81019061186d565b8a61070d565b503d6108e6565b60405162461bcd60e51b8152602060048201526011818501527013195b99dd1a1cc81b9bdd08195c5d585b607a1b81880152606490fd5b346105675760403660031901126105675760043560008181526001602090815260409091205460243590600881901c6001600160a01b03169060ff16600581101561056c5760020361056757836000526001835260096040600020015442101561056757330361056757600c60406000200154604051838101838152848252604082018281106001600160401b03821117610a47578592816109e86000948260405283519283916118f9565b8101039060025afa15610851576000510361056757826040927f2cf28bf9600f9917825b89ffa0b45d1c8b7e9d290a9aa382d2fad867bcd53644946000526001815282600f856000200155610a3c8261194d565b8351928352820152a1005b634e487b7160e01b600052604160045260246000fd5b3461056757610100366003190112610567576004356001600160401b0360843581811161056757610a92903690600401611611565b60a49291923582811161056757610aad903690600401611611565b909260c43581811161056757610ac7903690600401611611565b92909160e43590811161056757610ae2903690600401611611565b95909488600052600160205260018060a01b03806001604060002001541660ff60406000205416600581101561056c57600303610567578a6000526001602052600960406000200154421015610567573303610567576001604060002001541660ff60406000205416600581101561056c576003036105675789600052600160205260096040600020015442101561056757330361056757610b8d976064356044356024358c611e9f565b610b9357005b60207f5152abf959f6564662358c2e52b702259b78bac5ee7842a0f01937e670efcc7d91604051908152a1005b3461056757608036600319011261056757610bd9611641565b6024356001600160a01b0381168103610567576044356001600160a01b0381169003610567576064356001600160401b0381116105675736602382011215610567578060040135610c29816116af565b91610c37604051938461168e565b8183523660248383010111610567578160009260246020930183860137830101526001600160a01b0383811660008181526002602090815260408083206044359095168352938152908390205492516331a9108f60e11b8152600160048201529492939291859060249082905afa93841561085157600094611297575b5060206000610d19604051838101906bffffffffffffffffffffffff198960601b1682523360601b60348201526bffffffffffffffffffffffff1960443560601b166048820152603c8152610d0881611673565b6040519283928392519283916118f9565b8101039060025afa156108515760005194610e10420142116112815760405194610d4286611657565b6000865260018060a01b0316602086015233604086015260018060a01b0316606085015260018060a01b0360443516608085015260018060a01b031660a084015260c0830152600060e083015260006101008301526000610120830152610e104201610140830152610e1061016083015261018082015260006101a082015260006101c082015260006101e082015260006102008201528160005260016020526040600020908051600581101561056c57610dfd90836116ca565b60208101518254610100600160a81b03191660089190911b610100600160a81b031617825560408101516001830180546001600160a01b03199081166001600160a01b0393841617909155606083015160028501805483169184169190911790556080830151600385018054831691841691909117905560a0830151600485018054909216921691909117905560c08101518051906001600160401b038211610a4757610ead60058501546116e2565b601f8111611241575b50602090601f83116001146111cb579180600f9492610200946000926111c0575b50508160011b916000199060031b1c19161760058501555b60e08101516006850155610100810151600785015561012081015160088501556101408101516009850155610160810151600a850155610180810151600b8501556101a0810151600c8501556101c0810151600d8501556101e0810151600e850155015191015580600052600160205260406000209060405190610f7282611657565b8254610f8160ff8216846118ed565b60081c6001600160a01b03908116602084015260018401548116604080850191909152600285015482166060850152600385015482166080850152600485015490911660a0840152516005840180546000959291610fde826116e2565b8084529160018116908115611199575060011461115c575b505061100881600f949596038261168e565b60c0850152600681015460e0850152600781015461010085015260088101546101208501526009810154610140850152600a810154610160850152600b810154610180850152600c8101546101a0850152600d8101546101c0850152600e8101546101e08501520154610200830152815190600582101561056c577fdf1b8c15cf593f7b65af197a3e7d1c668e1f72a35390338278d8d5da0a719e8e60018060a01b036020850151169161012060018060a01b036040870151169460018060a01b036060880151169660018060a01b036080820151169360018060a01b0360a08301511660c08301519261014081015161018061016083015192015192604051988997885260208801526040870152610100606087015261113985518096816101008a015260208a8a0191016118f9565b608086015260a085015260c084015260e0830152601f01601f19168101030190a4005b90955060005260206000206000905b86821061118357508101602001945061100881610ff6565b600181602092548385870101520191019061116b565b60ff191660208086019190915292151560051b840190920196506110089150829050610ff6565b015190508780610ed7565b906005850160005260206000209160005b601f1985168110611229575092600f94926001926102009583601f19811610611210575b505050811b016005850155610eef565b015160001960f88460031b161c19169055878080611200565b919260206001819286850151815501940192016111dc565b61127190600586016000526020600020601f850160051c81019160208610611277575b601f0160051c019061171c565b85610eb6565b9091508190611264565b634e487b7160e01b600052601160045260246000fd5b6112b191945060203d60201161084a57610837818361168e565b9285610cb4565b60203660031901126105675760043580600052600160205260018060a01b036001604060002001541660ff60406000205416600581101561056c576001036105675781600052600160205260096040600020015442101561056757330361056757600b604060002001543410610567576020816113557f63c027557cd85061f6431e688c7d6d1ab2f4be5510ad28a8be7e3498b164b2d49361194d565b604051908152a1005b34610567576020806003193601126105675760043590816000526001918282526009604060002001544211156105675760ff60406000205416600581101561056c576002036113f25760008181528383526040902080840154600b909101546113cf916001600160a01b0316611812565b600052526040600020600460ff198254161790556113f06040600020611733565b005b8060005282825260ff60406000205416600581101561056c576003111561141557005b6000818152838352604090208054600b909101546113cf9160081c6001600160a01b0316611812565b3461056757610100366003190112610567576004356001600160401b0360c43581811161056757611473903690600401611611565b909160e4359081116105675761148d903690600401611611565b9184600052600160205260018060a01b03806001604060002001541660ff60406000205416600581101561056c5760030361056757866000526001602052600960406000200154421015610567573303610567576001604060002001541660ff60406000205416600581101561056c576003036105675785600052600160205260096040600020015442101561056757330361056757610b8d9360a4356084356064356044356024358a611ce4565b34610567576060366003190112610567576004356044356001600160401b0381116105675761156f903690600401611611565b82600052600160205260018060a01b03806001604060002001541660ff60406000205416600581101561056c5760030361056757846000526001602052600960406000200154421015610567573303610567576001604060002001541660ff60406000205416600581101561056c576003036105675783600052600160205260096040600020015442101561056757330361056757610b8d9160243584611a2d565b9181601f84011215610567578235916001600160401b038311610567576020808501948460051b01011161056757565b600435906001600160a01b038216820361056757565b61022081019081106001600160401b03821117610a4757604052565b606081019081106001600160401b03821117610a4757604052565b90601f801991011681019081106001600160401b03821117610a4757604052565b6001600160401b038111610a4757601f01601f191660200190565b90600581101561056c5760ff80198354169116179055565b90600182811c92168015611712575b60208310146116fc57565b634e487b7160e01b600052602260045260246000fd5b91607f16916116f1565b818110611727575050565b6000815560010161171c565b600f600091828155826001820155826002820155826003820155826004820155826005820161176281546116e2565b806117a3575b5050600682015582600782015582600882015582600982015582600a82015582600b82015582600c82015582600d82015582600e8201550155565b601f81116001146117b95750555b823880611768565b818352602083206117d591601f0160051c81019060010161171c565b81602081209155556117b1565b3d1561180d573d906117f3826116af565b91611801604051938461168e565b82523d6000602084013e565b606090565b6000918291829182916001600160a01b03165af161182e6117e2565b501561183657565b60405162461bcd60e51b815260206004820152600f60248201526e151c985b9cd9995c8819985a5b1959608a1b6044820152606490fd5b90816020910312610567575180151581036105675790565b60001981146112815760010190565b91908110156118a45760051b0190565b634e487b7160e01b600052603260045260246000fd5b356001600160a01b03811681036105675790565b9081602091031261056757516001600160a01b03811681036105675790565b600582101561056c5752565b60005b83811061190c5750506000910152565b81810151838201526020016118fc565b9190820180921161128157565b81835290916001600160fb1b0383116105675760209260051b809284830137010190565b6000818152600160205260ff60408220541660058110156119ba57600181018091116119ce5760058110156119ba5781611995604092856009955260016020528383206116ca565b83815260016020526119ad600a83832001544261191c565b9381526001602052200155565b634e487b7160e01b82526021600452602482fd5b634e487b7160e01b82526011600452602482fd5b9190820391821161128157565b156119f657565b60405162461bcd60e51b815260206004820152600f60248201526e4e6f7420696e20656e636f64696e6760881b6044820152606490fd5b92909260009381855260019384602052604093600885882001549060001992838301928311611b42576001600160ff1b03928084168103611b2e5791611a7a9186611a7f948b1b89611bcf565b6119ef565b8387528560205260088588200154918201918211611b1a5781168103611b065790611aac91851b83611b56565b81855283602052600e838620015403611ac55750505090565b92611b039293611ae960018060a01b0386858520015416600b858520015490611812565b815283602052818120600460ff1982541617905520611733565b90565b634e487b7160e01b86526011600452602486fd5b634e487b7160e01b87526011600452602487fd5b634e487b7160e01b8a52601160045260248afd5b634e487b7160e01b89526011600452602489fd5b906020611bb292600093818592835260018452611b7b6040956008878620015461191c565b90835260018452600f858420015485519085820192835286820152858152611ba281611673565b85519283928392519283916118f9565b8101039060025afa15611bc55750511890565b51903d90823e3d90fd5b939092916000905b8560005260019060209082825260069260409380856000200154861015611cc557859082821b8a16821c8303611c7e57611c1c928b60005285528560002001546119e2565b600019810190811161128157600091611c39611c5492888a611894565b359085519085820192835286820152858152611ba281611673565b8101039060025afa15611c745750611c6e60005191611885565b90611bd7565b513d6000823e3d90fd5b611c8e92508560002001546119e2565b600019810190811161128157600091611cab611c5492888a611894565b3585519085820192835286820152858152611ba281611673565b505096955050505050506000526001602052600d604060002001541490565b95611a7a611d029493959a98611cfc9285858b611bcf565b85611b56565b91611d13611a7a86888a8689611bcf565b600096848852600196876020526040966006888b200154916000198301928311611e015791611d43918593611894565b3503611dfd57611d54908386611b56565b91868101809111611de957602092611d718993611d9a9388611b56565b87519085820192835288820152878152611d8a81611673565b87519283928392519283916118f9565b8101039060025afa15611ddf57845103611db45750505090565b9283611b039394825284602052611ae960018060a01b0386858520015416600b858520015490611812565b82513d86823e3d90fd5b634e487b7160e01b88526011600452602488fd5b8780fd5b634e487b7160e01b8b52601160045260248bfd5b9092916001600160401b038411610a47578360051b6040519260208094611e3e8285018261168e565b809781520191810192831161056757905b828210611e5c5750505050565b81358152908301908301611e4f565b90815180825260208080930193019160005b828110611e8b575050505090565b835185529381019392810192600101611e7d565b969497611a7a611ec19493979a611ebb929e9d9e85858c611bcf565b86611b56565b926040968751926020978885019a898c528986611ee18d82018587611929565b0396611ef5601f199889810183528261168e565b611f068d519e8f92519283916118f9565b8d60009e8f928101039060025afa156120d5578d898d9e9f838f89905190611f2d94611bcf565b611f36906119ef565b898d528b60019d8e8d5220600601549160001983019283116120c15790611f5d9291611894565b8a519035908a8101906001600160fb1b0389116120bd57611fa98f9192838f8f9586611f9a918f8d9060051b80918837810103808552018361168e565b519283928392519283916118f9565b8101039060025afa156120b3578c51036120af57611fd391611fcc913691611e15565b83886120f3565b93898301809311611e01576120378b9461200061204795611ff98c99968e963691611e15565b908b6120f3565b61202b845194859261201c8b850198838a526060860190611e6b565b91858584030190850152611e6b565b0390810183528261168e565b88519283928392519283916118f9565b8101039060025afa156120a557855103612062575050505090565b92849184611b039583975282825261208e60018060a01b0384878720015416600b878720015490611812565b835252818120805460ff1916600417905520611733565b83513d87823e3d90fd5b8b80fd5b8a513d8e823e3d90fd5b8e80fd5b634e487b7160e01b8f52601160045260248ffd5b8a513d8d823e3d90fd5b80518210156118a45760209160051b010190565b906000918083526001916020838152600760409281848820015490818102918183041490151715611b1a57869490865b612133575b505050505050505090565b8188528684528285892001548610156121c857838861217b600f88832001548851848101918683528a82015289815261216b81611673565b89519283928392519283916118f9565b8101039060025afa156121be57906121b66121b088938b6121aa8a8d516121a282856120df565b5118926120df565b52611885565b96611885565b959091612123565b84513d89823e3d90fd5b61212856fea2646970667358221220b4664bdacd08ab254d4359c97a2fa8ef88f858ecb16da9140d0c53077011df2564736f6c63430008110033",
  "linkReferences": {},
  "deployedLinkReferences": {}
}